:020000040800F2
:10000000AC3E0120895C0008F55C0008F55C000846
:10001000F55C0008F55C0008F55C000800000000D5
:10002000000000000000000000000000ED280008B3
:10003000F55C000800000000992A0008F52A000875
:10004000F55C0008F55C0008F55C0008F55C00084C
:10005000F55C0008F55C0008F55C0008F55C00083C
:10006000F55C0008F55C0008F55C0008F55C00082C
:10007000F55C0008F55C0008F55C0008F55C00081C
:10008000F55C0008F55C0008F55C0008F55C00080C
:10009000F55C0008F55C0008F55C0008F55C0008FC
:1000A000F55C0008F55C0008F55C0008F55C0008EC
:1000B000F55C0008F55C0008F55C0008F55C0008DC
:1000C000F55C0008F55C0008F55C0008F55C0008CC
:1000D000F55C0008F55C0008F55C0008F55C0008BC
:1000E000F55C0008F55C0008F55C0008F55C0008AC
:1000F000F55C0008F55C0008F55C0008F55C00089C
:10010000F55C0008F55C0008F55C0008F55C00088B
:10011000F55C0008F55C0008F55C0008F55C00087B
:10012000F55C0008F55C0008F55C0008F55C00086B
:10013000F55C0008F55C0008F55C0008F55C00085B
:10014000F55C0008F55C0008F55C0008F55C00084B
:10015000F55C0008F55C0008F55C0008F55C00083B
:10016000F55C0008F55C0008F55C0008F55C00082B
:10017000F55C0008F55C0008F55C0008F55C00081B
:10018000F55C0008F55C000880B485B000AF03465C
:100190003960FB80FB887F2B02D8FB88FB8125E040
:1001A0003B68002B0BD0FB88FF2B05D8FB88803BDE
:1001B000124A32F8133000E00023FB8116E00023DE
:1001C000FB8109E0FB890D4A32F81330FA889A4224
:1001D00006D0FB890133FB81FB897F2BF2D900E03C
:1001E00000BFFB8980339BB2DBB2FB81FB891846E1
:1001F0001437BD465DF8047B704700BFD87D00080A
:1002000080B485B000AF0346FB800023FB6002E0B2
:10021000FB680133FB600F4AFB6832F81330002B98
:1002200006D00C4AFB6832F81330FA889A42EFD1B4
:10023000084AFB6832F81330002B04D0064AFB68EA
:1002400032F8133000E0FB8818461437BD465DF8DD
:10025000047B7047D87E0008B880000880B58AB05B
:1002600000AF7860396000237B6200233B6200238B
:10027000FB610023BB617B681B8A9BB27B627B6A4C
:1002800023F440537B623B68DB881A467B6A134346
:100290007B627B6A9AB27B681A827B689B899BB27D
:1002A0007B627B6A23F4B05323F00C037B623B68D0
:1002B0009A883B681B8913439AB23B685B89134356
:1002C0009BB21A467B6A13437B627B6A9AB27B6855
:1002D0009A817B689B8A9BB27B627B6A23F4407322
:1002E0007B623B689B891A467B6A13437B627B6A0D
:1002F0009AB27B689A8207F10803184600F090FBD7
:100300007B68304A934203D07B682F4A934202D1E4
:100310007B693B6201E03B693B627B689B899BB2E6
:100320001BB2002B0CDA3A6A13469B0013449A0066
:100330001A443B681B685B00B2FBF3F3FB610BE004
:100340003A6A13469B0013449A001A443B681B68A0
:100350009B00B2FBF3F3FB61FB691C4AA2FB032386
:100360005B091B017B627B6A1B09642202FB03F3AE
:10037000FA69D31ABB617B689B899BB21BB2002BC5
:100380000CDABB69DB003233104AA2FB03235B09A2
:1003900003F007037A6A13437B620BE0BB691B011E
:1003A00032330A4AA2FB03235B0903F00F037A6A84
:1003B00013437B627B6A9AB27B681A8100BF28373D
:1003C000BD4680BD00100140001401401F85EB5167
:1003D00080B483B000AF78600B46FB70FB78002BD5
:1003E00008D07B689B899BB243F400539AB27B6828
:1003F0009A8107E07B689B899BB223F400539AB2F1
:100400007B689A8100BF0C37BD465DF8047B70475E
:1004100080B483B000AF78600B467B807B88C3F3E9
:1004200008039AB27B689A8000BF0C37BD465DF81E
:10043000047B704780B485B000AF78600B467B804A
:100440000023FB737B681B889AB27B8813409BB2A6
:10045000002B02D00123FB7301E00023FB73FB7B25
:1004600018461437BD465DF8047B704780B582B0EE
:1004700000AF0346FB71FB79002B01D0012307E09D
:1004800006F078FA0346002B01D0012300E0002398
:1004900018460837BD4680BD80B483B000AF034620
:1004A000FB71FB79002B01D0012300E000231846EB
:1004B0000C37BD465DF8047B704700BF80B586B041
:1004C00000AFB9607A601A460346FB731346BB73EC
:1004D000FB7B002B02D1BB7B002B01D1042317E057
:1004E000BB7B012B06D1B968786806F087FA034612
:1004F000FB7507E0BB7B1A46B968786806F0AAFA74
:100500000346FB75FB7D002B01D1002300E0012396
:1005100018461837BD4680BD80B586B000AFB960BB
:100520007A601A460346FB731346BB73FB7B002BB2
:1005300002D1BB7B002B01D1042317E0BB7B012B35
:1005400006D1B968786806F0C9FA0346FB7507E07A
:10055000BB7B1A46B968786806F01CFB0346FB753E
:10056000FB7D002B01D1002300E001231846183742
:10057000BD4680BD80B59CB000AF03463A60FB71BC
:100580000B46BB71FB79002B01D004234DE0BB79F6
:10059000042B44D801A252F823F000BFB105000893
:1005A000C90500081F060008B9050008FB0500087A
:1005B000002387F86F3036E03B684FF400721A80F2
:1005C000002387F86F302EE007F10C03184606F081
:1005D000A9FB0346002B03D0012387F86F3022E0EC
:1005E0007A6E3B681A603B681B68002B01D00023C1
:1005F00000E0042387F86F3015E03B681A683B6819
:1006000004331B681946104606F046FB0346002BD0
:1006100001D1002300E0042387F86F3003E00423B6
:1006200087F86F3000BF97F86F3018467037BD46B7
:1006300080BD00BF80B400AF00231846BD465DF802
:10064000047B704780B483B000AF78600B46FB70CA
:100650007B681B889BB203F04003002B01D1002371
:1006600025E000BF7B681B899BB203F00303002BCE
:10067000F8D07B681B899BB203F08003002BF1D17B
:10068000FB789AB27B689A8100BF7B681B899BB21A
:1006900003F00303002BF8D07B681B899BB203F0A7
:1006A0008003002BF1D17B689B899BB2DBB218469B
:1006B0000C37BD465DF8047B704700BF80B5A6B01F
:1006C00000AF78600023C7F89430002387F8933098
:1006D000002387F8923001F093FF01F063FF01F0EF
:1006E00071FF01F067FF00BF0821412001F042FFC8
:1006F0000346002BF8D001F077FF01F06BFF0021DB
:100700003248FFF79FFF034687F8933038E097F8A9
:10071000933087F8923000212C48FFF793FF03466F
:1007200087F89330D7F894307F2B0CDCD7F89430CF
:100730005A1CC7F8942007F19802134497F89320A5
:1007400003F8882C1CE001F05BFF07F10C0307F1B4
:1007500010018022786804F0EDFF0023C7F8943080
:10076000D7F894305A1CC7F8942007F19802134424
:1007700097F8932003F8882C01F036FF01F02AFF48
:1007800097F89330D92B14BF01230023DAB297F8DE
:100790009230FF2B14BF01230023DBB21343DBB2E3
:1007A000002BB4D1D7F89430002B0ADD01F028FFDC
:1007B000D7F8942007F10C0307F11001786804F0D2
:1007C000B9FF00BF9837BD4680BD00BF003800406C
:1007D00080B582B000AF00F04DFF03467B6006F0AD
:1007E000E5FC0346002B1BD0114B186800234FF08B
:1007F000FF32002102F0EEFB02F014F900F042FD9E
:1008000002F022F90A4B186800230022002102F0AE
:10081000BBFA084B186800230022002102F0B4FA4A
:100820003B1D42F21071184600F0F6FDD7E700BFFD
:10083000603601202436012080B5ADF58B6D00AF08
:10084000194B186800234FF0FF32002102F0C2FB61
:1008500002F0E8F807F5097301221449184604F07C
:10086000D5FD0346002B15D13B46132210491846EF
:1008700004F010FE0346002B07D13B461846FFF755
:100880001DFF3B46184605F06BF901220749002081
:1008900004F0BCFD02F0D8F8034B186800230022D6
:1008A000002102F071FACBE71C360120A482000877
:1008B000C882000880B5ADF58D6D04AF06F08AFCE6
:1008C00005F01CFA01F09EFD012001F095FF00F0FB
:1008D00071FC0E21444800F0ADFC07F509730122BC
:1008E0004249184604F092FD0346002B28D13B46AE
:1008F00013223F49184604F0CDFD0346002B08D1D2
:100900003B4619463B4805F085F93B46184605F03D
:1009100027F93B4613223849184604F0BBFD03462D
:10092000002B08D13B461946344805F073F93B4685
:10093000184605F015F901222C49002004F066FD47
:1009400003220021012002F095F902462C4B1A6087
:100950002B4B1B68002B06D0294B18680023002264
:10096000002102F011FA03220021012002F082F995
:100970000246244B1A60234B1B68002B06D0214BE8
:10098000186800230022002102F0FEF9012002F085
:10099000B3F902461C4B1A60012002F0ADF9024681
:1009A0001A4B1A6000230393002302930023019340
:1009B0000323009300234FF47A721549154800F081
:1009C00077FC002303930023029300230193022367
:1009D000009300234FF47A720F49104800F068FC2E
:1009E00000F07CFDFEE700BFDC820008A482000866
:1009F000A8820008EC820008148300082483000801
:100A000020360120243601201C36012060360120CA
:100A10004C830008D10700085883000839080008F3
:100A200080B489B000AF78600023BB6100237B6194
:100A30000023FB6102233B610023FB600223BB60B8
:100A4000484B9B6803F00C03BB61BB69042B07D0C8
:100A5000082B09D0002B3FD17B68434A1A603FE046
:100A60007B68424A1A603BE03E4B5B6803F48003BC
:100A70009B0DFB603B4B5B6803F03F03BB60FB6877
:100A8000002B0DD0394ABB68B2FBF3F2354B5968E5
:100A900047F6C0730B409B0903FB02F3FB610CE0BC
:100AA000314ABB68B2FBF3F22E4B596847F6C0736C
:100AB0000B409B0903FB02F3FB612A4B5B6803F4C9
:100AC00040331B0C01335B003B61FA693B69B2FBAD
:100AD000F3F27B681A6003E07B68234A1A6000BF68
:100AE000204B9B6803F0F003BB61BB691B09BB6132
:100AF0001F4ABB6913441B78DBB27B617B681A68B1
:100B00007B69DA407B685A60164B9B6803F4E053BC
:100B1000BB61BB699B0ABB61154ABB6913441B7867
:100B2000DBB27B617B685A687B69DA407B689A60DC
:100B30000C4B9B6803F46043BB61BB695B0BBB61FF
:100B40000B4ABB6913441B78DBB27B617B685A6834
:100B50007B69DA407B68DA6000BF2437BD465DF808
:100B6000047B7047003802400024F40000127A0031
:100B70000000002080B483B000AF78600B46FB70AB
:100B8000FB78002B06D00A49094B1A6B7B6813438C
:100B90000B6306E00649064B1A6B7B68DB43134088
:100BA0000B6300BF0C37BD465DF8047B704700BF88
:100BB0000038024080B483B000AF78600B46FB7011
:100BC000FB78002B06D00A49094B1A6C7B6813434B
:100BD0000B6406E00649064B1A6C7B68DB43134046
:100BE0000B6400BF0C37BD465DF8047B704700BF47
:100BF0000038024080B483B000AF78600B46FB70D1
:100C0000FB78002B06D00A49094B5A6C7B681343CA
:100C10004B6406E00649064B5A6C7B68DB43134085
:100C20004B6400BF0C37BD465DF8047B704700BFC6
:100C30000038024080B483B000AF78600B46FB7090
:100C4000FB78002B06D00A49094B1A6A7B681343CC
:100C50000B6206E00649064B1A6A7B68DB431340C9
:100C60000B6200BF0C37BD465DF8047B704700BFC8
:100C70000038024080B483B000AF78600B46FB7050
:100C8000FB78002B06D00A49094B5A6A7B6813434C
:100C90004B6206E00649064B5A6A7B68DB43134009
:100CA0004B6200BF0C37BD465DF8047B704700BF48
:100CB0000038024080B586B004AF00237B6000F0AE
:100CC0003BFA0F4B1B68002B0FD00023039300232C
:100CD0000293002301930223009300234FF48272B6
:100CE0000849094800F0E4FA78607B68002B02D1DB
:100CF00001F0C4FEFEE77B6818460837BD4680BD9C
:100D00009C08002060830008FD0D000880B588B0B5
:100D100000AFF860B9607A603B600023FB611A4B5A
:100D20001B68002B2AD0BB683B617B687B61FB683A
:100D3000BB613B68002B18D101F06CF80346022B15
:100D400009D1114B186807F110010023BA6A02F0AB
:100D50001BF8F86112E00C4B186807F11001002332
:100D6000002202F011F8F86108E0074B186807F15B
:100D7000100100233A6802F0C3F8F861FB691846D5
:100D80002037BD4680BD00BF9C08002080B586B0DE
:100D900002AF78603960184B1B68DB68DB68FB606A
:100DA000FB680433184601F0C7FAFB68DB69012BC6
:100DB0001AD1FB689A697B68D1187B683A68F86831
:100DC00000F0A8F80346012B0ED100230093002366
:100DD0007A680021F868FFF799FFB860BB68002BBC
:100DE00002D101F04BFEFEE7FB685B6AF8689847AA
:100DF00000BF1037BD4680BD9408002080B584B088
:100E000000AF786007F10803184600F03FF8F8607B
:100E1000BB681946F86800F003F800F0BDF8F1E788
:100E200080B584B000AF7860396000F08FFB07F1C7
:100E30000803184600F04EF8F860BB68002B1DD17F
:100E40003B68002B0AD17A68FB689A4206D800F00A
:100E50008BFBF9687868FFF799FF11E00A4B186877
:100E60007A68FB68D31A194602F0C0FA00F07CFBDE
:100E70000346002B04D101F0C3FD01E000F074FB38
:100E800000BF1037BD4680BD9C08002080B485B0EF
:100E900000AF78600E4B1B681B68002B0CBF012352
:100EA0000023DBB21A467B681A607B681B68002B44
:100EB00005D1074B1B68DB681B68FB6001E0002362
:100EC000FB60FB6818461437BD465DF8047B70472D
:100ED0009408002080B584B000AF786000F0CAFBB1
:100EE000F8600B4B1B68FA689A4205D200F0CAF80A
:100EF0007B6801221A6002E07B6800221A60044AC3
:100F0000FB681360FB6818461037BD4680BD00BF04
:100F1000A008002080B586B000AFF860B9607A60A4
:100F20003B6000237B61FB68BA685A60FB68FA6823
:100F30001A61BA687B689A4212D87A683B68D21AFA
:100F4000FB689B699A4202D301237B611BE0104B33
:100F50001A68FB6804331946104601F0B3F912E031
:100F60007A683B689A4206D2BA683B689A4202D3D2
:100F700001237B6107E0074B1A68FB6804331946BD
:100F8000104601F09FF97B6918461837BD4680BDB1
:100F9000980800209408002080B58AB002AF60E075
:100FA000BB68B3F1FF3F5CD03B69FB61FB695B69E8
:100FB000002B04D0FB690433184601F0BDF93B1D3A
:100FC0001846FFF787FFB861BB68032B48D801A21A
:100FD00052F823F0E50F00086310000831100008F4
:100FE00059100008FA68FB699B69D118FB68BA6957
:100FF000F869FFF78FFF0346012B32D1FB695B6A6B
:10100000F8699847FB69DB69012B2AD1FA68FB690B
:101010009B691A440023009300230021F869FFF71D
:1010200075FE78617B69002B1BD101F027FDFEE77F
:10103000FA68FB699A61FB699B69002B02D101F098
:101040001DFDFEE7FB699A69BB69D118BB69BA69E6
:10105000F869FFF75FFF04E0F86906F0B3F900E014
:1010600000BF074B186807F108010023002201F0B8
:10107000B1FF0346002B93D100BF2037BD4680BD92
:101080009C08002080B588B002AF3DE0284B1B686B
:10109000DB681B687B61264B1B68DB68DB683B6198
:1010A0003B690433184601F047F93B695B6A3869CC
:1010B00098473B69DB69012B26D13B699A697B69BB
:1010C0001344FB60FA687B699A420ED93B69FA685F
:1010D0005A603B693A691A61154B1A683B690433D7
:1010E0001946104601F0EEF80EE0002300930023AD
:1010F0007A6900213869FFF709FEB860BB68002BE8
:1011000002D101F0BBFCFEE7094B1B681B68002BFA
:10111000BCD1074B1B687B60064B1B68044A1360FD
:10112000044A7B68136000BF1837BD4680BD00BF0E
:10113000940800209808002080B500AF01F072FCF0
:10114000164B1B68002B24D1154801F069F815488F
:1011500001F066F8144B124A1A60144B114A1A60D7
:1011600000220C210A2001F085FD02460B4B1A607B
:101170000A4B1B68002B02D101F080FCFEE7074BF5
:101180001B68002B05D0054B1B680949184602F067
:1011900005F901F059FC00BF80BD00BF9C0800208C
:1011A0006C08002080080020940800209808002087
:1011B0006883000880B586B000AF01210820FFF7E2
:1011C000D9FC01214FF40030FFF7F4FC20233B61F0
:1011D00002233B750023BB7502237B750023FB753F
:1011E00007F110031946114800F00AFF07220521F4
:1011F0000E4800F0CBFF4FF496433B600023FB808A
:101200000023BB8108237B8100233B810023BB801B
:101210003B4619460648FFF721F801210448FFF72D
:10122000D7F8002318461837BD4680BD000C024091
:101230000044004080B584B000AF7860396000237E
:10124000FB6013E000BF40210D48FFF7F3F80346B1
:10125000002BF8D0FB687A6813441B789BB21946C0
:101260000748FFF7D5F8FB680133FB60FA683B6875
:101270009A42E7DB3B6818461037BD4680BD00BF89
:101280000044004080B584B000AFFF233B71AA2327
:101290007B71CD23BB71ED23FB713B1D04211846EF
:1012A000FFF7C8FF042318461037BD4680BD00BFB6
:1012B00080B58AB002AFF860B9603B601346FB802E
:1012C000FB68002B02D101F0D9FBFEE7BB6A042BBF
:1012D00002D901F0D3FBFEE7FB88396B184600F01A
:1012E00021FDB861BB69002B72D0BB691A6BFB880A
:1012F00003F18043013B9B0013447B617B6923F036
:1013000007037B617B6903F00703002B02D001F028
:10131000B5FBFEE7FB8800937B6BBA6AB968B869D6
:1013200000F004FC3A68F968786901F09DFA024619
:10133000BB691A60FB6A002B02D0FB6ABA691A60AB
:1013400001F070FB2E4B1B6801332D4A13602D4BAF
:101350001B68002B09D12B4ABB691360284B1B6803
:10136000012B0FD100F02CFC0CE0274B1B68002B4D
:1013700008D1244B1B68DA6ABB6A9A4202D8214A18
:10138000BB691360214B1B680133204A13601F4B5C
:101390001A68BB691A64BB69DA6A1D4B1B689A42FA
:1013A00003D9BB69DB6A1A4A1360BB69DA6A134660
:1013B0009B0013449B00174A1A44BB690433194627
:1013C000104600F05BFF0123FB6101F03DFB02E0F2
:1013D0004FF0FF33FB61FB69012B0BD10A4B1B68FC
:1013E000002B07D0074B1B68DA6ABB6A9A4201D20E
:1013F00001F006FBFB6918462037BD4680BD00BFE3
:101400007C090020A4080020880900209C090020F5
:1014100084090020A808002080B586B000AF78605D
:10142000396000237B617B68002B02D101F026FB31
:10143000FEE73B68002B02D101F020FBFEE7244BC6
:101440001B68002B02D001F019FBFEE700F07EF8CC
:10145000204B1B683B617B681A683B681344FB6048
:101460007B681A683B699A420BD97B681A68FB68EB
:101470009A4211D9FA683B699A420DD901237B61DE
:101480000AE07B681A68FB689A4203D8FA683B69ED
:101490009A4201D901237B617B68FA681A607B69F3
:1014A000002B08D00C4B1B680433184600F044FF97
:1014B000F86800F001FC00F057F8B860BB68002B3A
:1014C00001D101F09DFA00BF1837BD4680BD00BFB5
:1014D0008C09002080090020A408002080B586B077
:1014E00004AF0023039300230293002301930023FE
:1014F00000930023822211491148FFF7D9FE78603A
:101500007B68012B02D1FFF7D5FB78607B68012B4C
:101510000AD101F0B3FA0B4B01221A600A4B0022E8
:101520001A6001F005FA05E07B68002B02D101F09A
:10153000A5FAFEE700BF0837BD4680BD70830008EE
:101540000D1B0008880900208009002080B400AF2E
:10155000044B1B680133034A136000BFBD465DF8AE
:10156000047B70478C09002080B582B000AF002357
:101570007B60384B1B68002B02D101F07FFAFEE73D
:1015800001F050FA334B1B68013B324A1360314B78
:101590001B68002B56D1304B1B68002B52D02FE01C
:1015A0002E4BDB68DB683B603B681833184600F065
:1015B000C3FE3B680433184600F0BEFE3B68DA6A9F
:1015C000274B1B689A4203D93B68DB6A244A1360A5
:1015D0003B68DA6A13469B0013449B00214A1A4475
:1015E0003B6804331946104600F048FE3B68DA6A4F
:1015F0001D4B1B68DB6A9A4202D31C4B01221A6006
:10160000164B1B68002BCBD1194B1B68002B11D03C
:101610000CE000F041F80346002B02D0134B0122EE
:101620001A60134B1B68013B114A1360104B1B6877
:10163000002BEED10D4B1B68012B03D101237B60E6
:1016400001F0DEF901F000FA7B6818460837BD4664
:1016500080BD00BF8C0900207C0900203C090020CF
:1016600084090020A8080020A40800209409002074
:101670009009002080B582B000AF01F0D3F9054B8E
:101680001B687B6001F0E0F97B6818460837BD46AF
:1016900080BD00BF8009002080B586B000AF002368
:1016A0007B614E4B1B68002B40F087804C4B1B68C6
:1016B00001334B4A13604A4B1B683B613B69002B6B
:1016C00018D1484B1B681B68002B02D001F0D6F9DB
:1016D000FEE7444B1B68FB60434B1B68414A1360A9
:1016E000414AFB681360414B1B6801333F4A13605A
:1016F00000F05AFB3E4B1B683A699A424ED3394B75
:101700001B681B68002B01D1012300E00023002B84
:1017100004D0374B4FF0FF321A603FE0314B1B686B
:10172000DB68DB68BB60BB685B687B603A697B68D1
:101730009A4203D22E4A7B6813602FE0BB680433C1
:10174000184600F0F9FDBB689B6A002B04D0BB680B
:101750001833184600F0F0FDBB68DA6A254B1B68A9
:101760009A4203D9BB68DB6A224A1360BB68DA6A13
:1017700013469B0013449B001F4A1A44BB68043362
:101780001946104600F07AFDBB68DA6A1B4B1B68ED
:10179000DB6A9A42B3D301237B61B0E7174B1B6826
:1017A000DA6A154913469B0013449B000B441B68DF
:1017B000012B07D901237B6104E0114B1B68013326
:1017C0000F4A13600F4B1B68002B01D001237B6174
:1017D0007B6918461837BD4680BD00BF8C090020C4
:1017E00080090020340900203809002098090020D1
:1017F0001000002084090020A8080020A408002070
:10180000900900209409002080B582B000AF224BDF
:101810001B68002B03D0214B01221A6038E01F4BBC
:1018200000221A600BE01E4B1B68002B02D101F056
:1018300025F9FEE71A4B1B68013B194A1360184B48
:101840001A68184913469B0013449B000B441B68FD
:10185000002BE8D0124B1A6813469B0013449B00E0
:10186000104A13447B607B685B685A687B685A60E7
:101870007B685A687B6808339A4204D17B685B684E
:101880005A687B685A607B685B68DB68064A13604D
:1018900000BF0837BD4680BD8C0900209409002098
:1018A00084090020A8080020A408002080B584B086
:1018B00000AF786039607B68002B02D101F0DEF860
:1018C000FEE7124B1B6818331946786800F0FAFCE3
:1018D0000E4B1B680433184600F02EFD3B68B3F135
:1018E000FF3F07D1094B1B6804331946084800F035
:1018F000C5FC07E0074B1A683B681344FB60F868B7
:1019000000F0DAF900BF1037BD4680BDA408002002
:10191000680900208009002080B584B000AF78609D
:1019200039607B68002B02D101F0A8F8FEE70C4B70
:101930001B6818331946786800F0A0FC084B1B6838
:101940000433184600F0F8FC064B1A683B68134451
:10195000FB60F86800F0B0F900BF1037BD4680BDED
:10196000A40800208009002080B584B000AF786012
:101970007B68DB68DB68BB60BB68002B02D101F0D1
:101980007DF8FEE7BB681833184600F0D5FC1E4B07
:101990001B68002B1DD1BB680433184600F0CCFC3B
:1019A000BB68DA6A194B1B689A4203D9BB68DB6AC9
:1019B000164A1360BB68DA6A13469B0013449B0007
:1019C000134A1A44BB6804331946104600F056FC0B
:1019D00005E0BB68183319460E4800F04FFCBB68A1
:1019E000DA6A0D4B1B68DB6A9A4205D90123FB605A
:1019F0000A4B01221A6001E00023FB60FB681846D5
:101A00001037BD4680BD00BF8C090020840900202E
:101A1000A80800203C090020A40800209409002008
:101A200080B582B000AF78607B68002B02D101F0F6
:101A300025F8FEE7054B1A687B681A60044B1A68A4
:101A40007B685A6000BF0837BD4680BD98090020FA
:101A50008009002080B584B000AF786039607B6871
:101A6000002B02D101F00AF8FEE73B68002B02D1FF
:101A700001F004F8FEE700F0D5FF1C4B1B68BB60CB
:101A80003B681B68B3F1FF3F02D10023FB6026E0F7
:101A90007B681A68164B1B689A4207D07B685A68A5
:101AA000BB689A4202D80123FB6018E07B685B6840
:101AB000BA68D21A3B681B689A420ED23B681A6811
:101AC0007B685968BB68CB1A1A443B681A6078680F
:101AD000FFF7A6FF0023FB6001E00123FB6000F09D
:101AE000B3FFFB6818461037BD4680BD8009002053
:101AF0009809002080B400AF034B01221A6000BF98
:101B0000BD465DF8047B70479409002080B582B023
:101B100000AF786000F094F8034B1B68012BF9D9F3
:101B200000F06EFFF6E700BFA808002080B586B081
:101B300000AFF860B9607A603B6000237B6112E01F
:101B4000BA687B6913441978FA687B6913443433A3
:101B50000A461A70BA687B6913441B78002B06D0BA
:101B60007B6901337B617B69092BE9D900E000BF08
:101B7000FB68002283F83D207B68042B01D90423F5
:101B80007B60FB687A68DA62FB687A689A64FB6853
:101B90000433184600F064FBFB681833184600F065
:101BA0005FFBFB68FA681A617B68C3F10502FB689A
:101BB0009A61FB68FA685A6200BF1837BD4680BD5B
:101BC00080B582B000AF00237B600CE07A681346DA
:101BD0009B0013449B00124A1344184600F020FB5C
:101BE0007B6801337B607B68042BEFD90D4800F0E4
:101BF00017FB0D4800F014FB0C4800F011FB0C48DB
:101C000000F00EFB0B4800F00BFB0B4B054A1A6073
:101C10000A4B054A1A6000BF0837BD4680BD00BFA9
:101C2000A80800200C090020200900203C09002001
:101C300050090020680900203409002038090020DC
:101C400080B582B000AF28E0FFF780FC174B1B681F
:101C5000002B0CBF01230023DBB27B60FFF784FC69
:101C60007B68002B19D100F0DDFE104BDB68DB68D0
:101C70003B603B680433184600F05EFB0C4B1B686E
:101C8000013B0B4A13600B4B1B68013B094A136075
:101C900000F0DAFE386800F077F8064B1B68002B7E
:101CA000D2D100BF0837BD4680BD00BF500900201B
:101CB0007C0900206409002080B582B000AF786004
:101CC000134B1B687A685A60124B1B687A689A42F9
:101CD00009D2114B1A680E4B1B6804331946104683
:101CE00000F0F0FA10E00D4B1A68094B1B68043342
:101CF0001946104600F0E6FA094B1B687A689A42CA
:101D000002D2074A7B68136000BF0837BD4680BD1A
:101D1000A408002080090020380900203409002090
:101D20001000002080B584B000AF03463960FB800E
:101D30004C2005F001FBF860FB68002B1ED03B68CF
:101D4000002B06D1FB889B00184605F0F5FA0346E8
:101D500000E03B68FA681363FB681B6B002B05D13E
:101D6000F86805F02FFB0023FB6007E0FB68186BA9
:101D7000FB889B001A46A52105F094FEFB681846D7
:101D80001037BD4680BD00BF80B582B000AF78601F
:101D90007B681B6B184605F015FB786805F012FB95
:101DA00000BF0837BD4680BD80B483B000AF0F4B85
:101DB0001B681B68002B01D1012300E00023002BCE
:101DC00004D00B4B4FF0FF321A6008E0074B1B6842
:101DD000DB68DB687B607B685B68054A136000BF7B
:101DE0000C37BD465DF8047B704700BF3409002006
:101DF0001000002080B483B000AF054B1B687B60EF
:101E00007B6818460C37BD465DF8047B704700BF01
:101E1000A408002080B483B000AF0B4B1B68002BDC
:101E200002D101237B6008E0084B1B68002B02D124
:101E300002237B6001E000237B607B6818460C373F
:101E4000BD465DF8047B7047880900208C0900209E
:101E500080B584B000AF78607B68FB607B68002B46
:101E60004AD0FB68DA6A264B1B68DB6A9A4243D287
:101E7000FB689B69002B06DB214B1B68DB6AC3F107
:101E80000502FB689A61FB685969FB68DA6A1346C8
:101E90009B0013449B001B4A1344994201D1012328
:101EA00000E00023002B22D0FB680433184600F02A
:101EB00043FA134B1B68DA6AFB68DA62FB68DA6A7A
:101EC000114B1B689A4203D9FB68DB6A0E4A136008
:101ED000FB68DA6A13469B0013449B00094A1A44C4
:101EE000FB6804331946104600F0C8F904E0044BBF
:101EF0001B68DA6AFB68DA6200BF1037BD4680BD36
:101F0000A4080020A80800208409002080B584B01F
:101F100000AF78607B68FB607B68002B30D0FB688B
:101F2000DA6AFB689B6C9A422AD0FB680433184635
:101F300000F002FAFB689A6CFB68DA62FB689B6946
:101F4000002B05DBFB68DB6AC3F10502FB689A61C5
:101F5000FB68DA6A0C4B1B689A4203D9FB68DB6AA0
:101F6000094A1360FB68DA6A13469B0013449B001E
:101F7000064A1A44FB6804331946104600F07EF9FD
:101F800000BF1037BD4680BD84090020A80800208E
:101F900080B582B000AF7860786805F021FA03461A
:101FA00018460837BD4680BD80B582B000AF786066
:101FB000786805F01DFA00BF0837BD4680BD00BF38
:101FC00080B485B000AF78600B4B1B68002B02D14A
:101FD000094B0A4A1A60084B1B68FB60064B1A68DB
:101FE0007B681344044A1360FB6818461437BD46E7
:101FF0005DF8047B704700BFA0090020B03E0120BF
:1020000080B487B000AF7860396000237B61002323
:102010003B610023FB6000237B6176E001227B694A
:1020200002FA03F33B613B681A683B691340FB60AB
:10203000FA683B699A4265D17B681A687B695B00E4
:10204000032101FA03F3DB431A407B681A607B68C3
:102050001A683B681B7919467B695B0001FA03F338
:102060001A437B681A603B681B79012B03D03B68DD
:102070001B79022B2ED17B689A687B695B00032158
:1020800001FA03F3DB431A407B689A607B689A6825
:102090003B685B7919467B695B0001FA03F31A43DD
:1020A0007B689A607B685A687B699BB219460123FA
:1020B0008B40DB431A407B685A607B685B683A68F8
:1020C000927911467A6992B201FA02F292B21A43F7
:1020D0007B685A607B68DA687B699BB25B0003218E
:1020E00001FA03F3DB431A407B68DA607B68DA6845
:1020F0003B68DB7919467B695B0001FA03F31A43FD
:102100007B68DA607B6901337B617B690F2B85D942
:1021100000BF1C37BD465DF8047B704780B483B0B8
:1021200000AF78600B467B807B687A881A8300BF9B
:102130000C37BD465DF8047B704700BF80B483B0A8
:1021400000AF78600B467B807B687A885A8300BF3B
:102150000C37BD465DF8047B704700BF80B483B088
:1021600000AF78600B467B8013467B707B78002B3A
:1021700003D07B687A881A8302E07B687A885A8366
:1021800000BF0C37BD465DF8047B704780B485B056
:1021900000AF78600B467B8013467B700023FB60AA
:1021A0000023BB607A787B8803F007039B0002FA68
:1021B00003F3FB607B88DB089BB218467B88DB0857
:1021C0009BB21A467B68083253F822207B8803F0C2
:1021D00007039B000F2101FA03F3DB4302EA03012B
:1021E0007B6800F1080243F822107B88DB089BB271
:1021F0001A467B68083253F82220FB681343BB6001
:102200007B88DB089BB21A467B680832B96843F8C2
:10221000221000BF1437BD465DF8047B704700BF35
:1022200080B483B000AF78607B6803F108027B68FC
:102230005A607B684FF0FF329A607B6803F10802B6
:102240007B68DA607B6803F108027B681A617B684F
:1022500000221A6000BF0C37BD465DF8047B704752
:1022600080B483B000AF78607B6800221A6100BF41
:102270000C37BD465DF8047B704700BF80B485B065
:1022800000AF786039607B685B68FB603B68FA6828
:102290005A60FB689A683B689A60FB689B683A687A
:1022A0005A60FB683A689A603B687A681A617B6892
:1022B0001B685A1C7B681A6000BF1437BD465DF866
:1022C000047B704780B485B000AF786039603B68AC
:1022D0001B68BB60BB68B3F1FF3F03D17B681B6920
:1022E000FB600CE07B680833FB6002E0FB685B6826
:1022F000FB60FB685B681A68BB689A42F6D9FB68AA
:102300005A683B685A603B685B683A689A603B6809
:10231000FA689A60FB683A685A603B687A681A61A2
:102320007B681B685A1C7B681A6000BF1437BD4667
:102330005DF8047B704700BF80B485B000AF786063
:102340007B681B69FB607B685B687A6892689A604F
:102350007B689B687A6852685A60FB685A687B6839
:102360009A4203D17B689A68FB685A607B680022B6
:102370001A61FB681B685A1EFB681A60FB681B68C1
:1023800018461437BD465DF8047B704780B483B0AF
:1023900000AF78600B46FB707B681B889BB203F034
:1023A0004003002B01D1002325E000BF7B681B897F
:1023B0009BB203F00303002BF8D07B681B899BB210
:1023C00003F08003002BF1D1FB789AB27B689A81ED
:1023D00000BF7B681B899BB203F00303002BF8D07E
:1023E0007B681B899BB203F08003002BF1D17B68D3
:1023F0009B899BB2DBB218460C37BD465DF8047B67
:10240000704700BF80B590B000AF01214FF40010BD
:10241000FEF7D0FB01214FF48040FEF7CBFB0121FA
:102420000220FEF7A7FB4FF48053BB63012387F81C
:102430003C30002387F83E30022387F83D300023EC
:1024400087F83F3007F1380319464748FFF7D8FDB2
:102450004FF440733B63022387F83430012387F83D
:102460003630022387F83530012387F8373007F1FB
:10247000300319463C48FFF7C3FD042208213A48BF
:10248000FFF784FE042209213748FFF77FFE4FF44F
:1024900080637B854FF48043BB8542F210733B62BF
:1024A0004BF6FF73FB840023BB8400233B8507F1BD
:1024B000200319462D4804F0ABFC01212B4804F001
:1024C00069FD05220D212848FFF760FE05220E2137
:1024D0002548FFF75BFE05220F212348FFF756FE34
:1024E00002233B7202237B720023BB720223FB7226
:1024F0004FF400537B603B1D19461B48FFF780FDDE
:102500004FF480437B603B1D19461748FFF778FD69
:102510004FF400437B603B1D19461348FFF770FDE5
:10252000134803F073FC0023BB8100233B8200238C
:102530007B820023BB824FF40073FB8220233B830A
:1025400000237B834FF48273FB8107F10C03194650
:10255000074803F095FC0121054803F0D5FC00BFB6
:102560004037BD4680BD00BF00040240005400401B
:102570000038004080B584B000AF03460A46FB71C6
:102580001346BB71FB79184600F096F80346FB73BF
:10259000FA7BBB791340FB73FB7B18461037BD46B3
:1025A00080BD00BF80B500AF0121042000F06EF8AF
:1025B00000BF80BD80B500AF0221042000F066F8A6
:1025C00000BF80BD80B500AF0121042000F05EF89F
:1025D00000BF80BD80B500AF3C210248FFF7D6FEAA
:1025E00000BF80BD0038004080B500AF00224FF42E
:1025F00080510248FFF7B2FD00BF80BD00040240D9
:1026000080B500AF01224FF480510248FFF7A6FDCC
:1026100000BF80BD0004024080B582B000AF78608A
:102620003960FFF7E1FF7B68DBB219460748FFF727
:10263000ADFE3B68DBB219460448FFF7A7FEFFF783
:10264000DFFF012318460837BD4680BD0038004033
:1026500080B584B000AF78600023FB73FFF7C4FF40
:102660007B68DBB219460848FFF790FE0021064858
:10267000FFF78CFE0346FB73FFF7C2FFFB7B184698
:102680001037BD4680BD00BF0038004080B582B025
:1026900000AF03460A46FB711346BB71FB7963F03A
:1026A0007F03DBB21A46BB7919461046FFF7B4FF29
:1026B00000BF0837BD4680BD80B584B000AF03467B
:1026C000FB71FB7903F07F031846FFF7C1FF034658
:1026D000FB73FB7B18461037BD4680BD80B582B0CA
:1026E00000AF7860396000BF4FF40031214804F03A
:1026F0000FFD0346002BF7D101211E4804F06AFCB0
:1027000000BF1D491B4804F0D3FC0346002BF8D042
:1027100000226021174804F09DFC00BF17491548AE
:1027200004F0C6FC0346002BF8D07B68DBB21946E8
:10273000104804F0ADFC00BF11490E4804F0B8FC8D
:102740000346002BF8D03B68DBB21946094804F079
:102750009FFC00BF0A49074804F0AAFC0346002B6F
:10276000F8D00121034804F055FC0123184608372E
:10277000BD4680BD005400400100030082000700F8
:102780008400070080B586B000AF78600023FB604E
:102790000023FB820023BB8200233B6116E03B69E0
:1027A0009B007A6813441B88FB823B699B007A6814
:1027B00013445B88BB82FB8ABA8A11461846FFF72E
:1027C0008DFF0346FB603B6901333B61FB8AFF2BB6
:1027D00014BF01230023DAB2BB8AFF2B14BF0123ED
:1027E0000023DBB21343DBB2002BD8D10123184600
:1027F0001837BD4680BD00BF80B584B000AF78609B
:102800000023FB730121FF20FFF768FF80211220C6
:10281000FFF764FF7B68012B14D10E48FFF7B2FF6E
:102820000D48FFF7AFFF0D48FFF7ACFF0121FF2078
:10283000FFF754FF00211520FFF750FF0848FFF76E
:10284000A1FF02E00748FFF79DFF00BF1037BD461C
:1028500080BD00BF808600087C890008A48900082C
:10286000088B00087883000880B485B000AFF8605A
:10287000B9607A60FB68043BFB60FB684FF08072D4
:102880001A60FB68043BFB60BA68FB681A60FB686F
:10289000043BFB600C4AFB681A60FB68143BFB605E
:1028A0007A68FB681A60FB68043BFB60FB686FF0AA
:1028B00002021A60FB68203BFB60FB681846143775
:1028C000BD465DF8047B7047CD28000880B500AF99
:1028D000054B1B68B3F1FF3F02D000F0CFF8FEE7D5
:1028E00000F0CCF8FEE700BF14000020064B19688A
:1028F0000868B0E8F04F80F30988BFF36F8F4FF09E
:10290000000080F311887047A408002000BF00BFBA
:1029100006480068006880F3088862B6BFF34F8FEE
:10292000BFF36F8F00DF00BF00BF000008ED00E0C5
:1029300080B584B000AF2C4BFB60FB681B78DBB22A
:10294000BB60FB68FF221A70FB681B78DBB2FB716F
:10295000FB79DBB203F05003DAB2244B1A70244B3C
:1029600007221A6009E0224B1B68013B204A1360D2
:10297000FB79DBB25B00DBB2FB71FB79DBB25BB2F4
:10298000002BF0DB1A4B1B681B02194A1360184B13
:102990001B6803F4E063164A1360BB68DAB2FB6895
:1029A0001A70144A134B1B6843F470031360114AE6
:1029B000104B1B6843F07043136000F0AFF80E4BF0
:1029C00000221A6000F0C6F80C4A0C4B1B6843F05A
:1029D00040431360FFF79CFFFFF778FF0023184682
:1029E0001037BD4680BD00BF00E400E0A409002010
:1029F000A809002020ED00E01400002034EF00E0E2
:102A000080B400AF064B4FF080521A60BFF34F8F77
:102A1000BFF36F8F00BFBD465DF8047B704700BFFA
:102A200004ED00E080B500AF00F028F8054B1B680E
:102A30000133044A1360BFF34F8FBFF36F8F00BFA2
:102A400080BD00BF1400002080B500AF0A4B1B689A
:102A5000002B02D100F012F8FEE7074B1B68013B88
:102A6000054A1360044B1B68002B02D1002000F0C4
:102A70000FF800BF80BD00BF14000020EFF31180ED
:102A80004FF0500181F3118870470023184600BFB2
:102A900080F31188704700BFEFF30980BFF36F8F99
:102AA000124B1A681EF0100F08BF20ED108A20E9A3
:102AB000F04F10604DF8043D4FF0500080F3118846
:102AC000FEF7A2FE4FF0000080F3118808BC1968E1
:102AD0000868B0E8F04F1EF0100F08BFB0EC108A85
:102AE00080F30988BFF36F8F704700BFA4080020F0
:102AF00000BF00BF80B500AFFFF7C0FFFEF7CCFD01
:102B00000346002B03D0044B4FF080521A60002084
:102B1000FFF7BEFF00BF80BD04ED00E080B400AF52
:102B2000084A094B1B680949A1FB03139B09013B98
:102B30001360074B07221A6000BFBD465DF8047B97
:102B4000704700BF14E000E018000020D34D621071
:102B500010E000E0DFF80C00016841F47001016052
:102B6000704700BF88ED00E080B582B000AFEFF3A2
:102B700005837B607B680F2B0CD90E4A7B6813445E
:102B80001B78FB700C4B1B78FA789A4202D2FFF745
:102B900075FFFEE7094B1B6803F4E062084B1B68F6
:102BA0009A4202D9FFF76AFFFEE700BF0837BD4629
:102BB00080BD00BFF0E300E0A40900200CED00E0C0
:102BC000A809002080B584B000AF786039607B68C8
:102BD000FB60FB68002B02D1FFF750FFFEE7FFF719
:102BE00021FFFB681A68FB68DB6BF968096C01FB65
:102BF00003F31A44FB685A60FB6800229A63FB687F
:102C00001A68FB689A60FB681A68FB68DB6B013B1B
:102C1000F968096C01FB03F31A44FB68DA60FB688E
:102C20004FF0FF325A64FB684FF0FF329A643B6802
:102C3000002B0ED1FB681B69002B14D0FB681033EE
:102C40001846FEF791FE0346012B0CD1FFF7D8FE84
:102C500009E0FB6810331846FFF7E2FAFB682433FB
:102C60001846FFF7DDFAFFF7EFFE0123184610378D
:102C7000BD4680BD80B588B000AFF860B96013462E
:102C8000FB710023FB61FB68002B2AD0542004F069
:102C900053FBB861BB69002B23D0FB68BA6802FB09
:102CA00003F301337B61786904F046FB0246BB699C
:102CB0001A60BB691B68002B10D0BB69FA68DA6325
:102CC000BB69BA681A640121B869FFF77BFFBB6969
:102CD000FA7983F85020BB69FB6102E0B86904F01F
:102CE00071FBFB69002B02D1FFF7C8FEFEE7FB6911
:102CF00018462037BD4680BD80B584B000AF03467E
:102D0000FB71542004F018FBF860FB68002B30D0F6
:102D1000FB6800225A60FB6800221A60FB680022F0
:102D20009A60FB680022DA60FB6800229A63FB6805
:102D30000122DA63FB6800221A64FB684FF0FF325D
:102D40005A64FB684FF0FF329A64FB68FA7983F8A3
:102D50005020FB6810331846FFF762FAFB682433F3
:102D60001846FFF75DFA002300220021F86800F002
:102D70000BF8FB68002B02D1FFF780FEFEE7FB6833
:102D800018461037BD4680BD80B588B000AFF860EA
:102D9000B9607A603B600023FB61FB68BB61BB6983
:102DA000002B02D1FFF76AFEFEE7BB68002B03D1C0
:102DB000BB691B6C002B01D1012300E00023002B19
:102DC00002D1FFF75BFEFEE73B68022B03D1BB6934
:102DD000DB6B012B01D1012300E00023002B02D18A
:102DE000FFF74CFEFEE7FFF715F80346002B02D174
:102DF0007B68002B01D1012300E00023002B02D1CE
:102E0000FFF73CFEFEE7FFF70DFEBB699A6BBB695F
:102E1000DB6B9A4202D33B68022B16D13A68B96841
:102E2000B86900F0B3F9BB695B6A002B09D0BB69D4
:102E300024331846FEF798FD0346012B01D1FFF716
:102E4000DFFDFFF701FE012356E07B68002B03D175
:102E5000FFF7FAFD00234FE0FB69002B06D107F1D5
:102E600010031846FEF7DCFD0123FB61FFF7ECFDC4
:102E7000FEF76CFBFFF7D6FDBB695B6CB3F1FF3F60
:102E800002D1BB6900225A64BB699B6CB3F1FF3F5E
:102E900002D1BB6900229A64FFF7D6FD3A1D07F103
:102EA000100311461846FEF7D5FD0346002B1DD131
:102EB000B86900F05BFA0346002B11D0BB691033F0
:102EC0007A6811461846FEF7F1FCB86900F0ECF993
:102ED000FEF74AFB0346002B95D1FFF791FD92E7E1
:102EE000B86900F0E1F9FEF73FFB8CE7B86900F044
:102EF000DBF9FEF739FB002318462037BD4680BDBD
:102F000080B588B000AFF860B9607A603B60FB685C
:102F1000BB61BB69002B02D1FFF7B0FDFEE7BB68C8
:102F2000002B03D1BB691B6C002B01D1012300E0F6
:102F30000023002B02D1FFF7A1FDFEE73B68022B27
:102F400003D1BB69DB6B012B01D1012300E000231E
:102F5000002B02D1FFF792FDFEE7FFF705FEFFF71A
:102F60008DFD7861BB699A6BBB69DB6B9A4202D3BA
:102F70003B68022B24D13A68B968B86900F006F9B9
:102F8000BB699B6CB3F1FF3F12D1BB695B6A002B3D
:102F900013D0BB6924331846FEF7E6FC0346002B2A
:102FA0000BD07B68002B08D07B6801221A6004E0FC
:102FB000BB699B6C5A1CBB699A640123FB6101E0ED
:102FC0000023FB617869FFF763FDFB691846203732
:102FD000BD4680BD80B58AB000AFF860B9607A6048
:102FE0003B6000237B62FB683B623B6A002B02D1A3
:102FF000FFF744FDFEE7BB68002B03D13B6A1B6C67
:10300000002B01D1012300E00023002B02D1FFF7A8
:1030100035FDFEE7FEF7FEFE0346002B02D17B687E
:10302000002B01D1012300E00023002B02D1FFF788
:1030300025FDFEE7FFF7F6FC3B6A9B6B002B3BD0C0
:103040003B6ADB68FB61B968386A00F007F93B68E6
:10305000002B1CD13B6A9B6B5A1E3B6A9A633B6AEE
:103060001B68002B04D1FEF7C5FE02463B6A5A607E
:103070003B6A1B69002B1BD03B6A10331846FEF7D6
:1030800073FC0346012B13D1FFF7BAFC10E03B6A37
:10309000FA69DA603B6A5B6A002B09D03B6A243329
:1030A0001846FEF761FC0346002B01D0FFF7A8FC91
:1030B000FFF7CAFC012364E07B68002B03D1FFF714
:1030C000C3FC00235DE07B6A002B06D107F11403EB
:1030D0001846FEF7A5FC01237B62FFF7B5FCFEF75F
:1030E00035FAFFF79FFC3B6A5B6CB3F1FF3F02D1FF
:1030F0003B6A00225A643B6A9B6CB3F1FF3F02D1EA
:103100003B6A00229A64FFF79FFC3A1D07F1140303
:1031100011461846FEF79EFC0346002B2BD1386A59
:1031200000F00EF90346002B1FD03B6A1B68002BF2
:1031300008D1FFF777FC3B6A5B681846FEF788FE0C
:10314000FFF782FC3B6A24337A6811461846FEF783
:10315000ADFB386A00F0A8F8FEF706FA0346002B2C
:103160007FF468AFFFF74CFC64E7386A00F09CF826
:10317000FEF7FAF95EE7386A00F096F8FEF7F4F920
:10318000002318462837BD4680BD00BF80B584B0F7
:1031900000AFF860B9607A60FB681B6C002B0CD143
:1031A000FB681B68002B4FD1FB685B681846FEF775
:1031B000ADFEFB6800225A6046E07B68002B19D107
:1031C000FB689868FB681B6C1A46B96804F0D0FB72
:1031D000FB689A68FB681B6C1A44FB689A60FB6882
:1031E0009A68FB685B689A422ED3FB681A68FB6892
:1031F0009A6029E0FB68D868FB681B6C1A46B968BE
:1032000004F0B6FBFB68DA68FB681B6C5B421A448F
:10321000FB68DA60FB68DA68FB681B689A4207D2D1
:10322000FB685A68FB681B6C5B421A44FB68DA60F7
:103230007B68022B08D1FB689B6B002B04D0FB68DA
:103240009B6B5A1EFB689A63FB689B6B5A1CFB685E
:103250009A6300BF1037BD4680BD00BF80B582B005
:1032600000AF786039607B681B68002B18D07B68E2
:10327000DA687B681B6C1A447B68DA607B68DA6802
:103280007B685B689A4203D37B681A687B68DA6064
:103290007B68D9687B681B6C1A46386804F068FB49
:1032A00000BF0837BD4680BD80B582B000AF7860F2
:1032B000FFF7B8FB12E07B685B6A002B13D07B68DA
:1032C00024331846FEF750FB0346002B01D0FEF7CF
:1032D00011FC7B689B6C5A1E7B689A647B689B6CB4
:1032E000002BE8DC00E000BF7B684FF0FF329A64FF
:1032F000FFF7AAFBFFF796FB12E07B681B69002B28
:1033000013D07B6810331846FEF72EFB0346002BC4
:1033100001D0FEF7EFFB7B685B6C5A1E7B685A643A
:103320007B685B6C002BE8DC00E000BF7B684FF043
:10333000FF325A64FFF788FB00BF0837BD4680BDE7
:1033400080B584B000AF7860FFF76CFB7B689B6B47
:10335000002B02D10123FB6001E00023FB60FFF79B
:1033600073FBFB6818461037BD4680BD80B584B03E
:1033700000AF7860FFF756FB7B689A6B7B68DB6B6E
:103380009A4202D10123FB6001E00023FB60FFF7BA
:103390005BFBFB6818461037BD4680BD80B485B026
:1033A00000AF786039600023FB6014E00E4AFB68D0
:1033B00052F83330002B0BD10B49FB683A6841F8C7
:1033C0003320094AFB68DB0013447A685A6005E041
:1033D000FB680133FB60FB68072BE7D900BF14379C
:1033E000BD465DF8047B70476836012080B584B027
:1033F00000AF786039607B68FB60FFF713FBFB6808
:103400005B6CB3F1FF3F02D1FB6800225A64FB689A
:103410009B6CB3F1FF3F02D1FB6800229A64FFF777
:1034200013FBFB689B6B002B05D1FB6824333968C9
:103430001846FEF771FAF868FFF736FF00BF10373D
:10344000BD4680BD80B487B000AFF860B9607A60D7
:10345000FB687B61BB683B6107E07B695A1C7A6152
:103460003A69511C396112781A707B685A1E7A6069
:10347000002BF2D100BF1C37BD465DF8047B7047BE
:1034800080B487B000AFF860B9607A60FB687B6198
:1034900005E07B695A1C7A61BA68D2B21A707B68FF
:1034A0005A1E7A60002BF4D100BF1C37BD465DF870
:1034B000047B704780B489B000AFF860B9607A606F
:1034C000FB68FB61BB68BB6100237B6100BF7B685D
:1034D0005A1E7A60002B0DD0FB695A1CFA611B78CA
:1034E0001946BB695A1CBA611B78CB1A7B617B6990
:1034F000002BECD07B6918462437BD465DF8047B71
:10350000704700BF80B483B000AF7860396002E0DC
:103510007B6801337B607B681B78002B05D07B6860
:103520001B781A463B689A42F2D17B681B78184692
:103530000C37BD465DF8047B704700BF80B586B090
:1035400000AF78600023FB737B681B79002B34D0BD
:103550007B681B6B7B617B6858787B6803F1340167
:1035600001237A69FCF7D8FF0346002B02D0012320
:10357000FB7322E07B6800221A717B685B6A7A69C0
:10358000D21A7B68DB699A4217D27B68DB783B6191
:1035900010E07B68DB697A6913447B617B6858784B
:1035A0007B6803F1340101237A69FCF7B5FF3B69BD
:1035B000013B3B613B69012BEBD8FB7B184618377D
:1035C000BD4680BD80B584B000AF7860396000230F
:1035D000FB737B681A6B3B689A421BD07868FFF7D5
:1035E000ADFF0346FB73FB7B002B13D17B68587840
:1035F0007B6803F1340101233A68FCF75FFF03465F
:10360000002B04D04FF0FF333B600123FB737B683A
:103610003A681A63FB7B18461037BD4680BD00BF71
:1036200080B584B000AF78607868FFF787FF034605
:10363000FB73FB7B002B40F090807B681B78032B97
:103640007FD17B685B79012B7BD17B6834334FF46E
:10365000007200211846FFF713FF7B68552283F89C
:1036600032227B68AA2283F833227B68522283F8B5
:1036700034207B68522283F835207B68612283F8EE
:1036800036207B68412283F837207B68722283F8DA
:1036900018227B68722283F819227B68412283F802
:1036A0001A227B68612283F81B227B681B69DAB2CD
:1036B0007B6883F81C227B681B699BB21B0A9BB248
:1036C000DAB27B6883F81D227B681B691B0CDAB2B7
:1036D0007B6883F81E227B681B691B0EDAB27B684D
:1036E00083F81F227B68DB68DAB27B6883F82022CC
:1036F0007B68DB689BB21B0A9BB2DAB27B6883F8FB
:1037000021227B68DB681B0CDAB27B6883F82222FB
:103710007B68DB681B0EDAB27B6883F823227B6848
:103720001B6A5A1C7B681A637B6858787B6803F1B4
:1037300034017B681A6B0123FCF7EEFE7B680022E4
:103740005A717B685B78002200211846FCF712FF53
:103750000346002B01D00123FB73FB7B1846103777
:10376000BD4680BD80B483B000AF786039603B68EF
:10377000023B3B607B689B699A1E3B689A4201D87A
:10378000002308E07B689B781A463B6803FB02F243
:103790007B68DB6A134418460C37BD465DF8047B32
:1037A000704700BF80B586B000AF786039603B6875
:1037B000012B04D97B689A693B689A4202D801239D
:1037C0007B61A3E04FF0FF337B617B681B78022BAA
:1037D00046D0032B66D0012B40F08E803B683B61C6
:1037E0003B695B083A6913443B617B685A6A3B69F1
:1037F0005B0A134419467868FFF7E4FE0346002B82
:103800007DD13B695A1C3A61C3F308037A681344BB
:1038100093F83430FB607B685A6A3B695B0A134457
:1038200019467868FFF7CEFE0346002B69D13B6945
:10383000C3F308037A68134493F834301B021A4622
:10384000FB681343FB603B6803F00103002B02D0CD
:10385000FB681B0902E0FB68C3F30B037B6155E0C7
:103860007B685A6A3B681B0A134419467868FFF75D
:10387000A9FE0346002B46D13B685B0003F4FF73AF
:1038800030337A6813440433BB60BB6801331B7860
:103890001B021AB2BB681B781BB213431BB29BB24C
:1038A0007B6133E07B685A6A3B68DB091344194645
:1038B0007868FFF787FE0346002B26D13B689B0004
:1038C00003F4FE7330337A6813440433BB60BB687F
:1038D00003331B781A06BB6802331B781B0413439F
:1038E000BA680132127812021343BA68127813438D
:1038F00023F070437B6109E001237B6106E000BF98
:1039000004E000BF02E000BF00E000BF7B69184692
:103910001837BD4680BD00BF80B588B000AFF860E5
:10392000B9607A60BB68012B04D9FB689A69BB68EF
:103930009A4202D80223FB77F2E0FB681B78022B45
:1039400074D0032B00F09980012B40F0DF80BB681E
:10395000BB61BB695B08BA691344BB61FB685A6A07
:10396000BB695B0A13441946F868FFF72BFE034650
:10397000FB77FB7F002B40F0CC80BB695A1CBA61FF
:10398000C3F308033033FA68134404337B61BB6824
:1039900003F00103002B0DD07B691B785BB203F0B1
:1039A0000F035AB27B68DBB21B015BB213435BB2FD
:1039B000DBB201E07B68DBB27A691370FB6801223D
:1039C0001A71FB685A6ABB695B0A13441946F868A6
:1039D000FFF7F8FD0346FB77FB7F002B40F09B8051
:1039E000BB69C3F308033033FA68134404337B61C3
:1039F000BB6803F00103002B03D07B681B09DBB21B
:103A00000EE07B691B785BB223F00F035AB27B6830
:103A10001B0A5BB203F00F035BB213435BB2DBB272
:103A20007A691370FB6801221A7179E0FB685A6A9F
:103A3000BB681B0A13441946F868FFF7C3FD034629
:103A4000FB77FB7F002B68D1BB685B0003F4FF733F
:103A50003033FA68134404337B617B68DAB27B69E4
:103A60001A707B6901337A6892B2120A92B2D2B2AA
:103A70001A70FB6801221A7152E0FB685A6ABB682F
:103A8000DB0913441946F868FFF79CFD0346FB77F2
:103A9000FB7F002B43D1BB689B0003F4FE733033E4
:103AA000FA68134404337B617B6903331B781A067D
:103AB0007B6902331B781B0413437A690132127845
:103AC000120213437A691278134303F070437A6841
:103AD00013437B607B68DAB27B691A707B690133C0
:103AE0007A6892B2120A92B2D2B21A707B69023329
:103AF0007A68120CD2B21A707B6903337A68120E9C
:103B0000D2B21A70FB6801221A7109E00223FB7716
:103B100006E000BF04E000BF02E000BF00E000BF1D
:103B2000FB7F18462037BD4680BD00BF80B584B0FE
:103B300000AF786039603B68012B04D97B689A69D3
:103B40003B689A4202D80223FB733DE00023FB73DB
:103B500031E039687868FFF725FEB860BB68002B54
:103B60002FD0BB68012B02D10223FB732CE0BB6872
:103B7000B3F1FF3F02D10123FB7325E00022396836
:103B80007868FFF7C9FE0346FB73FB7B002B1AD155
:103B90007B681B69B3F1FF3F0BD07B681B695A1C24
:103BA0007B681A617B685B7943F00103DAB27B685A
:103BB0005A71BB683B607B689A693B689A42C8D877
:103BC00002E000BF00E000BFFB7B18461037BD4697
:103BD00080BD00BF80B586B000AF786039603B68BB
:103BE000002B0DD17B68DB683B613B69002B04D067
:103BF0007B689A693B699A421BD801233B6118E0B4
:103C000039687868FFF7CEFDB860BB68012B01D832
:103C100001236EE0BB68B3F1FF3F01D1BB6868E0F0
:103C20007B689A69BB689A4201D9BB6861E03B68CE
:103C30003B613B697B617B6901337B617B689A698E
:103C40007B699A4207D802237B617A693B699A4271
:103C500001D900234DE079697868FFF7A3FDB860CA
:103C6000BB68002B0ED0BB68B3F1FF3F02D0BB682E
:103C7000012B01D1BB683CE07A693B699A42DAD1F9
:103C8000002336E000BF6FF0704279697868FFF773
:103C900043FE0346FB73FB7B002B09D13B68002BE3
:103CA00006D07A6939687868FFF736FE0346FB73F9
:103CB000FB7B002B14D17B687A69DA607B681B6917
:103CC000B3F1FF3F14D07B681B695A1E7B681A61F1
:103CD0007B685B7943F00103DAB27B685A7107E0D5
:103CE000FB7B012B02D14FF0FF3300E001237B610E
:103CF0007B6918461837BD4680BD00BF80B586B0C9
:103D000000AF786039603B689AB27B68DA807B6884
:103D10009B687B617B69012B05D07B681B689A6976
:103D20007B699A4201D8022363E07B69002B08D1AA
:103D30007B681B681B78032B03D17B681B689B6A1D
:103D40007B617B69002B0DD17B681B681B891A4640
:103D50003B689A4201D802234BE07B681B689B6A50
:103D60003B612CE07B681B689B781B01FB601BE0C0
:103D70007B681B6879691846FFF714FD78617B69D9
:103D8000B3F1FF3F01D1012333E07B69012B05D95A
:103D90007B681B689A697B699A4201D8022328E0F4
:103DA0003A68FB68D31A3B603A68FB689A42DFD2F4
:103DB0007B681B6879691846FFF7D4FC38617B681B
:103DC0007A69DA603B69002B01D1022311E03B687C
:103DD0001A093B691A447B681A617B681B6803F106
:103DE00034023B6803F00F035B011A447B685A619D
:103DF000002318461837BD4680BD00BF90B587B078
:103E000000AF786039607B68DB880133FB60FB685A
:103E10009BB2002B03D07B681B69002B01D10423CC
:103E2000BBE0FB6803F00F03002B40F0A6807B682B
:103E30001B695A1C7B681A617B68DB68002B09D1FF
:103E40007B681B681B891A46FB689A4200F29580C2
:103E50000423A2E0FB681B097A6812689278013A91
:103E60001340002B40F089807B681A687B68DB6810
:103E700019461046FFF796FC78617B69012B01D843
:103E800002238AE07B69B3F1FF3F01D1012384E083
:103E90007B681B689A697B699A4262D83B68002BF1
:103EA00001D1042379E07B681A687B68DB681946D6
:103EB0001046FFF78FFE78617B69002B01D1072345
:103EC0006BE07B69012B01D1022366E07B69B3F1D2
:103ED000FF3F01D1012360E07B681B681846FFF7B4
:103EE0002DFB0346002B01D0012356E07B681B68A5
:103EF00034334FF4007200211846FFF7C1FA7B6893
:103F00001C687B681B6879691846FFF72BFC034621
:103F1000236300233B6115E07B681B6801221A7153
:103F20007B681B681846FFF709FB0346002B01D08E
:103F3000012332E07B681B681A6B01321A633B690C
:103F400001333B617B681B689B781A463B699A4248
:103F5000E2D87B681B687A681268116B3A698A1A22
:103F60001A637B687A69DA607B681B68796918462E
:103F7000FFF7F8FB02467B681A61FB689AB27B6820
:103F8000DA807B681B6803F13402FB6803F00F03DF
:103F90005B011A447B685A61002318461C37BD46F2
:103FA00090BD00BF80B584B000AF7860396000215B
:103FB0007868FFF7A3FE0346FB73FB7B002B2DD134
:103FC0000023BB607B681A687B681B691946104632
:103FD000FFF7F8FA0346FB73FB7B002B1DD17B68D0
:103FE0005B691B78E52B04D07B685B691B78002B31
:103FF00007D1BB680133BB60BA683B689A4202D103
:104000000CE00023BB6001217868FFF7F7FE034650
:10401000FB73FB7B002BD5D000E000BFFB7B042BA8
:1040200001D10723FB73FB7B18461037BD4680BDCB
:1040300080B485B000AF786039603B681B331B7873
:104040001B021AB23B681A331B781BB213431BB214
:104050009BB2FB607B681B78032B0FD13B68153349
:104060001B781B021AB23B6814331B781BB2134334
:104070001BB29BB21B04FA681343FB60FB68184633
:104080001437BD465DF8047B704700BF80B483B031
:1040900000AF786039607B681A333A68D2B21A7020
:1040A0007B681B333A6892B2120A92B2D2B21A708B
:1040B0007B6814333A68120CD2B21A707B681533DD
:1040C0003A68120C92B2120A92B2D2B21A7000BFBF
:1040D0000C37BD465DF8047B704700BF80B586B0E5
:1040E00000AF786039603B681B7823F040035A1EAC
:1040F00013465B0013449B0013447B6100233B6128
:104100000123FB812B4A3B6913441B7801333A6836
:1041100013441B781B021AB226493B690B441B78D7
:1041200019463B680B441B781BB213431BB2BB817F
:10413000FB89002B19D0BB891846FCF761F80346B0
:10414000FB817B69FE2B0ED87B695A1C7A615B0070
:104150007A6813441B881846FCF752F803461A463F
:10416000FB89934208D000231FE0BB894FF6FF7202
:10417000934201D0002318E03B6901333B613B6966
:104180000C2BBFD93B681B7803F04003002B0BD0EE
:10419000FB89002B08D07B695B007A6813441B887D
:1041A000002B01D0002300E0012318461837BD463C
:1041B00080BD00BFF48F000880B489B000AFF86004
:1041C000B96011461A460B46FB711346BB71BB68BA
:1041D0000D33BA791A70BB680B330F221A70BB68A3
:1041E0000C3300221A70BB681A3300221A70BB68A5
:1041F0001B3300221A70FB795A1E13465B001344CE
:104200009B001344FB610023FB820023BB61FB8AFC
:104210004FF6FF72934207D0FB695A1CFA615B00AC
:10422000FA6813441B88FB821D4ABB6913441B7840
:104230001A46BB681344FA8AD2B21A70184ABB698C
:1042400013441B780133BA681344FA8A120A92B2F3
:10425000D2B21A70FB8A002B02D14FF6FF73FB8299
:10426000BB690133BB61BB690C2BD0D9FB8A4FF60C
:10427000FF72934206D0FB695B00FA6813441B8807
:10428000002B03D1FB7943F04003FB71BB68FA7943
:104290001A7000BF2437BD465DF8047B704700BF2D
:1042A000F48F000880B58CB000AFF860B9607A6018
:1042B0003B600B22B968F868FFF7C4F83B68052B30
:1042C0002BD93B68FB6122E07B689A1C7A601B88D3
:1042D0007B840023BB6217E0FB695A007B8C03F0F0
:1042E00001031344FB617B8C5B087B84FB6903F453
:1042F0008033002B05D0FB6983F4883383F02103DE
:10430000FB61BB6A0133BB62BB6A0F2BE4D97B68DC
:104310001B88002BD8D1FB693B600723BB623B683D
:10432000DBB203F00F03DBB2303387F82F3097F89E
:104330002F30392B04D997F82F30073387F82F30D7
:10434000BB6A5A1EBA6207F13002134497F82F2055
:1043500003F81C2C3B681B093B603B68002BDED13B
:1043600007F11402BB6A13447E221A7000237B6299
:1043700002E07B6A01337B627A6ABB6A9A4205D2A9
:10438000FA687B6A13441B78202BF2D17B6A5A1C93
:104390007A62FA681A44BB6A072B08D8BB6A591CB0
:1043A000B96207F130010B4413F81C3C00E02023F4
:1043B00013707B6A072BE9D900BF3037BD4680BD3B
:1043C00080B485B000AF78600023FB730B23BB6023
:1043D000FB7BDAB25208DB011343DAB27B68591C6B
:1043E00079601B781344FB73BB68013BBB60BB68FF
:1043F000002BEDD1FB7B18461437BD465DF8047BDE
:10440000704700BF80B586B000AF78600021786843
:10441000FFF774FC0346FB75FB7D002B01D0FB7D91
:10442000A0E0FF233B753B7D7B757B684FF6FF72F9
:104430001A847B681A687B681B6919461046FFF767
:10444000C1F80346FB75FB7D002B40F085807B683F
:104450005B693B613B691B78BB75BB7D002B02D15F
:104460000423FB757DE03B690B331B7803F03F03AE
:10447000FB73BB7DE52B07D0FB7B03F00803002B10
:1044800009D0FB7B0F2B06D0FF237B757B684FF693
:10449000FF721A8455E0FB7B0F2B2FD17B68DB6901
:1044A000002B4ED0BB7D03F04003002B0CD03B69AA
:1044B0005B7B3B75BB7D23F04003BB75BB7D7B7590
:1044C0007B68DA887B681A84BA7D7B7D9A4212D138
:1044D0003B690D331B783A7D9A420CD17B68DB69CE
:1044E00039691846FFF7FAFD0346002B03D07B7DA0
:1044F000013BDBB200E0FF237B7522E07B7D002BDC
:1045000007D13869FFF75CFF03461A463B7D9342AB
:1045100024D07B689B690B331B7803F00103002BCD
:1045200009D17B689B690B2219463869FEF7C2FFE7
:104530000346002B14D0FF237B757B684FF6FF7278
:104540001A8400217868FFF759FC0346FB75FB7D50
:10455000002B3FF46EAF04E000BF02E000BF00E0BC
:1045600000BFFB7D18461837BD4680BD80B58CB0B6
:1045700000AF78607B689B693B627B68DB69FB61AD
:1045800007F10C030C22396A1846FEF75BFFFB7D2E
:1045900003F02003002B01D00623E0E0FB7D03F0B5
:1045A0000103002B35D03B6A0B3300221A707B6865
:1045B0000022DA610123BB6213E007F10C01BB6A40
:1045C000FA69386AFFF76EFE7868FFF71BFF03464B
:1045D00087F82F3097F82F30002B06D1BB6A0133B4
:1045E000BB62BB6A632BE8D900E000BFBB6A642BE7
:1045F00001D10723B3E097F82F30042B02D097F8AE
:104600002F30ACE03B6A0B33FA7D1A707B68FA6995
:10461000DA61FB7D03F00203002B14D00023BB62A0
:1046200002E0BB6A0133BB62BB6A5B00FA691344F8
:104630001B88002BF5D1BB6A19334B4AA2FB03231D
:104640009B087B6201E001237B62796A7868FFF74F
:10465000A9FC034687F82F3097F82F30002B4BD159
:104660007B6A013B7B627B6A002B45D07B68DB88E1
:104670001A467B6AD31A19467868FFF73FFB034650
:1046800087F82F3097F82F30002B35D17B689B6946
:104690001846FFF795FE0346FB767B681A687B6831
:1046A0001B6919461046FEF78DFF034687F82F3029
:1046B00097F82F30002B1ED17B68D8697B68596929
:1046C0007B6ADAB2FB7EFFF777FD7B681B6801220D
:1046D0001A7100217868FFF791FB034687F82F30A5
:1046E00097F82F30002B07D17B6A013B7B627B6AF6
:1046F000002BD2D100E000BF97F82F30002B2CD137
:104700007B681A687B681B6919461046FEF75AFFDA
:10471000034687F82F3097F82F30002B1DD17B6888
:104720005B69202200211846FEF7AAFE7B685869C3
:104730007B689B690B221946FEF784FE7B685B69E8
:104740000C337A6892690B32127802F01802D2B2F6
:104750001A707B681B6801221A7197F82F3018466F
:104760003037BD4680BD00BF4FECC44E80B58AB027
:1047700000AF786039603B681B683B6102E03B69D1
:1047800001333B613B691B782F2BF8D03B691B78C9
:104790005C2BF4D07B68DB69FB6000237B617B6969
:1047A000BB61BB695A1CBA613A6913441B78BB846C
:1047B000BB8C1F2B2FD9BB8C2F2B2CD0BB8C5C2BF5
:1047C00029D07B69FE2B01D90623C7E1BB8CDBB264
:1047D000BB84BB8C01211846FBF7D6FC0346BB8487
:1047E000BB8C002B01D10623B8E1BB8C7F2B09D8F1
:1047F000BB8C1946A448FEF785FE0346002B01D06A
:104800000623ABE17B695A1C7A615B00FA681344AA
:10481000BA8C1A80C5E73A69BB691A443B681A60CA
:10482000BB8C1F2B01D8042300E0002387F826301F
:104830007B69012B09D17B6903F10043013B5B00DC
:10484000FA6813441B882E2B16D07B69022B4CD19F
:104850007B6903F10043013B5B00FA6813441B884A
:104860002E2B42D17B6903F10043023B5B00FA68C7
:1048700013441B882E2B38D17B695B00FA681344E4
:1048800000221A8000233B620EE07B689A693B6A33
:104890001344396A7A69914201D22E2200E0202223
:1048A0001A703B6A01333B623B6A0A2BEDD97B6885
:1048B0009A693B6A134497F8262042F02002D2B24C
:1048C0001A7000234AE17B6903F10043013B5B005E
:1048D000FA6813441B88BB84BB8C202B02D0BB8C92
:1048E0002E2B06D17B69013B7B617B69002BEAD1D2
:1048F00000E000BF7B69002B01D106232EE17B691C
:104900005B00FA68134400221A807B689B690B22C3
:1049100020211846FEF7B4FD0023BB6102E0BB690D
:104920000133BB61BB695B00FA6813441B88202B11
:10493000F5D0BB695B00FA6813441B882E2BEED0C0
:10494000BB69002B09D097F8263043F0030387F8A2
:10495000263002E07B69013B7B617B69002B09D03B
:104960007B6903F10043013B5B00FA6813441B8839
:104970002E2BEFD100233B62002387F8273008233A
:10498000FB61BB695A1CBA615B00FA6813441B885F
:10499000BB84BB8C002B00F09680BB8C202B06D0F8
:1049A000BB8C2E2B0AD1BA697B699A4206D097F844
:1049B000263043F0030387F8263083E03A6AFB6928
:1049C0009A4203D2BA697B699A4223D1FB690B2BC5
:1049D00006D197F8263043F0030387F8263075E0B8
:1049E000BA697B699A4205D097F8263043F00303F1
:1049F00087F82630BA697B699A4266D87B69BB61C1
:104A000008233B620B23FB6197F827309B0087F854
:104A1000273057E0BB8C7F2B14D9BB8C0021184664
:104A2000FBF7B2FB0346BB84BB8C002B04D0BB8CD2
:104A3000803B164AD35CBB8497F8263043F00203D0
:104A400087F82630BB8C002B07D0BB8C194610484A
:104A5000FEF758FD0346002B08D05F23BB8497F870
:104A6000263043F0030387F8263022E0BB8C402B2E
:104A700010D9BB8C5A2B0DD897F8273043F002037E
:104A800087F8273015E000BF04900008748F0008F5
:104A900010900008BB8C602B0BD9BB8C7A2B08D8EC
:104AA00097F8273043F0010387F82730BB8C203B71
:104AB000BB847B689A693B6A591C39621344BA8C7F
:104AC000D2B21A705DE700BF00E000BF7B689B694F
:104AD0001B78E52B03D17B689B6905221A70FB6963
:104AE000082B04D197F827309B0087F8273097F8D8
:104AF000273003F00C030C2B05D097F8273003F078
:104B00000303032B05D197F8263043F0020387F8FF
:104B1000263097F8263003F00203002B17D197F8C0
:104B2000273003F00303012B05D197F8263043F01B
:104B3000100387F8263097F8273003F00C03042B76
:104B400005D197F8263043F0080387F826307B68B4
:104B50009B690B3397F826201A70002318462837D4
:104B6000BD4680BD80B584B000AF786039603B68D9
:104B70001B782F2B03D03B681B785C2B06D13B683E
:104B800001333B607B6800229A6004E07B681B680D
:104B90005A697B689A603B681B781F2B09D80021F3
:104BA0007868FFF7ABF80346FB737B6800225A6115
:104BB00056E03B4619467868FFF7D8FD0346FB737D
:104BC000FB7B002B47D17868FFF71CFC0346FB7387
:104BD0007B689B69DB7ABB73FB7B002B1DD0FB7B67
:104BE000042B3AD1BB7B03F02003002B0DD07B6854
:104BF00000229A607B6800225A61BB7B03F00403A9
:104C0000002B26D00023FB7327E0BB7B03F00403BB
:104C1000002B22D10523FB731FE0BB7B03F00403B1
:104C2000002B1CD17B685B69BB60BB680B331B78B6
:104C300003F01003002B02D10523FB7310E07B6807
:104C40001B68B9681846FFF7F3F902467B689A605B
:104C5000AFE700BFADE700BF02E000BF00E000BF6C
:104C6000FB7B18461037BD4680BD00BF80B489B0BD
:104C700000AF78604FF0FF333B617B681B68002B0F
:104C80006FD07B681B68BB6102E0BB690133BB610D
:104C9000BB691B781F2B03D9BB691B783A2BF4D156
:104CA000BB691B783A2B59D17B681B68FB61FB6998
:104CB0005A1CFA611B78303B7B617B69092B0FD84A
:104CC000FA69BB699A420BD17B69082B44D87B698E
:104CD0003B61BB690133BB617B68BA691A603BE029
:104CE00000237B61BB690133BB61214A7B6952F8B8
:104CF0002330FB607B681B68FB61FB685A1CFA6011
:104D00001B78BB72FB695A1CFA611B78FB72FB7A39
:104D1000602B05D9FB7A7A2B02D8FB7A203BFB72F9
:104D2000BB7A002B03D0BA7AFB7A9A42E5D0BB7AE1
:104D3000002B03D1FA69BB699A4205D07B69013324
:104D40007B617B69082BD0D97B69082B04D87B69F0
:104D50003B617B68BA691A603B6903E0054B1B78CD
:104D60003B613B6918462437BD465DF8047B7047BC
:104D7000A0900008D209002080B582B000AF786012
:104D800039607B6800221A717B684FF0FF321A632A
:104D900039687868FEF716FC0346002B01D0032320
:104DA0004AE07B6803F2322301331B781B021AB2FC
:104DB0007B6893F832321BB213431BB2204A9342F2
:104DC00001D0022338E07B686A3303331B781A066C
:104DD0007B686A3302331B781B0413437A686A3298
:104DE00001321278120213437A6892F86A20134350
:104DF00023F07F43134A934201D100231CE07B68D8
:104E0000863303331B781A067B68863302331B789C
:104E10001B0413437A68863201321278120213435C
:104E20007A6892F88620134323F07F43054A934221
:104E300001D1002300E0012318460837BD4680BD9C
:104E400055AAFFFF4641540080B596B000AFF86008
:104E5000B9601346FB71FB6800221A60B868FFF75F
:104E600005FFF863FB6B002B01DA0B2393E29B4AEF
:104E7000FB6B52F82330BB63BB6B002B01D10C23BF
:104E800089E2FB68BA6B1A60BB6B1B78002B1AD0E7
:104E9000BB6B5B781846FBF7FFFA034687F83730A1
:104EA00097F8373003F00103002B0CD1FB79002B6E
:104EB00007D097F8373003F00403002B01D00A2302
:104EC00069E2002367E2BB6B00221A70FB6BDAB267
:104ED000BB6B5A70BB6B5B781846FBF7C7FA03468F
:104EE00087F8373097F8373003F00103002B01D0F3
:104EF000032350E2FB79002B07D097F8373003F0FB
:104F00000403002B01D00A2345E200233B65396DE1
:104F1000B86BFFF731FF034687F8573097F85730E3
:104F2000012B57D100233B642BE0BB6B03F1340210
:104F30003B6C1B0103F5DF7313443B633B6B043392
:104F40001B78002B12D03B6B0B331B781A063B6B84
:104F50000A331B781B0413433A6B0932127812028E
:104F600013433A6B083212781A4300E000223B6C7C
:104F70009B0007F158010B4443F8442C3B6C013370
:104F80003B643B6C032BD0D900233B643B6C002B70
:104F900002D03B6C013B3B643B6C9B0007F1580229
:104FA000134453F8443C3B653B6D002B05D0396DF1
:104FB000B86BFFF7E1FE034600E0022387F85730A5
:104FC00097F85730002B05D03B6C01333B643B6CAA
:104FD000032BE1D997F85730032B01D10123DAE1F4
:104FE00097F85730002B01D00D23D4E1BB6B93F819
:104FF00040301B021AB2BB6B93F83F301BB2134315
:105000001BB2B3F5007F01D00D23C4E1BB6B93F855
:105010004B301B021AB2BB6B93F84A301BB21343DE
:105020001BB29BB2FB64FB6C002B12D1BB6B93F8E1
:105030005B301A06BB6B93F85A301B041343BA6BF0
:1050400092F8592012021343BA6B92F85820134376
:10505000FB64BB6BFA6CDA61BB6B93F84420BB6BEF
:10506000DA70BB6BDB78012B05D0BB6BDB78022BD6
:1050700001D00D238FE1BB6BDB781A46FB6C02FB82
:1050800003F3FB64BB6B93F84120BB6B9A70BB6B63
:105090009B78002B08D0BB6B9B781A46BB6B9B7828
:1050A000013B1340002B01D00D2374E1BB6B93F83F
:1050B00046301B021AB2BB6B93F845301BB2134348
:1050C0001BB29AB2BB6B1A81BB6B1B8903F00F0337
:1050D0009BB2002B04D00D235DE100BFAC09002082
:1050E000BB6B93F848301B021AB2BB6B93F8473086
:1050F0001BB213431BB29BB2BB64BB6C002B12D11F
:10510000BB6B93F857301A06BB6B93F856301B04F1
:105110001343BA6B92F8552012021343BA6B92F8FC
:1051200054201343BB64BB6B93F843301B021AB289
:10513000BB6B93F842301BB213431BB2FB85FB8D54
:10514000002B01D10D2326E1FA8DFB6C1344BA6BC1
:105150001289120992B21344BB62BA6CBB6A9A42BA
:1051600001D20D2317E1BA6CBB6AD31ABA6B9278DD
:10517000B3FBF2F37B627B6A002B01D10D230AE1C2
:10518000012387F857307B6A40F6F572934202D9C3
:10519000022387F857307B6A4FF6F572934202D9A3
:1051A000032387F857307B6A9A1CBB6B9A61BB6BF1
:1051B0003A6D1A62FA8D3B6D1A44BB6B5A623A6DB6
:1051C000BB6A1A44BB6BDA6297F85730032B1ED1C7
:1051D000BB6B1B89002B01D00D23DCE0BB6B93F86C
:1051E00063301A06BB6B93F862301B041343BA6B2F
:1051F00092F8612012021343BA6B92F860201A43AE
:10520000BB6B9A62BB6B9B699B007B641FE0BB6BB3
:105210001B89002B01D10D23BDE0BB6B5A6AFB6CCF
:105220001A44BB6B9A6297F85730022B03D1BB6BC1
:105230009B695B000AE0BB6B9A6913465B001344F1
:105240005A08BB6B9B6903F0010313447B64BB6B7F
:10525000DA697B6C03F2FF135B0A9A4201D20D23D9
:1052600099E0BB6B4FF0FF321A61BB6B1A69BB6BE5
:10527000DA60BB6B80225A7197F85730032B78D1D4
:10528000BB6B93F865301B021AB2BB6B93F86430AA
:105290001BB213431BB2012B6BD13B6D013319467B
:1052A000B86BFEF78FF90346002B62D1BB6B00226F
:1052B0005A71BB6B93F833321B021AB2BB6B93F873
:1052C00032321BB213431BB2354A934251D1BB6BEE
:1052D00093F837301A06BB6B93F836301B04134330
:1052E000BA6B92F8352012021343BA6B92F834204D
:1052F00013432C4A93423CD1BB6B93F81B321A06E2
:10530000BB6B93F81A321B041343BA6B92F8192241
:1053100012021343BA6B92F818221343224A9342A3
:1053200027D1BB6B93F81F321A06BB6B93F81E3262
:105330001B041343BA6B92F81D2212021343BA6B7B
:1053400092F81C221A43BB6B1A61BB6B93F8233291
:105350001A06BB6B93F822321B041343BA6B92F804
:10536000212212021343BA6B92F820221A43BB6B1C
:10537000DA60BB6B97F857201A700C4B1B8801330F
:105380009AB20A4B1A80094B1A88BB6BDA80BB6B46
:1053900000225A61002318465837BD4680BD00BF21
:1053A00055AAFFFF5252614172724161D00900203B
:1053B00080B584B000AF78607B68FB60FB68002B31
:1053C0000FD0FB681B68002B0BD0FB681B681B7899
:1053D000002B06D0FB681B68DA88FB689B889A4222
:1053E00001D009230DE0FB681B685B781846FBF7CA
:1053F00053F8034603F00103002B01D0032300E020
:10540000002318461037BD4680BD00BF80B588B068
:1054100000AFF860B9601346FB71BB683B6107F1F0
:1054200010031846FFF722FCF861FB69002B01DA34
:105430000B2328E0164AFB6952F82330BB61BB6995
:10544000002B02D0BB6900221A70FB68002B02D02F
:10545000FB6800221A70FA680D49FB6941F82320A5
:10546000FB68002B02D0FB79012B01D000230AE05E
:1054700007F1080107F10C0300221846FFF7E4FCCE
:105480000346FB75FB7D18462037BD4680BD00BF37
:10549000AC09002080B596B000AFF860B960134643
:1054A000FB71FB68002B01D109233EE1FB68002260
:1054B0001A60FB7903F01F03FB71FB7923F00103F2
:1054C000DAB207F1080107F11C031846FFF7BCFC2C
:1054D000034687F8573097F85730002B40F0238168
:1054E0004FF40070FCF754FDF864FB6C002B01D105
:1054F00011231AE1FB6CBB6307F110037B63BA68ED
:1055000007F11C0311461846FFF72CFB034687F8EA
:1055100057303B6B3B6597F85730002B05D13B6DFF
:10552000002B02D1062387F85730FB7903F01C03C8
:10553000002B00F08F8097F85730002B12D097F88F
:105540005730042B07D107F11C031846FFF70EF85C
:10555000034687F85730FB7943F00803FB713B6B38
:105560003B6512E03B6D0B331B7803F01103002BFE
:1055700003D0072387F8573007E0FB7903F00403D3
:10558000002B02D0082387F8573097F85730002BAC
:105590007ED1FB7903F00803002B79D0FBF74AF8A2
:1055A000B8643B6D0E33BA6CD2B21A703B6D0F33D8
:1055B000BA6C92B2120A92B2D2B21A703B6D103328
:1055C000BA6C120CD2B21A703B6D1133BA6C120E57
:1055D000D2B21A703B6D0B3300221A703B6D1C3334
:1055E00000221A703B6D1D3300221A703B6D1E3372
:1055F00000221A703B6D1F3300221A70FB69396D4F
:105600001846FEF715FD78640021386DFEF73EFD63
:10561000FB6901221A717B6C002B39D0FB691B6B73
:10562000BB64FB69796C1846FEF780FA034687F87D
:10563000573097F85730002B2AD1FB697A6C013A22
:10564000DA60FB69B96C1846FDF7BCFF034687F8C2
:1056500057301DE097F85730002B19D13B6D0B33B5
:105660001B7803F01003002B03D0042387F8573076
:105670000EE0FB7903F00203002B09D03B6D0B33E6
:105680001B7803F00103002B02D0072387F8573063
:1056900097F85730002B0FD1FB7903F00803002B4C
:1056A00003D0FB7943F02003FB71FB691A6BFB68A5
:1056B000DA61FB683A6D1A62F86CFCF775FC97F8D2
:1056C0005730002B2FD1FB68FA799A71FB680022C2
:1056D000DA71FB69396D1846FEF7AAFC0246FB68D1
:1056E0001A613B6D1F331B781A063B6D1E331B7806
:1056F0001B0413433A6D1D321278120213433A6DA4
:105700001C3212781A43FB68DA60FB6800229A6048
:10571000FB6800229A61FA69FB681A60FB681B68E3
:10572000DA88FB689A8097F8573018465837BD4694
:1057300080BD00BF80B58AB000AFF860B9607A6004
:105740003B60BB68BB613B6800221A60F868FFF7EA
:105750002FFE0346FB75FB7D002B01D0FB7D52E144
:10576000FB68DB79002B02D0FB68DB794BE1FB683F
:105770009B7903F00203002B01D1072343E1FB686F
:105780009A687B681A44FB689B689A4280F0238180
:1057900000237B601FE1FB689B68C3F30803002BB9
:1057A00040F0E480FB689B685B0ADAB2FB681B6828
:1057B0009B78013BDBB21340BB75BB7D002B39D11D
:1057C000FB689B68002B0DD1FB681B697B627B6AC1
:1057D000002B10D1FB681B6800211846FEF7FAF970
:1057E000786208E0FB681A68FB685B691946104636
:1057F000FEF7F0F978627B6A002B00F0F1807B6A9B
:10580000012B04D1FB680222DA710223FBE07B6AE0
:10581000B3F1FF3F04D1FB680122DA710123F2E00A
:10582000FB687A6A5A61FB681B69002B02D1FB682E
:105830007A6A1A61FB689B7903F04003002B19D048
:10584000FB681B685878FB6803F12401FB689A69C0
:105850000123FAF761FE0346002B04D0FB68012206
:10586000DA710123CFE0FB689B7923F04003DAB2C1
:10587000FB689A71FB681A68FB685B6919461046F9
:10588000FDF770FF38613B69002B04D1FB680222F1
:10589000DA710223B7E0BB7D3A6913443B617B6850
:1058A0005B0AFB61FB69002B40D0BA7DFB691344A6
:1058B000FA6812689278934206D9FB681B689B7855
:1058C0001A46BB7DD31AFB61FB681B685878FB69DD
:1058D000DBB23A69B969FAF71FFE0346002B04D020
:1058E000FB680122DA7101238DE0FB689A693B694C
:1058F000D21AFB699A4215D2FB6803F12400FB68B7
:105900009A693B69D31A5B02BA6913444FF4007277
:105910001946FDF797FDFB689B7923F04003DAB247
:10592000FB689A71FB695B023B6240E0FB689A6925
:105930003B699A4217D0FB689A68FB68DB689A4219
:1059400011D2FB681B685878FB6803F1240101231E
:105950003A69FAF7B3FD0346002B04D0FB68012235
:10596000DA7101234FE0FB683A699A61FB689B6832
:10597000C3F30803C3F500733B623A6A7B689A423B
:1059800001D97B683B62FB689B68C3F30803203343
:10599000FA68134404333A6AB9691846FDF752FDB0
:1059A000FB689B7943F04003DAB2FB689A71BA69ED
:1059B0003B6A1344BB61FB689A683B6A1A44FB6804
:1059C0009A603B681A683B6A1A443B681A607A68B6
:1059D0003B6AD31A7B607B68002B7FF4DCAE00E06F
:1059E00000BFFB689A68FB68DB689A4203D9FB68D2
:1059F0009A68FB68DA60FB689B7943F02003DAB2AF
:105A0000FB689A71002318462837BD4680BD00BF49
:105A100080B586B000AF78607868FFF7C9FC0346B0
:105A2000FB75FB7D002B40F096807B689B7903F033
:105A30002003002B00F08F807B689B7903F04003EC
:105A4000002B16D07B681B6858787B6803F1240113
:105A50007B689A690123FAF75FFD0346002B01D0AA
:105A6000012379E07B689B7923F04003DAB27B68FD
:105A70009A717B681A687B68DB6919461046FDF7E6
:105A8000A1FD0346FB75FB7D002B64D17B681B6A7F
:105A90003B613B690B333A690B32127842F02002CA
:105AA000D2B21A703B691C337A68D268D2B21A70CB
:105AB0003B691D337A68D26892B2120A92B2D2B2AE
:105AC0001A703B691E337A68D268120CD2B21A700F
:105AD0003B691F337A68D268120ED2B21A707B68A3
