:020000040800F2
:1000000020410120D50700084508000845080008E0
:1000100045080008450800084508000800000000E1
:100020000000000000000000000000003145000852
:100030004508000800000000DD460008C52A000849
:10004000450800084508000845080008450800085C
:10005000450800084508000845080008450800084C
:10006000450800084508000845080008450800083C
:10007000450800084508000845080008450800082C
:10008000450800084508000845080008450800081C
:10009000450800084508000845080008450800080C
:1000A00045080008450800084508000845080008FC
:1000B00045080008450800084508000845080008EC
:1000C00045080008450800084508000845080008DC
:1000D00045080008450800084508000845080008CC
:1000E00045080008450800084508000845080008BC
:1000F00045080008450800084508000845080008AC
:10010000450800084508000845080008450800089B
:10011000450800084508000845080008450800088B
:10012000450800084508000845080008450800087B
:10013000450800084508000845080008450800086B
:10014000450800084508000845080008450800085B
:10015000450800084508000845080008450800084B
:10016000450800084508000845080008450800083B
:10017000450800084508000845080008450800082B
:10018000450800084508000880B485B000AF034664
:100190003960FB80FB887F2B02D8FB88FB8125E040
:1001A0003B68002B0BD0FB88FF2B05D8FB88803BDE
:1001B000124A32F8133000E00023FB8116E00023DE
:1001C000FB8109E0FB890D4A32F81330FA889A4224
:1001D00006D0FB890133FB81FB897F2BF2D900E03C
:1001E00000BFFB8980339BB2DBB2FB81FB891846E1
:1001F0001437BD465DF8047B704700BF44C100085A
:1002000080B485B000AF0346FB800023FB6002E0B2
:10021000FB680133FB600F4AFB6832F81330002B98
:1002200006D00C4AFB6832F81330FA889A42EFD1B4
:10023000084AFB6832F81330002B04D0064AFB68EA
:1002400032F8133000E0FB8818461437BD465DF8DD
:10025000047B704744C2000824C4000880B58AB0FB
:1002600000AF7860396000237B6200233B6200238B
:10027000FB610023BB617B681B8A9BB27B627B6A4C
:1002800023F440537B623B68DB881A467B6A134346
:100290007B627B6A9AB27B681A827B689B899BB27D
:1002A0007B627B6A23F4B05323F00C037B623B68D0
:1002B0009A883B681B8913439AB23B685B89134356
:1002C0009BB21A467B6A13437B627B6A9AB27B6855
:1002D0009A817B689B8A9BB27B627B6A23F4407322
:1002E0007B623B689B891A467B6A13437B627B6A0D
:1002F0009AB27B689A8207F10803184600F0A6FEBE
:100300007B68304A934203D07B682F4A934202D1E4
:100310007B693B6201E03B693B627B689B899BB2E6
:100320001BB2002B0CDA3A6A13469B0013449A0066
:100330001A443B681B685B00B2FBF3F3FB610BE004
:100340003A6A13469B0013449A001A443B681B68A0
:100350009B00B2FBF3F3FB61FB691C4AA2FB032386
:100360005B091B017B627B6A1B09642202FB03F3AE
:10037000FA69D31ABB617B689B899BB21BB2002BC5
:100380000CDABB69DB003233104AA2FB03235B09A2
:1003900003F007037A6A13437B620BE0BB691B011E
:1003A00032330A4AA2FB03235B0903F00F037A6A84
:1003B00013437B627B6A9AB27B681A8100BF28373D
:1003C000BD4680BD00100140001401401F85EB5167
:1003D00080B483B000AF78600B46FB70FB78002BD5
:1003E00008D07B689B899BB243F400539AB27B6828
:1003F0009A8107E07B689B899BB223F400539AB2F1
:100400007B689A8100BF0C37BD465DF8047B70475E
:1004100080B483B000AF78600B467B807B88C3F3E9
:1004200008039AB27B689A8000BF0C37BD465DF81E
:10043000047B704780B483B000AF78607B689B8892
:100440009BB2C3F308039BB218460C37BD465DF858
:10045000047B704780B485B000AF78600B467B802A
:100460000023FB737B681B889AB27B8813409BB286
:10047000002B02D00123FB7301E00023FB73FB7B05
:1004800018461437BD465DF8047B704780B485B0CC
:1004900000AF78600B4B1B68002B02D1094B0A4A56
:1004A0001A60084B1B68FB60064B1A687B68134494
:1004B000044A1360FB6818461437BD465DF8047B98
:1004C000704700BF900A00202041012080B582B013
:1004D00000AF0346FB71FA790C4913469B001344A5
:1004E0009B000B441B68002B0AD0FA79074913467E
:1004F0009B0013449B000B441B689847034600E095
:10050000042318460837BD4680BD00BF0000002008
:1005100080B582B000AF0346FB71FA790D491346EE
:100520009B0013449B000B4404331B68002B0BD02F
:10053000FA79084913469B0013449B000B4404338B
:100540001B689847034600E0042318460837BD4659
:1005500080BD00BF0000002080B584B000AFB9604E
:100560007A603B600346FB733B68002B01D1042398
:100570001AE0FA7B0E4913469B0013449B000B4480
:1005800010331B68002B0ED0FA7B094913469B00E1
:1005900013449B000B4410331B683A687968B868B1
:1005A0009847034600E0042318461037BD4680BD37
:1005B0000000002080B584B000AFB9607A603B6075
:1005C0000346FB733B68002B01D104231AE0FA7B3E
:1005D0000E4913469B0013449B000B440C331B68CD
:1005E000002B0ED0FA7B094913469B0013449B0055
:1005F0000B440C331B683A687968B868984703461F
:1006000000E0042318461037BD4680BD00000020DE
:1006100080B582B000AF03463A60FB710B46BB71F8
:10062000FA790F4913469B0013449B000B4408338F
:100630001B68002B0ED0FA79094913469B0013441E
:100640009B000B4408331B68BA79396810469847F9
:10065000034600E0042318460837BD4680BD00BFAE
:100660000000002080B400AF024B1846BD465DF884
:10067000047B70470000FC4280B400AF01231846A1
:10068000BD465DF8047B704780B400AF0123184677
:10069000BD465DF8047B704780B400AF0123184667
:1006A000BD465DF8047B704780B400AF0123184657
:1006B000BD465DF8047B704780B400AF0123184647
:1006C000BD465DF8047B704780B400AF0123184637
:1006D000BD465DF8047B704780B483B000AF03462D
:1006E0003960FB71012318460C37BD465DF8047B69
:1006F000704700BF80B483B000AF03463960FB7120
:10070000012318460C37BD465DF8047B704700BFD7
:1007100080B483B000AF03463960FB7101231846F3
:100720000C37BD465DF8047B704700BF80B485B0D0
:1007300000AFF860B9607A60012318461437BD46EF
:100740005DF8047B704700BF80B485B000AFF860EF
:10075000B9607A60012318461437BD465DF8047B02
:10076000704700BF80B485B000AFF860B9607A60B0
:10077000012318461437BD465DF8047B704700BF5F
:1007800080B485B000AFF860B9607A600123184684
:100790001437BD465DF8047B704700BF80B485B058
:1007A00000AFF860B9607A60012318461437BD467F
:1007B0005DF8047B704700BF80B485B000AFF8607F
:1007C000B9607A60012318461437BD465DF8047B92
:1007D000704700BF80B582B000AF144B7B60144BF4
:1007E0003B6007E03B681A1D3A607A68111D79602A
:1007F00012681A603B680F4A9342F3D30E480F49C0
:100800004FF000028842B8BF40F8042BFADBDFF853
:100810003000016841F47001016003F043FC00F016
:10082000B9FA00BF0837BD4680BD00BF14CC000830
:1008300000000020900A0020900A00201C390120AE
:1008400088ED00E080B400AFFEE700BF80B485B063
:1008500000AF7860104B1A687B6802FB03F3FB6003
:100860000E4B1B680E4A934204D00C4B1B680D4A7A
:10087000934204D1084B1B68FA68D31AFB6000BF8F
:10088000FB685A1EFA60002BFAD100BF1437BD4630
:100890005DF8047B704700BFD4380120CC000020F5
:1008A0000095BA0A00E1F50580B483B000AF786026
:1008B0000B46FB707B681B889BB203F04003002B48
:1008C00001D1002325E000BF7B681B899BB203F0A8
:1008D0000303002BF8D07B681B899BB203F08003D5
:1008E000002BF1D1FB789AB27B689A8100BF7B68BC
:1008F0001B899BB203F00303002BF8D07B681B8994
:100900009BB203F08003002BF1D17B689B899BB2E3
:10091000DBB218460C37BD465DF8047B704700BF5C
:1009200080B584B000AF786002F05AFB0346FB60EC
:1009300008E007F10C030121184602F023FA7B6856
:10094000013B7B607B68002BF3DC00BF1037BD46AA
:1009500080BD00BF80B5A6B000AF78600023C7F8A7
:100960009430002387F89330002387F8923003F007
:1009700001FD03F00FFD03F005FD00BF082141203C
:1009800003F0E0FC0346002BF8D003F015FD03F064
:1009900009FD00213348FFF787FF034687F89330AE
:1009A0003BE097F8933087F8923000212D48FFF70D
:1009B0007BFF034687F89330D7F894307F2B0CDC0D
:1009C000D7F894305A1CC7F8942007F198021344C2
:1009D00097F8932003F8882C1CE003F0F9FC07F14A
:1009E0000C0307F110018022786806F0B1FC0023A7
:1009F000C7F89430D7F894305A1CC7F8942007F100
:100A00009802134497F8932003F8882C03F0D4FC41
:100A100003F0C8FC0A20FFF719FF97F89330D92B91
:100A200014BF01230023DAB297F89230FF2B14BFD2
:100A300001230023DBB21343DBB2002BB1D1D7F883
:100A40009430002B0ADD03F0C3FCD7F8942007F1A3
:100A50000C0307F11001786806F07AFC00BF9837A4
:100A6000BD4680BD0038004080B584B000AF7860DE
:100A7000396012223968786806F01AFB0346FB7366
:100A8000FB7B002B0DD17B68DB681946786806F08C
:100A90008FFE0346FB73FB7B002B02D0786806F0C9
:100AA0006BFEFB7B18461037BD4680BD80B586B017
:100AB00000AF78600A4B186800236422002104F01C
:100AC00097F8084A07F10C0307CA83E8070000F00B
:100AD00055FA07F10C030C21184600F095FAE9E7E6
:100AE0008C38012004C6000880B582B000AF786061
:100AF000054B186800230022002103F053FF034830
:100B0000FFF70EFFF4E700BF8C380120C027090073
:100B1000F0B5ADF2945D0AAF3B1D186002F060FACB
:100B20000346C7F8603503F09FFD07F58C63642129
:100B3000184601F0A3FC03F0A9FD07F58C631946E4
:100B40003F4801F0C3FC3F4B186800234FF0FF32D1
:100B5000002104F04DF803F087FD07F50B73012227
:100B60003949184606F060FA0346002B33D107F1E5
:100B7000080336491846FFF777FF034687F86735BD
:100B800097F86735002B21D1314B1E68731C304A12
:100B900013602B4B1B6B184607F048FD04460D46AF
:100BA000274B1B69184607F041FD02460B4607F12B
:100BB0000800CDE90223CDE900453246254906F07B
:100BC000A3FF07F10803184606F0D6FD01221E49CF
:100BD000002006F029FA03F059FD1A4B186800238B
:100BE0000022002103F0DEFE1B4B186800234FF0AB
:100BF000FF32002103F0FCFF03F036FD104E6D467E
:100C000006F110040FCC0FC50FCC0FC594E80300FC
:100C100085E8030096E80F0001F002FC03F036FDC2
:100C20000D4B186800230022002103F0BBFE07F5DE
:100C3000AC6340F6C411184602F0A4F873E700BF95
:100C4000943801208838012010C6000814C6000816
:100C5000940A002024C60008CC38012080B582B058
:100C600000AF02F0BDF903467B6007F0EBF90346E5
:100C7000002B1BD0114B186800234FF0FF320021CE
:100C800003F0B6FF03F0F0FC01F0B4FB03F0FEFC50
:100C90000A4B186800230022002103F083FE084B52
:100CA000186800230022002103F07CFE3B1D41F266
:100CB0008831184602F066F8D7E700BFCC3801202B
:100CC0009038012080B5ADF58B6D00AF194B1868D9
:100CD00000234FF0FF32002103F08AFF03F0C4FC31
:100CE00007F5097301221449184606F09DF90346D9
:100CF000002B15D13B4613221049184606F0D8F9AF
:100D00000346002B07D13B461846FFF723FE3B4620
:100D1000184606F031FD01220749002006F084F94B
:100D200003F0B4FC034B186800230022002103F0F9
:100D300039FECBE78838012010C6000830C600080D
:100D400080B582B000AF02F04BF903467B6003F040
:100D50009DFA0346002B14D00D4B186800234FF06A
:100D6000FF32002103F044FF03F07EFC01F02CFB76
:100D700003F08CFC064B186800230022002103F0CE
:100D800011FE3B1DFA21184601F0FCFFDFE700BF12
:100D9000CC38012080B5ADF58D6D04AF03F082F93C
:100DA00001F014FF07F5097301225F49184606F0A8
:100DB0003BF90346002B28D13B4613225B491846DA
:100DC00006F076F90346002B08D13B4619465848F1
:100DD00006F060FE3B46184606F0CEFC3B4613226A
:100DE0005449184606F064F90346002B08D13B46E7
:100DF0001946514806F04EFE3B46184606F0BCFC2C
:100E000001224949002006F00FF9032200210120A8
:100E100003F03EFD0246494B1A60484B1B68002B0D
:100E200006D0464B186800230022002103F0BAFDCB
:100E300003220021012003F02BFD0246404B1A60E3
:100E40003F4B1B68002B06D03D4B18680023002247
:100E5000002103F0A7FD012003F05CFD0246394BA1
:100E60001A60012003F056FD0246374B1A6000233A
:100E70000393002302930023019303230093002391
:100E80004FF47A723149324801F0C8FE00230393CF
:100E900000230293002301930223009300234FF4C5
:100EA0007A722C492C4801F0B9FE002303930023E9
:100EB0000293002301930223009300234FF47A72DC
:100EC0002649274801F0AAFE00230393002302933A
:100ED000002301930323009300234FF47A722149E6
:100EE000214801F09BFE002303930023029300237B
:100EF00001930223009300234FF47A721B491C488C
:100F000001F08CFE0023039300230293002301933E
:100F10000323009300234FF47A721649164801F018
:100F20007DFE01F091FFFEE710C6000844C60008F0
:100F300058C6000880C6000890C600088C380120FA
:100F40009038012088380120CC380120B8C600082C
:100F5000AD0A0008C4C60008E90A0008D0C60008A7
:100F6000110B0008DCC600085D0C0008E8C600088C
:100F7000C50C0008F0C60008410D000880B586B019
:100F800000AF01214FF4002000F02AF901210420D4
:100F900000F006F94FF440633B6102233B750023E8
:100FA000BB7502237B750023FB7507F110031946FF
:100FB000134802F0D1FE08220A21114802F072FF04
:100FC00008220B210E4802F06DFF4FF416533B60D0
:100FD0000023FB800023BB810C237B8100233B810A
:100FE0000023BB803B4619460648FFF737F901212D
:100FF0000448FFF7EDF9002318461837BD4680BDB9
:1010000000080240004C004080B582B000AF78601C
:10101000396010E000BF80210B48FFF71BFA034640
:10102000002BF8D07B685A1C7A601B789BB219465B
:101030000548FFF7EDF93B685A1E3A60002BE9D1ED
:1010400000BF0837BD4680BD004C004080B489B069
:1010500000AF78600023BB6100237B610023FB614C
:1010600002233B610023FB600223BB60484B9B686B
:1010700003F00C03BB61BB69042B07D0082B09D01C
:10108000002B3FD17B68434A1A603FE07B68424AAD
:101090001A603BE03E4B5B6803F480039B0DFB60F2
:1010A0003B4B5B6803F03F03BB60FB68002B0DD03C
:1010B000394ABB68B2FBF3F2354B596847F6C07347
:1010C0000B409B0903FB02F3FB610CE0314ABB6858
:1010D000B2FBF3F22E4B596847F6C0730B409B09E5
:1010E00003FB02F3FB612A4B5B6803F440331B0CE8
:1010F00001335B003B61FA693B69B2FBF3F27B6849
:101100001A6003E07B68234A1A6000BF204B9B688B
:1011100003F0F003BB61BB691B09BB611F4ABB69DC
:1011200013441B78DBB27B617B681A687B69DA4009
:101130007B685A60164B9B6803F4E053BB61BB6944
:101140009B0ABB61154ABB6913441B78DBB27B6108
:101150007B685A687B69DA407B689A600C4B9B68B5
:1011600003F46043BB61BB695B0BBB610B4ABB69AA
:1011700013441B78DBB27B617B685A687B69DA4079
:101180007B68DA6000BF2437BD465DF8047B70479A
:10119000003802400024F40000127A00B40000205D
:1011A00080B483B000AF78600B46FB70FB78002BF7
:1011B00006D00A49094B1A6B7B6813430B6306E0A0
:1011C0000649064B1A6B7B68DB4313400B6300BF79
:1011D0000C37BD465DF8047B704700BF0038024005
:1011E00080B483B000AF78600B46FB70FB78002BB7
:1011F00006D00A49094B1A6C7B6813430B6406E05E
:101200000649064B1A6C7B68DB4313400B6400BF36
:101210000C37BD465DF8047B704700BF00380240C4
:1012200080B586B004AF00237B6000F03BFA0F4B23
:101230001B68002B0FD0002303930023029300238D
:1012400001930223009300234FF482720849094856
:1012500001F0E4FC78607B68002B02D103F030FAE7
:10126000FEE77B6818460837BD4680BDC80A0020E7
:10127000F8C600086913000880B588B000AFF860B0
:10128000B9607A603B600023FB611A4B1B68002B3E
:101290002AD0BB683B617B687B61FB68BB613B68B4
:1012A000002B18D102F06CFA0346022B09D1114B26
:1012B000186807F110010023BA6A03F073FBF861A4
:1012C00012E00C4B186807F110010023002203F014
:1012D00069FBF86108E0074B186807F1100100236B
:1012E0003A6803F01BFCF861FB6918462037BD46DD
:1012F00080BD00BFC80A002080B586B002AF78600C
:101300003960184B1B68DB68DB68FB60FB680433E3
:10131000184602F09DFEFB68DB69012B1AD1FB68C1
:101320009A697B68D1187B683A68F86800F0A8F879
:101330000346012B0ED10023009300237A6800217D
:10134000F868FFF799FFB860BB68002B02D103F083
:10135000B7F9FEE7FB685B6AF868984700BF10378B
:10136000BD4680BDC00A002080B584B000AF786063
:1013700007F10803184600F03FF8F860BB6819460B
:10138000F86800F003F800F0BDF8F1E780B584B02C
:1013900000AF7860396001F08FFD07F1080318464F
:1013A00000F04EF8F860BB68002B1DD13B68002BA5
:1013B0000AD17A68FB689A4206D801F08BFDF96879
:1013C0007868FFF799FF11E00A4B18687A68FB68A4
:1013D000D31A194603F018FE01F07CFD0346002BDA
:1013E00004D103F02FF901E001F074FD00BF1037C4
:1013F000BD4680BDC80A002080B485B000AF7860CB
:101400000E4B1B681B68002B0CBF01230023DBB2B3
:101410001A467B681A607B681B68002B05D1074B56
:101420001B68DB681B68FB6001E00023FB60FB6856
:1014300018461437BD465DF8047B7047C00A00208B
:1014400080B584B000AF786001F0CAFDF8600B4B46
:101450001B68FA689A4205D200F0CAF87B6801223C
:101460001A6002E07B6800221A60044AFB6813607D
:10147000FB6818461037BD4680BD00BFCC0A00206F
:1014800080B586B000AFF860B9607A603B60002339
:101490007B61FB68BA685A60FB68FA681A61BA68CF
:1014A0007B689A4212D87A683B68D21AFB689B69BB
:1014B0009A4202D301237B611BE0104B1A68FB6840
:1014C00004331946104602F089FD12E07A683B6841
:1014D0009A4206D2BA683B689A4202D301237B61E2
:1014E00007E0074B1A68FB6804331946104602F000
:1014F00075FD7B6918461837BD4680BDC40A0020BB
:10150000C00A002080B58AB002AF60E0BB68B3F1CA
:10151000FF3F5CD03B69FB61FB695B69002B04D03A
:10152000FB690433184602F093FD3B1D1846FFF794
:1015300087FFB861BB68032B48D801A252F823F09B
:1015400051150008CF1500089D150008C5150008A5
:10155000FA68FB699B69D118FB68BA69F869FFF7FB
:101560008FFF0346012B32D1FB695B6AF86998470C
:10157000FB69DB69012B2AD1FA68FB699B691A4474
:101580000023009300230021F869FFF775FE7861BE
:101590007B69002B1BD103F093F8FEE7FA68FB6927
:1015A0009A61FB699B69002B02D103F089F8FEE781
:1015B000FB699A69BB69D118BB69BA69F869FFF719
:1015C0005FFF04E0F86906F0BFFE00E000BF074BD4
:1015D000186807F108010023002203F009FB034605
:1015E000002B93D100BF2037BD4680BDC80A002024
:1015F00080B588B002AF3DE0284B1B68DB681B68F4
:101600007B61264B1B68DB68DB683B613B6904330D
:10161000184602F01DFD3B695B6A386998473B69D3
:10162000DB69012B26D13B699A697B691344FB6016
:10163000FA687B699A420ED93B69FA685A603B693D
:101640003A691A61154B1A683B690433194610460A
:1016500002F0C4FC0EE00023009300237A6900210D
:101660003869FFF709FEB860BB68002B02D103F0B0
:1016700027F8FEE7094B1B681B68002BBCD1074B02
:101680001B687B60064B1B68044A1360044A7B6836
:10169000136000BF1837BD4680BD00BFC00A0020E0
:1016A000C40A002080B500AF02F0DEFF164B1B68B5
:1016B000002B24D1154802F03FFC154802F03CFCF9
:1016C000144B124A1A60144B114A1A6000220C2162
:1016D0000A2003F0DDF802460B4B1A600A4B1B6828
:1016E000002B02D102F0ECFFFEE7074B1B68002B3A
:1016F00005D0054B1B680949184603F05DFC02F054
:10170000C5FF00BF80BD00BFC80A0020980A0020A6
:10171000AC0A0020C00A0020C40A002000C700084C
:1017200080B485B000AF7860084611461A4603467B
:10173000FB700B46BB7013467B700023FB600023DD
:10174000BB60FB78092B23D97B68DB68FB60FB78E7
:10175000A3F10A0213465B001344072202FA03F3C3
:10176000BB60BB68DB43FA681340FB607978FB78A9
:10177000A3F10A0213465B00134401FA03F3BB60B2
:10178000FA68BB681343FB607B68FA68DA601EE0A6
:101790007B681B69FB60FA7813465B0013440722E1
:1017A00002FA03F3BB60BB68DB43FA681340FB60DB
:1017B0007978FA7813465B00134401FA03F3BB60AF
:1017C000FA68BB681343FB607B68FA681A61BB78F0
:1017D000062B21D87B685B6BFB60BB785A1E1346D7
:1017E0009B0013441F2202FA03F3BB60BB68DB4378
:1017F000FA681340FB60F978BB785A1E13469B00C9
:10180000134401FA03F3BB60FA68BB681343FB603F
:101810007B68FA685A6347E0BB780C2B21D87B6859
:101820001B6BFB60BB78DA1F13469B0013441F221F
:1018300002FA03F3BB60BB68DB43FA681340FB604A
:10184000F978BB78DA1F13469B00134401FA03F3BF
:10185000BB60FA68BB681343FB607B68FA681A6375
:1018600022E07B68DB6AFB60BB78A3F10D021346C4
:101870009B0013441F2202FA03F3BB60BB68DB43E7
:10188000FA681340FB60F978BB78A3F10D021346A8
:101890009B00134401FA03F3BB60FA68BB6813436F
:1018A000FB607B68FA68DA6200BF1437BD465DF8FA
:1018B000047B704780B483B000AF78607B68DB6CDA
:1018C0009BB218460C37BD465DF8047B704700BFDD
:1018D00080B483B000AF78600B46FB707B681B88D8
:1018E0009BB203F04003002B01D1002325E000BF91
:1018F0007B681B899BB203F00303002BF8D07B6845
:101900001B899BB203F08003002BF1D1FB789AB2C4
:101910007B689A8100BF7B681B899BB203F003033D
:10192000002BF8D07B681B899BB203F08003002B4F
:10193000F1D17B689B899BB2DBB218460C37BD4660
:101940005DF8047B704700BF80B485B000AF78605D
:10195000114B1B68BB60EFF30583FB60FB68002B3A
:1019600011D100BF0C4B1A68BB68D21A7B689A422F
:10197000F8D30BE0094B1B6803F48033002B02D033
:101980007B68013B7B607B68002BF3D100BF143781
:10199000BD465DF8047B7047D80A002010E000E0E7
:1019A00080B500AF01F012F90021054801F0BEFF3B
:1019B000044B01221A830520FFF7C6FF00BF80BD3C
:1019C000003001400004024080B582B000AF786072
:1019D00039603B68FF227968034802F02BF800BFAA
:1019E0000837BD4680BD00BF0030014080B582B0E1
:1019F00000AF786039603A687968034801F0D4FF35
:101A000000BF0837BD4680BD0030014080B584B0BE
:101A100000AF78600C4A7B681360FF210B48FFF72A
:101A200057FF0346FB73FB7BFF2B03D0064B1B6862
:101A3000002BF2D1FB7BFF2B0CBF01230023DBB279
:101A400018461037BD4680BDDC0A0020003001403A
:101A500080B500AF044B01221A83FF210348FFF732
:101A600037FF00BF80BD00BF0004024000300140CE
:101A700080B500AF0A4B01225A83FF210948FFF7C6
:101A800027FF4FF4FA70FFF7C1FF0346002B01D088
:101A9000012302E0FFF7DCFF0023184680BD00BFF2
:101AA000000402400030014080B584B000AF78608F
:101AB0003960134B02221A60FF211248FFF708FF1A
:101AC0000346FB73FB7BFF2B03D10D4B1B68002BE5
:101AD000F2D1FB7BFE2B01D000230CE03968786843
:101AE000FFF772FFFF210748FFF7F2FEFF210548CD
:101AF000FFF7EEFE012318461037BD4680BD00BF3C
:101B0000DC0A00200030014080B584B000AF78606E
:101B10000B46FB704FF4FA70FFF778FF0346002B7B
:101B200001D1002322E0FB7819461248FFF7D0FECE
:101B3000FB78FD2B19D04FF400717868FFF756FF42
:101B4000FF210C48FFF7C4FEFF210A48FFF7C0FE43
:101B5000FF210848FFF7BCFE0346FB73FB7B03F045
:101B60001F03052B01D0002300E001231846103786
:101B7000BD4680BD0030014080B584B000AF034653
:101B80003960FB7197F90730002B0EDAFB7903F00F
:101B90007F03FB7100213720FFF7EEFF0346BB7385
:101BA000BB7B012B01D9BB7B59E0FB790C2B08D007
:101BB000FFF74EFFFFF75CFF0346002B01D1FF2329
:101BC0004DE0FB7943F04003DBB219462648FFF7AE
:101BD0007FFE3B681B0EDBB219462348FFF778FEF9
:101BE0003B681B0CDBB219461F48FFF771FE3B68D0
:101BF0001B0ADBB219461C48FFF76AFE3B68DBB2E2
:101C000019461948FFF764FE0123FB73FB79002B8B
:101C100001D19523FB73FB79082B01D18723FB733B
:101C2000FB7B19461048FFF753FEFB790C2B03D1C1
:101C3000FF210D48FFF74CFE0A23FB73FF210A48E2
:101C4000FFF746FE0346BB7397F90E30002B05DA0B
:101C5000FB7B013BFB73FB7B002BEFD1BB7B18466F
:101C60001037BD4680BD00BF0030014080B582B056
:101C700002AF0023019301230093002301220121DD
:101C8000024806F0F3F900BFBD4680BD00040240E3
:101C900080B400AF01231846BD465DF8047B704751
:101CA00080B400AF01231846BD465DF8047B704741
:101CB00090B583B000AFFFF7D9FFFFF771FEFFF7D4
:101CC000E7FF0346002B01D10223CCE00A23FB717E
:101CD00006E0FF216648FFF7FBFDFB79013BFB7146
:101CE000FB79002BF5D100237B7100210020FFF749
:101CF00043FF0346012B40F089805E4B4FF47A721C
:101D00001A604FF4D5710820FFF736FF0346012B08
:101D100051D10023FB710EE0FC79FF215448FFF7FD
:101D2000D7FD03461A4607F10803234403F8082C9D
:101D3000FB790133FB71FB79032BEDD9BB78012BC8
:101D400064D1FB78AA2B61D100BF4A4B1B68002BE2
:101D500007D04FF08041A920FFF70EFF0346002B6C
:101D6000F3D1444B1B68002B50D000213A20FFF7E1
:101D700003FF0346002B49D10023FB710EE0FC79E1
:101D8000FF213B48FFF7A4FD03461A4607F108036D
:101D9000234403F8082CFB790133FB71FB79032BF7
:101DA000EDD93B7803F04003002B01D00C2300E079
:101DB00004237B712AE00021A920FFF7DDFE034602
:101DC000012B04D802237B71A923BB7103E00123FB
:101DD0007B710123BB7100BF264B1B68002B07D012
:101DE000BB7900211846FFF7C7FE0346002BF3D14D
:101DF000204B1B68002B07D14FF400711020FFF718
:101E0000BBFE0346002B01D000237B711A4A7B796D
:101E10001370FFF71DFE7B79002B08D0174B1B7842
:101E2000DBB223F00103DAB2144B1A7002E0134B59
:101E300001221A70FFF734FF0346002B08D10F4B25
:101E40001B78DBB243F00403DAB20C4B1A7007E0E4
:101E50000A4B1B78DBB223F00403DAB2074B1A708B
:101E6000064B1B78DBB218460C37BD4690BD00BF51
:101E700000300140DC0A0020D00A0020C40000200D
:101E800080B500AFFFF704FF0346002B01D101230B
:101E900018E0FFF705FF0346002B08D10A4B1B781B
:101EA000DBB243F00403DAB2074B1A7007E0064BCB
:101EB0001B78DBB223F00403DAB2034B1A70024B37
:101EC0001B78DBB2184680BDC400002080B584B00A
:101ED00000AFF860B9607A60FFF7DAFE0346002BC6
:101EE00006D0294B1B78DBB203F00103002B01D095
:101EF000032344E0254B1B7803F00803002B02D199
:101F0000BB685B02BB607B68012B11D1B9681120F3
:101F1000FFF732FE0346002B29D14FF40071F86819
:101F2000FFF7C2FD0346002B21D000237B601EE09B
:101F3000B9681220FFF720FE0346002B17D14FF49B
:101F40000071F868FFF7B0FD0346002B0AD0FB686C
:101F500003F50073FB607B68013B7B607B68002BB3
:101F6000EDD100E000BF00210C20FFF705FEFFF7D8
:101F70006FFD7B68002B14BF01230023DBB21846E2
:101F80001037BD4680BD00BFC4000020D00A00202D
:101F900080B584B000AFF860B9607A60FFF778FE72
:101FA0000346002B01D101236AE0FFF779FE0346C7
:101FB000002B01D1022363E0334B1B78DBB203F02B
:101FC0000103002B01D003235AE02F4B1B78DBB217
:101FD00003F00403002B01D0022351E02B4B1B78AC
:101FE00003F00803002B02D1BB685B02BB607B6877
:101FF000012B10D1B9681820FFF7BEFD0346002B56
:1020000036D1FE21F868FFF77FFD0346002B2FD065
:1020100000237B602CE01D4B1B7803F00603002B94
:1020200003D079689720FFF7A7FDB9681920FFF75B
:10203000A3FD0346002B1BD1FC21F868FFF764FDCC
:102040000346002B0AD0FB6803F50073FB607B6836
:10205000013B7B607B68002BEED100E000BFFD21DF
:102060000020FFF751FD0346002B01D101237B60C7
:10207000FFF7EEFC7B68002B14BF01230023DBB2CB
:1020800018461037BD4680BDC4000020D00A00208D
:1020900080B58CB000AF03463960FB71B34B1B7841
:1020A000DBB203F00103002B01D0032359E1FFF75A
:1020B000EFFD0346002B01D1032352E1012387F8F2
:1020C0002F30FB79042B00F2378101A252F823F064
:1020D000E5200008F920000839230008A5210008A0
:1020E0009F220008FFF7C4FC0346002B00F0288164
:1020F000002387F82F3023E100210920FFF73CFD62
:102100000346002B40F01E8107F10C0310211846F6
:10211000FFF7CAFC0346002B00F014813B7B9B09B0
:10212000DBB2012B11D17B7D1A463B7D1B02134490
:102130001A46FB7C1B0403F47C13134401333B62FB
:102140003B6A9A023B681A6028E07B7C03F00F032D
:10215000DAB2BB7DDB09DBB21344DAB27B7D5B0014
:10216000DBB203F00603DBB21344DBB2023387F8C1
:102170002E303B7D9B09DBB21A46FB7C9B001A4448
:10218000BB7C9B0203F44063134401333B6297F82A
:102190002E30093B3A6A9A403B681A60002387F860
:1021A0002F30CFE0724B1B7803F00403002B33D0A9
:1021B00000218D20FFF7E0FC0346002B40F0C48097
:1021C000FF216C48FFF784FB07F10C031021184630
:1021D000FFF76AFC0346002B00F0B680302387F837
:1021E0002E3008E0FF216348FFF772FB97F82E308E
:1021F000013B87F82E3097F82E30002BF2D1BB7DB3
:102200001B09DBB21A46102303FA02F23B681A607C
:10221000002387F82F3097E000210920FFF7ACFC5E
:102220000346002B40F0908007F10C031021184664
:10223000FFF73AFC0346002B00F086804C4B1B78DE
:1022400003F00203002B12D0BB7D5B0003F07E0382
:10225000FA7DD209D2B213445A1C7B7E9B09DBB2B1
:10226000013B02FA03F31A463B681A6013E0BB7D98
:102270009B109BB203F01F030133FA7DD20002F0E2
:102280001802F97D4909C9B20A44013202FB03F37D
:102290001A463B681A60002387F82F3054E0344B0D
:1022A0001B7803F00603002B50D007F10C031946EE
:1022B0000B20FFF7EDFE0346002B49D13B7B9B092A
:1022C000DBB2002B04D1BB7D03F04003002B41D0D7
:1022D0003B68FB61FB691B68BB62FB695B687B62F7
:1022E000234B1B7803F00803002B05D1BB6A5B026C
:1022F000BB627B6A5B027B62B96A2020FFF73CFC11
:102300000346002B28D1796A2120FFF735FC0346CC
:10231000002B21D100212620FFF72EFC0346002BA5
:102320001AD147F23050FFF771FB0346002B13D050
:10233000002387F82F300FE0042387F82F300CE0BC
:1023400000BF0AE000BF08E000BF06E000BF04E0F5
:1023500000BF02E000BF00E000BFFFF779FB97F885
:102360002F3018463037BD4680BD00BFC400002066
:10237000D00A00200030014080B584B000AF786002
:1023800039600023FB6013E000BF40210D48FEF7D9
:1023900061F80346002BF8D0FB687A6813441B7879
:1023A0009BB219460748FEF733F8FB680133FB6020
:1023B000FA683B689A42E7DB3B6818461037BD462F
:1023C00080BD00BF0048004080B584B000AFFF234F
:1023D0003B71AA237B71AD23BB71ED23FB713B1DC8
:1023E00004211846FFF7C8FF042318461037BD46DE
:1023F00080BD00BF80B584B000AFFF233B71AA232E
:102400007B71CD23BB71ED23FB713B1D042118466D
:10241000FFF7B2FF042318461037BD4680BD00BF4A
:1024200080B588B000AF7860FF233B73AA237B732D
:10243000CD23BB737B6893F82430FB737B6893F8E0
:1024400025303B747B68DB787B747B681B79BB74BD
:102450007B685B79FB747B681B783B757B685B787A
:102460007B75ED23BB7507F10C030A211846FFF7B6
:1024700083FF0A2318462037BD4680BD90B585B03E
:1024800000AF786039600023FB6013E000BF2021BB
:102490000D48FDF7DFFF0346002BF8D0FB687A6894
:1024A000D4180948FDF7C6FF0346DBB22370FB686A
:1024B0000133FB60FA683B689A42E7DB0023184669
:1024C0001437BD4690BD00BF004C004090B591B0A0
:1024D00000AF78603960A749386807F0CFF9B86372
:1024E000BB6B002B02D14FF0FF338AE22A21B86B7D
:1024F00006F040FF78637B6B002B02D14FF0FF3377
:102500007FE2BB6BFB632C21F86B06F033FF0346C5
:102510000133FB63F86B06F05FFB03460C4618467D
:10252000214606F009FB03463B63D7ED0C7AFCEE2F
:10253000E77A17EE903AFB62FB6A8F4AA2FB03230D
:102540005B0BDAB27B681A70FA6A8B4BA3FB02133F
:102550005B0B42F2107101FB03F3D31A874AA2FB13
:1025600003235B09DAB27B685A70FA6A834BA3FBD8
:1025700002135B09642101FB03F3D31ADAB27B680F
:102580009A70FB6A07EE903AF8EE677A97ED0C7A4C
:1025900077EE677A9FED7A7A67EE877AFDEEE77AD3
:1025A00017EE902A7B689A602C21F86B06F0E2FE09
:1025B00003460133FB63FB6B1B78412B04D17B6823
:1025C000412283F827200BE0FB6B1B78562B04D1AC
:1025D0007B68562283F8272002E04FF0FF3310E299
:1025E0002C21F86B06F0C6FE03460133FB63FB6B40
:1025F0001B782C2B00F0888007F10C030222F96B6A
:10260000184606F0ABFFFB6B0233FB630023BB7382
:1026100007F10C03184606F0E3FA0246594B03FB98
:1026200002F3BB6207F10C030222F96B184606F0B5
:1026300095FFFB6B0333FB6307F10C0302330422AA
:10264000F96B184606F08AFF0023BB7407F10C03F0
:10265000184606F0C5FA0246322303FB02F34A4A43
:1026600082FB0312DB17D31A7B62BA6A7B6A1A44B5
:102670007B689A62BB6A454A82FB03125213DB17DE
:10268000D31A07EE903AB8EEE77A7B6A07EE903AF3
:10269000F8EEE77ADFED3E6A67EEA67A77EE277A04
:1026A0007B68C3ED037A7B6893ED037A7B68D3ED97
:1026B000036A9FED386AC6EE867AFDEEE77A17EE7A
:1026C000902A642303FB02F307EE903AF8EEE77AD0
:1026D00037EE677ADFED306AC7EE267A7B68C3EDA6
:1026E0000C7A7B6893ED0C7A7B68D3ED036A9FEDDF
:1026F000296AC6EE867AFDEEE77AF8EEE77A77EE9B
:10270000277A7B68C3ED0C7A2C21F86B06F032FE39
:1027100003460133FB63FB6B1B782C2B3ED0FB6B1A
:102720001B78532B07D17B68D3ED0C7AF1EE677AD7
:102730007B68C3ED0C7AFB6B1B784E2B04D17B6856
:102740004E2283F8242029E0FB6B1B78532B04D105
:102750007B68532283F8242020E0FB6B1B782C2B12
:1027600004D17B68002283F8242017E04FF0FF3368
:1027700047E100BF08C700085917B7D11F85EB51C3
:1027800000007A44809698005655555589B5F8143E
:102790009C53C9360000C842000070422C21F86BDF
:1027A00006F0E8FD03460133FB63FB6B1B782C2B23
:1027B00000F0888007F10C030322F96B184606F03D
:1027C000CDFEFB6B0333FB630023FB7307F10C03AC
:1027D000184606F005FA02468C4B03FB02F33B62F7
:1027E00007F10C030222F96B184606F0B7FEFB6BEB
:1027F0000333FB6307F10C0302330422F96B184621
:1028000006F0ACFE0023BB7407F10C03184606F07B
:10281000E7F90246322303FB02F37D4A82FB0312EF
:10282000DB17D31AFB613A6AFB691A447B68DA62E8
:102830003B6A784A82FB03125213DB17D31A07EE66
:10284000903AB8EEE77AFB6907EE903AF8EEE77A4D
:10285000DFED716A67EEA67A77EE277A7B68C3EDC3
:10286000047A7B6893ED047A7B68D3ED046A9FED6C
:102870006B6AC6EE867AFDEEE77A17EE902A64233D
:1028800003FB02F307EE903AF8EEE77A37EE677A49
:10289000DFED636AC7EE267A7B68C3ED0D7A7B684D
:1028A00093ED0D7A7B68D3ED046A9FED5C6AC6EE0A
:1028B000867AFDEEE77AF8EEE77A77EE277A7B689C
:1028C000C3ED0D7A2C21F86B06F054FD034601335D
:1028D000FB63FB6B1B782C2B29D0FB6B1B78572BD6
:1028E00007D17B68D3ED0D7AF1EE677A7B68C3ED93
:1028F0000D7AFB6B1B78572B04D17B68572283F82A
:10290000252014E0FB6B1B78452B04D17B68452206
:1029100083F825200BE0FB6B1B782C2B04D17B6804
:10292000002283F8252002E04FF0FF3369E02C21DC
:10293000F86B06F01FFD03460133FB63FB6B1B784E
:102940002C2B0BD0F86B06F047F903460C461846C3
:10295000214606F0F1F802467B685A612C21F86B9B
:1029600006F008FD03460133FB63FB6B1B782C2B41
:102970000BD0F86B06F030F903460C46184621469A
:1029800006F0DAF802467B689A612C21F86B06F0B3
:10299000F1FC03460133FB63FB6B1B782C2B2FD020
:1029A000F86B06F019F903460C461846214606F066
:1029B000A3F80346BB61BB691A4AA2FB03235B0B66
:1029C000DAB27B685A71BA69164BA3FB02135B0B30
:1029D00042F2107101FB03F3D31A134AA2FB032343
:1029E0005B09DAB27B681A71BA690F4BA3FB021359
:1029F0005B09642101FB03F3D31ADAB27B68DA7056
:102A0000012318464437BD4690BD00BF809698000C
:102A10005655555589B5F8149C53C9360000C8421F
:102A2000000070425917B7D11F85EB5180B483B0B5
:102A300000AF03463960FB7197F90730002B0BDAC2
:102A40000D49FB7903F00F03043B3A68D2B212013F
:102A5000D2B20B441A7609E0084997F907303A6870
:102A6000D2B21201D2B20B4483F8002300BF0C375C
:102A7000BD465DF8047B704700ED00E000E100E03A
:102A800080B582B000AF78607B68B3F1807F01D3FE
:102A9000012311E00A4A7B6823F07F43013B536026
:102AA0000F214FF0FF30FFF7C1FF054B00229A6066
:102AB000034B07221A60002318460837BD4680BD25
:102AC00010E000E080B582B000AF3C4B1B680133E2
:102AD0003A4A13603A4B1B68002B04D0384B1B68F2
:102AE000013B374A136000F08DFA0346002B03D0F8
:102AF000344B4FF080521A60AFF300800023FB711B
:102B000052E0FB79304A9B0013445B68002B48D0AD
:102B1000FB792D4A9B0013445B681B7B002B40D044
:102B2000FB79294A9B0013445B689B68002B38D0D3
:102B3000FB79254A9B0013445B689A68013A9A60C6
:102B4000FB79214A9B0013445B689B68002B28D1CA
:102B5000FB791D4A9B0013445B681A69FB791A498B
:102B60009B000B445B685B6918469047FB79164AEB
:102B70009B0013445A68FB7913499B000B445B6824
:102B80001B689360FB79104A9B0013445B685B6889
:102B9000002B06D1FB790C4A9B0013445B68002292
:102BA0001A73FB790133FB71074B1B78FA799A4250
:102BB000A7D300BF0837BD4680BD00BFD80A00209C
:102BC000DC0A002004ED00E0E40A002080B500AF3C
:102BD0000D4B1B680D4AA2FB03239B091846FFF708
:102BE0004FFF0346002B00D0FEE7074B1B689B09F5
:102BF000074AA2FB03239B0A064A1360064B0122E5
:102C00001A7000BF80BD00BFCC000020D34D621001
:102C100017916502D4380120E00A002080B58AB0FF
:102C200002AFF860B9603B601346FB80FB68002B85
:102C300002D101F045FDFEE7BB6A042B02D901F089
:102C40003FFDFEE7FB88396B184600F021FDB861B7
:102C5000BB69002B72D0BB691A6BFB8803F1804300
:102C6000013B9B0013447B617B6923F007037B617D
:102C70007B6903F00703002B02D001F021FDFEE782
:102C8000FB8800937B6BBA6AB968B86900F004FCF2
:102C90003A68F968786901F009FC0246BB691A6074
:102CA000FB6A002B02D0FB6ABA691A6001F0DCFCF7
:102CB0002E4B1B6801332D4A13602D4B1B68002BD4
:102CC00009D12B4ABB691360284B1B68012B0FD11C
:102CD00000F02CFC0CE0274B1B68002B08D1244B88
:102CE0001B68DA6ABB6A9A4202D8214ABB69136040
:102CF000214B1B680133204A13601F4B1A68BB69C4
:102D00001A64BB69DA6A1D4B1B689A4203D9BB6916
:102D1000DB6A1A4A1360BB69DA6A13469B001344E4
:102D20009B00174A1A44BB6904331946104601F048
:102D300031F90123FB6101F0A9FC02E04FF0FF3300
:102D4000FB61FB69012B0BD10A4B1B68002B07D0E1
:102D5000074B1B68DA6ABB6A9A4201D201F072FC27
:102D6000FB6918462037BD4680BD00BFD40B00204C
:102D7000FC0A0020E00B0020F40B0020DC0B0020FC
:102D8000000B002080B586B000AF7860396000236A
:102D90007B617B68002B02D101F092FCFEE73B686F
:102DA000002B02D101F08CFCFEE7244B1B68002BAA
:102DB00002D001F085FCFEE700F07EF8204B1B6896
:102DC0003B617B681A683B681344FB607B681A6848
:102DD0003B699A420BD97B681A68FB689A4211D901
:102DE000FA683B699A420DD901237B610AE07B684E
:102DF0001A68FB689A4203D8FA683B699A4201D97B
:102E000001237B617B68FA681A607B69002B08D01C
:102E10000C4B1B680433184601F01AF9F86800F0EF
:102E200001FC00F057F8B860BB68002B01D101F03D
:102E300009FC00BF1837BD4680BD00BFE40B002071
:102E4000D80B0020FC0A002080B586B004AF002318
:102E50000393002302930023019300230093002394
:102E6000822211491148FFF7D9FE78607B68012B57
:102E700002D1FEF7D5F978607B68012B0AD101F009
:102E80001FFC0B4B01221A600A4B00221A6001F052
:102E900071FB05E07B68002B02D101F011FCFEE71D
:102EA00000BF0837BD4680BD10C700087934000850
:102EB000E00B0020D80B002080B400AF044B1B684F
:102EC0000133034A136000BFBD465DF8047B7047C1
:102ED000E40B002080B582B000AF00237B60384B4C
:102EE0001B68002B02D101F0EBFBFEE701F0BCFBFD
:102EF000334B1B68013B324A1360314B1B68002B7C
:102F000056D1304B1B68002B52D02FE02E4BDB6884
:102F1000DB683B603B681833184601F099F83B6862
:102F20000433184601F094F83B68DA6A274B1B68B3
:102F30009A4203D93B68DB6A244A13603B68DA6A29
:102F400013469B0013449B00214A1A443B680433F8
:102F50001946104601F01EF83B68DA6A1D4B1B68E3
:102F6000DB6A9A4202D31C4B01221A60164B1B6883
:102F7000002BCBD1194B1B68002B11D00CE000F0BB
:102F800041F80346002B02D0134B01221A60134B69
:102F90001B68013B114A1360104B1B68002BEED1DC
:102FA0000D4B1B68012B03D101237B6001F04AFB11
:102FB00001F06CFB7B6818460837BD4680BD00BF3A
:102FC000E40B0020D40B0020940B0020DC0B00202D
:102FD000000B0020FC0A0020EC0B0020E80B002076
:102FE00080B582B000AF01F03FFB054B1B687B60F2
:102FF00001F04CFB7B6818460837BD4680BD00BF1A
:10300000D80B002080B586B000AF00237B614E4B0B
:103010001B68002B40F087804C4B1B6801334B4AE8
:1030200013604A4B1B683B613B69002B18D1484B2E
:103030001B681B68002B02D001F042FBFEE7444BEB
:103040001B68FB60434B1B68414A1360414AFB68A5
:103050001360414B1B6801333F4A136000F05AFB79
:103060003E4B1B683A699A424ED3394B1B681B682A
:10307000002B01D1012300E00023002B04D0374BAB
:103080004FF0FF321A603FE0314B1B68DB68DB68B2
:10309000BB60BB685B687B603A697B689A4203D21D
:1030A0002E4A7B6813602FE0BB680433184600F09B
:1030B000CFFFBB689B6A002B04D0BB68183318464F
:1030C00000F0C6FFBB68DA6A254B1B689A4203D939
:1030D000BB68DB6A224A1360BB68DA6A13469B004E
:1030E00013449B001F4A1A44BB6804331946104618
:1030F00000F050FFBB68DA6A1B4B1B68DB6A9A4220
:10310000B3D301237B61B0E7174B1B68DA6A15491B
:1031100013469B0013449B000B441B68012B07D9EB
:1031200001237B6104E0114B1B6801330F4A1360DC
:103130000F4B1B68002B01D001237B617B69184674
:103140001837BD4680BD00BFE40B0020D80B00201F
:103150008C0B0020900B0020F00B0020C8000020FA
:10316000DC0B0020000B0020FC0A0020E80B0020F4
:10317000EC0B002080B582B000AF224B1B68002B07
:1031800003D0214B01221A6038E01F4B00221A6045
:103190000BE01E4B1B68002B02D101F091FAFEE7F9
:1031A0001A4B1B68013B194A1360184B1A681849DF
:1031B00013469B0013449B000B441B68002BE8D074
:1031C000124B1A6813469B0013449B00104A134489
:1031D0007B607B685B685A687B685A607B685A686A
:1031E0007B6808339A4204D17B685B685A687B68C5
:1031F0005A607B685B68DB68064A136000BF08376B
:10320000BD4680BDE40B0020EC0B0020DC0B002051
:10321000000B0020FC0A002080B584B000AF78606D
:1032200039607B68002B02D101F04AFAFEE7124BAD
:103230001B6818331946786800F0D0FE0E4B1B68E7
:103240000433184600F004FF3B68B3F1FF3F07D199
:10325000094B1B6804331946084800F09BFE07E041
:10326000074B1A683B681344FB60F86800F0DAF912
:1032700000BF1037BD4680BDFC0A0020C00B0020F7
:10328000D80B002080B584B000AF786039607B68CF
:10329000002B02D101F014FAFEE70C4B1B68183327
:1032A0001946786800F076FE084B1B680433184610
:1032B00000F0CEFE064B1A683B681344FB60F868CA
:1032C00000F0B0F900BF1037BD4680BDFC0A0020F9
:1032D000D80B002080B584B000AF78607B68DB68D5
:1032E000DB68BB60BB68002B02D101F0E9F9FEE7A7
:1032F000BB681833184600F0ABFE1E4B1B68002B52
:103300001DD1BB680433184600F0A2FEBB68DA6A20
:10331000194B1B689A4203D9BB68DB6A164A1360D3
:10332000BB68DA6A13469B0013449B00134A1A4495
:10333000BB6804331946104600F02CFE05E0BB685C
:10334000183319460E4800F025FEBB68DA6A0D4BAB
:103350001B68DB6A9A4205D90123FB600A4B0122F4
:103360001A6001E00023FB60FB6818461037BD4679
:1033700080BD00BFE40B0020DC0B0020000B002010
:10338000940B0020FC0A0020EC0B002080B582B0DA
:1033900000AF78607B68002B02D101F091F9FEE765
:1033A000054B1A687B681A60044B1A687B685A6080
:1033B00000BF0837BD4680BDF00B0020D80B0020B1
:1033C00080B584B000AF786039607B68002B02D193
:1033D00001F076F9FEE73B68002B02D101F070F9AD
:1033E000FEE701F041F91C4B1B68BB603B681B68A2
:1033F000B3F1FF3F02D10023FB6026E07B681A682F
:10340000164B1B689A4207D07B685A68BB689A4281
:1034100002D80123FB6018E07B685B68BA68D21AA7
:103420003B681B689A420ED23B681A687B685968F1
:10343000BB68CB1A1A443B681A607868FFF7A6FF8E
:103440000023FB6001E00123FB6001F01FF9FB6832
:1034500018461037BD4680BDD80B0020F00B002069
:1034600080B400AF034B01221A6000BFBD465DF877
:10347000047B7047EC0B002080B582B000AF786011
:1034800000F094F8034B1B68012BF9D901F0DAF82E
:10349000F6E700BF000B002080B586B000AFF860F3
:1034A000B9607A603B6000237B6112E0BA687B6997
:1034B00013441978FA687B69134434330A461A7046
:1034C000BA687B6913441B78002B06D07B690133F3
:1034D0007B617B69092BE9D900E000BFFB68002212
:1034E00083F83D207B68042B01D904237B60FB68B3
:1034F0007A68DA62FB687A689A64FB680433184673
:1035000000F03AFDFB681833184600F035FDFB6803
:10351000FA681A617B68C3F10502FB689A61FB686F
:10352000FA685A6200BF1837BD4680BD80B582B0C8
:1035300000AF00237B600CE07A6813469B001344C5
:103540009B00124A1344184600F0F6FC7B680133D6
:103550007B607B68042BEFD90D4800F0EDFC0D4833
:1035600000F0EAFC0C4800F0E7FC0C4800F0E4FC3A
:103570000B4800F0E1FC0B4B054A1A600A4B054A68
:103580001A6000BF0837BD4680BD00BF000B002099
:10359000640B0020780B0020940B0020A80B002067
:1035A000C00B00208C0B0020900B002080B582B057
:1035B00000AF28E0FFF780FC174B1B68002B0CBF07
:1035C00001230023DBB27B60FFF784FC7B68002BC8
:1035D00019D101F049F8104BDB68DB683B603B68B0
:1035E0000433184600F034FD0C4B1B68013B0B4ABA
:1035F00013600B4B1B68013B094A136001F046F84E
:10360000386800F077F8064B1B68002BD2D100BF5A
:103610000837BD4680BD00BFA80B0020D40B00209A
:10362000BC0B002080B582B000AF7860134B1B68E4
:103630007A685A60124B1B687A689A4209D2114B19
:103640001A680E4B1B6804331946104600F0C6FC7E
:1036500010E00D4B1A68094B1B68043319461046DD
:1036600000F0BCFC094B1B687A689A4202D2074AF8
:103670007B68136000BF0837BD4680BDFC0A002090
:10368000D80B0020900B00208C0B0020C8000020DD
:1036900080B584B000AF03463960FB804C2004F055
:1036A0000DFEF860FB68002B1ED03B68002B06D196
:1036B000FB889B00184604F001FE034600E03B68CF
:1036C000FA681363FB681B6B002B05D1F86804F0E4
:1036D0003BFE0023FB6007E0FB68186BFB889B0048
:1036E0001A46A52105F0E2FDFB6818461037BD46D5
:1036F00080BD00BF80B582B000AF78607B681B6B77
:10370000184604F021FE786804F01EFE00BF08375A
:10371000BD4680BD80B483B000AF0F4B1B681B68F3
:10372000002B01D1012300E00023002B04D00B4B20
:103730004FF0FF321A6008E0074B1B68DB68DB685C
:103740007B607B685B68054A136000BF0C37BD4631
:103750005DF8047B704700BF8C0B0020C800002080
:1037600080B483B000AF054B1B687B607B68184654
:103770000C37BD465DF8047B704700BFFC0A002093
:1037800080B483B000AF0B4B1B68002B02D1012328
:103790007B6008E0084B1B68002B02D102237B6092
:1037A00001E000237B607B6818460C37BD465DF85E
:1037B000047B7047E00B0020E40B002080B584B050
:1037C00000AF78607B68FB607B68002B4AD0FB68A9
:1037D000DA6A264B1B68DB6A9A4243D2FB689B6914
:1037E000002B06DB214B1B68DB6AC3F10502FB687B
:1037F0009A61FB685969FB68DA6A13469B001344B7
:103800009B001B4A1344994201D1012300E000238D
:10381000002B22D0FB680433184600F019FC134B30
:103820001B68DA6AFB68DA62FB68DA6A114B1B68AC
:103830009A4203D9FB68DB6A0E4A1360FB68DA6AB6
:1038400013469B0013449B00094A1A44FB68043347
:103850001946104600F09EFB04E0044B1B68DA6A30
:10386000FB68DA6200BF1037BD4680BDFC0A00204D
:10387000000B0020DC0B002080B584B000AF786026
:103880007B68FB607B68002B30D0FB68DA6AFB68E2
:103890009B6C9A422AD0FB680433184600F0D8FB90
:1038A000FB689A6CFB68DA62FB689B69002B05DB9E
:1038B000FB68DB6AC3F10502FB689A61FB68DA6AA0
:1038C0000C4B1B689A4203D9FB68DB6A094A1360F8
:1038D000FB68DA6A13469B0013449B00064A1A44AD
:1038E000FB6804331946104600F054FB00BF103744
:1038F000BD4680BDDC0B0020000B002080B582B0EF
:1039000000AF7860786805F06FF90346184608370D
:10391000BD4680BD80B582B000AF7860786805F0A4
:103920006BF900BF0837BD4680BD00BF80B584B0CD
:1039300002AF78600B46FB707B68184A93420AD14D
:10394000F978002301934FF482730093202300221F
:10395000124800F0C5F87B68114A93420AD1F97801
:10396000002301934FF482730093202300220C481C
:1039700000F0B6F87B680B4A93420AD1F97800232D
:1039800001934FF48273009320230022054800F036
:10399000A7F800BF0837BD4680BD00BF003001401A
:1039A00000380040003C004080B487B000AFF860B1
:1039B000B9607A60FB681B889BB203F04003002B60
:1039C00031D000BFFB681B899BB203F00303002BBF
:1039D000F8D0FB681B899BB203F08003002BF1D168
:1039E00000237B611AE0BA687B6913441B789AB2A2
:1039F000FB689A8100BFFB681B899BB203F003033D
:103A0000002BF8D0FB681B899BB203F08003002BCE
:103A1000F1D1FB689B897B6901337B617A697B68A3
:103A20009A42E0D300E000BF1C37BD465DF8047B3E
:103A3000704700BF80B487B000AFF860B9603B60EA
:103A40001346FB71FB681B889BB203F04003002BFD
:103A500034D000BFFB681B899BB203F00303002B2B
:103A6000F8D0FB681B899BB203F08003002BF1D1D7
:103A700000237B611DE0FB799AB2FB689A8100BF4D
:103A8000FB681B899BB203F00303002BF8D0FB6893
:103A90001B899BB203F08003002BF1D1BA687B69CC
:103AA0001344FA68928992B2D2B21A707B690133D8
:103AB0007B617A693B689A42DDD300E000BF1C3726
:103AC000BD465DF8047B704780B483B000AF78607A
:103AD0000B467B8000BF0C37BD465DF8047B70470A
:103AE00080B588B000AF7860084611461A46034694
:103AF000FB700B46BB7013463B8007F10C03184666
:103B000004F060FA7B68394A93420BD1384A384B4B
:103B10005B6C43F480535364FB78184600F06EF8F6
:103B200000233B827B68334A93420BD1304A304BAF
:103B30001B6C43F480431364FB78184600F08EF846
:103B400000233B827B682C4A93420BD1284A284BA6
:103B50001B6C43F400431364FB78184600F0CAF86A
:103B600000233B823B883B830023BB81BB8D7B834F
:103B70003B8DFB814FF40073FB82BB78002B04D19B
:103B800000237B820023BB8216E0BB78012B04D18B
:103B900000237B820123BB820EE0BB78022B04D181
:103BA00002237B820023BB8206E0BB78032B03D178
:103BB00002237B820123BB827B681B889BB223F09C
:103BC00040039AB27B681A8007F10C0319467868A3
:103BD00004F0B4F97B681B889BB243F040039AB2AF
:103BE0007B681A8000BF2037BD4680BD0030014091
:103BF0000038024000380040003C004080B584B0EE
:103C000002AF0346FB71FB79002B09D10523019319
:103C10000323009300230022E0210D4804F04AFA18
:103C2000FB79012B09D10523019303230093002382
:103C300000223821074804F03DFAFB79032B03D119
:103C400005210548FFF740FF00BF0837BD4680BD8E
:103C500000000240000402400030014080B584B002
:103C600002AF0346FB71FB79002B14D105230193AE
:103C700003230093002300224FF48061194804F0CD
:103C800019FA0523019303230093002300220C213A
:103C9000154804F00FFAFB79012B0AD10523019393
:103CA00003230093002300224FF460410D4804F0E9
:103CB00001FAFB79022B09D1052301930323009319
:103CC000002300220D21094804F0F4F9FB79032BAD
:103CD00003D105210648FFF7F7FE00BF0837BD46B0
:103CE00080BD00BF000402400008024000200240E6
:103CF0000038004080B584B002AF0346FB71FB7909
:103D0000002B09D1062301930323009300230022F3
:103D100038210E4804F0CEF9FB79012B0AD1062395
:103D2000019303230093002300224FF4E05108483D
:103D300004F0C0F9FB79032B03D106210548FFF7F6
:103D4000C3FE00BF0837BD4680BD00BF000402406F
:103D500000080240003C004080B487B000AF7860AB
:103D6000396000237B6100233B610023FB6000235B
:103D70007B6176E001227B6902FA03F33B613B68D9
:103D80001A683B691340FB60FA683B699A4265D147
:103D90007B681A687B695B00032101FA03F3DB434C
:103DA0001A407B681A607B681A683B681B79194661
:103DB0007B695B0001FA03F31A437B681A603B6876
:103DC0001B79012B03D03B681B79022B2ED17B681A
:103DD0009A687B695B00032101FA03F3DB431A4015
:103DE0007B689A607B689A683B685B7919467B6957
:103DF0005B0001FA03F31A437B689A607B685A6898
:103E00007B699BB2194601238B40DB431A407B68D8
:103E10005A607B685B683A68927911467A6992B217
:103E200001FA02F292B21A437B685A607B68DA6840
:103E30007B699BB25B00032101FA03F3DB431A4069
:103E40007B68DA607B68DA683B68DB7919467B69F6
:103E50005B0001FA03F31A437B68DA607B69013384
:103E60007B617B690F2B85D900BF1C37BD465DF890
:103E7000047B704780B483B000AF78600B467B80D2
:103E800013467B707B78002B03D07B687A881A837B
:103E900002E07B687A885A8300BF0C37BD465DF824
:103EA000047B704780B485B000AF78600B467B80A0
:103EB00013467B700023FB600023BB607A787B880D
:103EC00003F007039B0002FA03F3FB607B88DB0827
:103ED0009BB218467B88DB089BB21A467B68083287
:103EE00053F822207B8803F007039B000F2101FA7F
:103EF00003F3DB4302EA03017B6800F1080243F8A5
:103F000022107B88DB089BB21A467B68083253F884
:103F10002220FB681343BB607B88DB089BB21A46F8
:103F20007B680832B96843F8221000BF1437BD46D9
:103F30005DF8047B704700BF80B483B000AF786049
:103F40007B6803F108027B685A607B684FF0FF32A0
:103F50009A607B6803F108027B68DA607B6803F192
:103F600008027B681A617B6800221A6000BF0C3768
:103F7000BD465DF8047B704780B483B000AF7860C5
:103F80007B6800221A6100BF0C37BD465DF8047BD8
:103F9000704700BF80B485B000AF786039607B683F
:103FA0005B68FB603B68FA685A60FB689A683B682C
:103FB0009A60FB689B683A685A60FB683A689A6046
:103FC0003B687A681A617B681B685A1C7B681A60B8
:103FD00000BF1437BD465DF8047B704780B485B0E0
:103FE00000AF786039603B681B68BB60BB68B3F1A9
:103FF000FF3F03D17B681B69FB600CE07B680833E3
:10400000FB6002E0FB685B68FB60FB685B681A684A
:10401000BB689A42F6D9FB685A683B685A603B68AD
:104020005B683A689A603B68FA689A60FB683A682D
:104030005A603B687A681A617B681B685A1C7B6807
:104040001A6000BF1437BD465DF8047B704700BF9F
:1040500080B485B000AF78607B681B69FB607B68CB
:104060005B687A6892689A607B689B687A68526835
:104070005A60FB685A687B689A4203D17B689A68E9
:10408000FB685A607B6800221A61FB681B685A1E35
:10409000FB681A60FB681B6818461437BD465DF85C
:1040A000047B704780B500AF164A164BD3F88830B2
:1040B00043F47003C2F88830134A134B1B6843F073
:1040C00001031360104B00229A600F4A0E4B1B68CD
:1040D00023F0847323F4803313600B4B0B4A5A6034
:1040E000094A094B1B6823F480231360064B002206
:1040F000DA6000F00DF8034B4FF000629A6000BFE9
:1041000080BD00BF00ED00E0003802401030002408
:1041100080B483B000AF00237B6000233B60364A4D
:10412000354B1B6843F480331360334B1B6803F437
:1041300000333B607B6801337B603B68002B03D11D
:104140007B68B3F5A06FF0D12B4B1B6803F40033F1
:10415000002B02D001233B6001E000233B603B6861
:10416000012B42D1244A244B1B6C43F0805313642F
:10417000224A224B1B6843F4804313601E4A1E4BA5
:104180009B6893601C4A1C4B9B6843F400439360FC
:10419000194A194B9B6843F4A0539360164B184A75
:1041A0005A60154A144B1B6843F08073136000BFBC
:1041B000114B1B6803F00073002BF9D0114B40F238
:1041C00005621A600C4A0C4B9B6823F00303936052
:1041D000094A094B9B6843F00203936000BF064BFA
:1041E0009B6803F00C03082BF9D100BF0C37BD46C8
:1041F0005DF8047B704700BF00380240007000404B
:1042000008544007003C024080B582B000AF142340
:10421000012202210648FDF783FA0548FDF74AFB13
:1042200003467B607B6818460837BD4680BD00BFEB
:104230000020014080B582B000AF14230122042188
:104240000648FDF76DFA0548FDF734FB03467B6031
:104250007B6818460837BD4680BD00BF002001407E
:1042600080B582B000AF1423012208210648FDF773
:1042700057FA0548FDF71EFB03467B607B6818462E
:104280000837BD4680BD00BF0020014080B584B026
:1042900000AFFFF7B9FFF860FFF7CCFFB860FFF79A
:1042A000DFFF7860FB68092B03DDFB68B3F57A7FDD
:1042B00001DD012306E0BB68B3F57A7F01DD02234F
:1042C00000E0002318461037BD4680BD80B483B09F
:1042D00000AF78600B46FB707B681B889BB203F0D5
:1042E0004003002B01D1002325E000BF7B681B8920
:1042F0009BB203F00303002BF8D07B681B899BB2B1
:1043000003F08003002BF1D1FB789AB27B689A818D
:1043100000BF7B681B899BB203F00303002BF8D01E
:104320007B681B899BB203F08003002BF1D17B6873
:104330009B899BB2DBB218460C37BD465DF8047B07
:10434000704700BF80B584B000AF03460A46FB71DA
:104350001346BB71FB79184600F096F80346FB73D1
:10436000FA7BBB791340FB73FB7B18461037BD46C5
:1043700080BD00BF80B500AF0121042000F06EF8C1
:1043800000BF80BD80B500AF0221042000F066F8B8
:1043900000BF80BD80B500AF0121042000F05EF8B1
:1043A00000BF80BD80B500AF3C210248FFF78EFF03
:1043B00000BF80BD0038004080B500AF00224FF440
:1043C00080510248FFF756FD00BF80BD0004024047
:1043D00080B500AF01224FF480510248FFF74AFD3B
:1043E00000BF80BD0004024080B582B000AF78609D
:1043F0003960FFF7E1FF7B68DBB219460748FFF73A
:1044000065FF3B68DBB219460448FFF75FFFFFF723
:10441000DFFF012318460837BD4680BD0038004045
:1044200080B584B000AF78600023FB73FFF7C4FF52
:104430007B68DBB219460848FFF748FF00210648B1
:10444000FFF744FF0346FB73FFF7C2FFFB7B1846F1
:104450001037BD4680BD00BF0038004080B582B037
:1044600000AF03460A46FB711346BB71FB7963F04C
:104470007F03DBB21A46BB7919461046FFF7B4FF3B
:1044800000BF0837BD4680BD80B584B000AF03468D
:10449000FB71FB7903F07F031846FFF7C1FF03466A
:1044A000FB73FB7B18461037BD4680BD80B485B0DA
:1044B00000AFF860B9607A60FB68043BFB60FB68A2
:1044C0004FF080721A60FB68043BFB60BA68FB68BF
:1044D0001A60FB68043BFB600C4AFB681A60FB68CF
:1044E000143BFB607A68FB681A60FB68043BFB6066
:1044F000FB686FF002021A60FB68203BFB60FB6800
:1045000018461437BD465DF8047B70471145000816
:1045100080B500AF054B1B68B3F1FF3F02D000F040
:10452000CFF8FEE700F0CCF8FEE700BFE000002087
:10453000064B19680868B0E8F04F80F30988BFF3AC
:104540006F8F4FF0000080F311887047FC0A002045
:1045500000BF00BF06480068006880F3088862B6A4
:10456000BFF34F8FBFF36F8F00DF00BF00BF0000AE
:1045700008ED00E080B584B000AF2C4BFB60FB6819
:104580001B78DBB2BB60FB68FF221A70FB681B78EC
:10459000DBB2FB71FB79DBB203F05003DAB2244BE0
:1045A0001A70244B07221A6009E0224B1B68013B5A
:1045B000204A1360FB79DBB25B00DBB2FB71FB7955
:1045C000DBB25BB2002BF0DB1A4B1B681B02194AF3
:1045D0001360184B1B6803F4E063164A1360BB6852
:1045E000DAB2FB681A70144A134B1B6843F4700369
:1045F0001360114A104B1B6843F07043136000F0C6
:104600009BF80E4B00221A6000F0B2F80C4A0C4BDB
:104610001B6843F040431360FFF79CFFFFF778FFF0
:10462000002318461037BD4680BD00BF00E400E0FF
:10463000F80B0020FC0B002020ED00E0E000002043
:1046400034EF00E080B400AF064B4FF080521A60A8
:10465000BFF34F8FBFF36F8F00BFBD465DF8047B84
:10466000704700BF04ED00E080B500AF00F028F80F
:10467000054B1B680133044A1360BFF34F8FBFF330
:104680006F8F00BF80BD00BFE000002080B500AF8D
:104690000A4B1B68002B02D100F012F8FEE7074B13
:1046A0001B68013B054A1360044B1B68002B02D1B9
:1046B000002000F00FF800BF80BD00BFE000002028
:1046C000EFF311804FF0500181F311887047002300
:1046D000184600BF80F31188704700BFEFF30980D0
:1046E000BFF36F8F124B1A681EF0100F08BF20ED3A
:1046F000108A20E9F04F10604DF8043D4FF0500053
:1047000080F31188FEF736FD4FF0000080F311882A
:1047100008BC19680868B0E8F04F1EF0100F08BF19
:10472000B0EC108A80F30988BFF36F8F704700BF29
:10473000FC0A002000BF00BF80B400AF084A094B4C
:104740001B680949A1FB03139B09013B1360074B3D
:1047500007221A6000BFBD465DF8047B704700BFAA
:1047600014E000E0CC000020D34D621010E000E027
:10477000DFF80C00016841F470010160704700BF70
:1047800088ED00E080B582B000AFEFF305837B6079
:104790007B680F2B0CD90E4A7B6813441B78FB7087
:1047A0000C4B1B78FA789A4202D2FFF789FFFEE79A
:1047B000094B1B6803F4E062084B1B689A4202D95C
:1047C000FFF77EFFFEE700BF0837BD4680BD00BF94
:1047D000F0E300E0F80B00200CED00E0FC0B002003
:1047E00080B584B000AF786039607B68FB60FB689F
:1047F000002B02D1FFF764FFFEE7FFF735FFFB68F0
:104800001A68FB68DB6BF968096C01FB03F31A4457
:10481000FB685A60FB6800229A63FB681A68FB68B1
:104820009A60FB681A68FB68DB6B013BF968096CEE
:1048300001FB03F31A44FB68DA60FB684FF0FF32B8
:104840005A64FB684FF0FF329A643B68002B0ED12C
:10485000FB681B69002B14D0FB6810331846FEF769
:1048600039FD0346012B0CD1FFF7ECFE09E0FB6894
:1048700010331846FFF760FBFB6824331846FFF738
:104880005BFBFFF703FF012318461037BD4680BDD1
:1048900080B588B000AFF860B9601346FB710023A3
:1048A000FB61FB68002B2AD0542003F007FDB861A0
:1048B000BB69002B23D0FB68BA6802FB03F301330A
:1048C0007B61786903F0FAFC0246BB691A60BB6938
:1048D0001B68002B10D0BB69FA68DA63BB69BA6841
:1048E0001A640121B869FFF77BFFBB69FA7983F885
:1048F0005020BB69FB6102E0B86903F025FDFB694C
:10490000002B02D1FFF7DCFEFEE7FB6918462037DB
:10491000BD4680BD80B584B000AF0346FB71542016
:1049200003F0CCFCF860FB68002B30D0FB68002261
:104930005A60FB6800221A60FB6800229A60FB68DC
:104940000022DA60FB6800229A63FB680122DA63C6
:10495000FB6800221A64FB684FF0FF325A64FB6860
:104960004FF0FF329A64FB68FA7983F85020FB68B5
:1049700010331846FFF7E0FAFB6824331846FFF7B8
:10498000DBFA002300220021F86800F00BF8FB6836
:10499000002B02D1FFF794FEFEE7FB6818461037A4
:1049A000BD4680BD80B588B000AFF860B9607A6060
:1049B0003B600023FB61FB68BB61BB69002B02D13C
:1049C000FFF77EFEFEE7BB68002B03D1BB691B6CC3
:1049D000002B01D1012300E00023002B02D1FFF7BF
:1049E0006FFEFEE73B68022B03D1BB69DB6B012B3B
:1049F00001D1012300E00023002B02D1FFF760FE6C
:104A0000FEE7FEF7BDFE0346002B02D17B68002BBC
:104A100001D1012300E00023002B02D1FFF750FE5B
:104A2000FEE7FFF721FEBB699A6BBB69DB6B9A421D
:104A300002D33B68022B16D13A68B968B86900F016
:104A4000B3F9BB695B6A002B09D0BB6924331846F4
:104A5000FEF740FC0346012B01D1FFF7F3FDFFF702
:104A600015FE012356E07B68002B03D1FFF70EFEF5
:104A700000234FE0FB69002B06D107F11003184615
:104A8000FEF784FC0123FB61FFF700FEFEF714FA3A
:104A9000FFF7EAFDBB695B6CB3F1FF3F02D1BB6975
:104AA00000225A64BB699B6CB3F1FF3F02D1BB6922
:104AB00000229A64FFF7EAFD3A1D07F11003114640
:104AC0001846FEF77DFC0346002B1DD1B86900F0A7
:104AD0005BFA0346002B11D0BB6910337A6811468C
:104AE0001846FEF799FBB86900F0ECF9FEF7F2F909
:104AF0000346002B95D1FFF7A5FD92E7B86900F0BA
:104B0000E1F9FEF7E7F98CE7B86900F0DBF9FEF7A9
:104B1000E1F9002318462037BD4680BD80B588B036
:104B200000AFF860B9607A603B60FB68BB61BB694D
:104B3000002B02D1FFF7C4FDFEE7BB68002B03D1B9
:104B4000BB691B6C002B01D1012300E00023002B6B
:104B500002D1FFF7B5FDFEE73B68022B03D1BB692D
:104B6000DB6B012B01D1012300E00023002B02D1DC
:104B7000FFF7A6FDFEE7FFF705FEFFF7A1FD786151
:104B8000BB699A6BBB69DB6B9A4202D33B68022B11
:104B900024D13A68B968B86900F006F9BB699B6C22
:104BA000B3F1FF3F12D1BB695B6A002B13D0BB6925
:104BB00024331846FEF78EFB0346002B0BD07B6890
:104BC000002B08D07B6801221A6004E0BB699B6C53
:104BD0005A1CBB699A640123FB6101E00023FB615D
:104BE0007869FFF777FDFB6918462037BD4680BD21
:104BF00080B58AB000AFF860B9607A603B6000238E
:104C00007B62FB683B623B6A002B02D1FFF758FDD9
:104C1000FEE7BB68002B03D13B6A1B6C002B01D164
:104C2000012300E00023002B02D1FFF749FDFEE73E
:104C3000FEF7A6FD0346002B02D17B68002B01D1B5
:104C4000012300E00023002B02D1FFF739FDFEE72E
:104C5000FFF70AFD3B6A9B6B002B3BD03B6ADB688E
:104C6000FB61B968386A00F007F93B68002B1CD17A
:104C70003B6A9B6B5A1E3B6A9A633B6A1B68002B1C
:104C800004D1FEF76DFD02463B6A5A603B6A1B6920
:104C9000002B1BD03B6A10331846FEF71BFB034664
:104CA000012B13D1FFF7CEFC10E03B6AFA69DA6002
:104CB0003B6A5B6A002B09D03B6A24331846FEF737
:104CC00009FB0346002B01D0FFF7BCFCFFF7DEFC1D
:104CD000012364E07B68002B03D1FFF7D7FC00239E
:104CE0005DE07B6A002B06D107F114031846FEF73E
:104CF0004DFB01237B62FFF7C9FCFEF7DDF8FFF7F0
:104D0000B3FC3B6A5B6CB3F1FF3F02D13B6A00220C
:104D10005A643B6A9B6CB3F1FF3F02D13B6A0022AD
:104D20009A64FFF7B3FC3A1D07F1140311461846C5
:104D3000FEF746FB0346002B2BD1386A00F00EF934
:104D40000346002B1FD03B6A1B68002B08D1FFF7DE
:104D50008BFC3B6A5B681846FEF730FDFFF796FC5C
:104D60003B6A24337A6811461846FEF755FA386ACA
:104D700000F0A8F8FEF7AEF80346002B7FF468AF0A
:104D8000FFF760FC64E7386A00F09CF8FEF7A2F8D1
:104D90005EE7386A00F096F8FEF79CF800231846A4
:104DA0002837BD4680BD00BF80B584B000AFF86035
:104DB000B9607A60FB681B6C002B0CD1FB681B6828
:104DC000002B4FD1FB685B681846FEF755FDFB686A
:104DD00000225A6046E07B68002B19D1FB68986876
:104DE000FB681B6C1A46B96804F0C6F9FB689A6840
:104DF000FB681B6C1A44FB689A60FB689A68FB6846
:104E00005B689A422ED3FB681A68FB689A6029E0B7
:104E1000FB68D868FB681B6C1A46B96804F0ACF9EB
:104E2000FB68DA68FB681B6C5B421A44FB68DA605B
:104E3000FB68DA68FB681B689A4207D2FB685A680D
:104E4000FB681B6C5B421A44FB68DA607B68022BD0
:104E500008D1FB689B6B002B04D0FB689B6B5A1E30
:104E6000FB689A63FB689B6B5A1CFB689A6300BFE4
:104E70001037BD4680BD00BF80B582B000AF7860FE
:104E800039607B681B68002B18D07B68DA687B6808
:104E90001B6C1A447B68DA607B68DA687B685B6845
:104EA0009A4203D37B681A687B68DA607B68D968AA
:104EB0007B681B6C1A46386804F05EF900BF08373F
:104EC000BD4680BD80B582B000AF7860FFF7CCFBF7
:104ED00012E07B685B6A002B13D07B682433184692
:104EE000FEF7F8F90346002B01D0FEF7B9FA7B680C
:104EF0009B6C5A1E7B689A647B689B6C002BE8DC79
:104F000000E000BF7B684FF0FF329A64FFF7BEFB02
:104F1000FFF7AAFB12E07B681B69002B13D07B68AC
:104F200010331846FEF7D6F90346002B01D0FEF7E2
:104F300097FA7B685B6C5A1E7B685A647B685B6C73
:104F4000002BE8DC00E000BF7B684FF0FF325A64C2
:104F5000FFF79CFB00BF0837BD4680BD80B584B01D
:104F600000AF7860FFF780FB7B689B6B002B02D162
:104F70000123FB6001E00023FB60FFF787FBFB6878
:104F800018461037BD4680BD80B584B000AF78604C
:104F9000FFF76AFB7B689A6B7B68DB6B9A4202D1F6
:104FA0000123FB6001E00023FB60FFF76FFBFB6860
:104FB00018461037BD4680BD80B485B000AF78601C
:104FC00039600023FB6014E00E4AFB6852F833306E
:104FD000002B0BD10B49FB683A6841F83320094A92
:104FE000FB68DB0013447A685A6005E0FB68013314
:104FF000FB60FB68072BE7D900BF1437BD465DF89F
:10500000047B7047D838012080B584B000AF786049
:1050100039607B68FB60FFF727FBFB685B6CB3F1D3
:10502000FF3F02D1FB6800225A64FB689B6CB3F11E
:10503000FF3F02D1FB6800229A64FFF727FBFB6861
:105040009B6B002B05D1FB68243339681846FEF7AB
:1050500019F9F868FFF736FF00BF1037BD4680BD6D
:1050600080B487B000AFF860B9607A60FB687B619C
:10507000BB683B6107E07B695A1C7A613A69511C45
:10508000396112781A707B685A1E7A60002BF2D14F
:1050900000BF1C37BD465DF8047B704780B487B005
:1050A00000AFF860B9607A60FB687B6105E07B69FE
:1050B0005A1C7A61BA68D2B21A707B685A1E7A603A
:1050C000002BF4D100BF1C37BD465DF8047B704750
:1050D00080B489B000AFF860B9607A60FB68FB61AA
:1050E000BB68BB6100237B6100BF7B685A1E7A608E
:1050F000002B0DD0FB695A1CFA611B781946BB695D
:105100005A1CBA611B78CB1A7B617B69002BECD0EF
:105110007B6918462437BD465DF8047B704700BFA5
:1051200080B483B000AF7860396002E07B680133FF
:105130007B607B681B78002B05D07B681B781A4648
:105140003B689A42F2D17B681B7818460C37BD4603
:105150005DF8047B704700BF80B586B000AF786013
:105160000023FB737B681B79002B34D07B681B6B9F
:105170007B617B6858787B6803F1340101237A698D
:10518000FBF718FA0346002B02D00123FB7322E041
:105190007B6800221A717B685B6A7A69D21A7B6825
:1051A000DB699A4217D27B68DB783B6110E07B6851
:1051B000DB697A6913447B617B6858787B6803F10B
:1051C000340101237A69FBF7F5F93B69013B3B6147
:1051D0003B69012BEBD8FB7B18461837BD4680BDD9
:1051E00080B584B000AF786039600023FB737B68C2
:1051F0001A6B3B689A421BD07868FFF7ADFF0346F5
:10520000FB73FB7B002B13D17B6858787B6803F121
:10521000340101233A68FBF79FF90346002B04D0C1
:105220004FF0FF333B600123FB737B683A681A63DE
:10523000FB7B18461037BD4680BD00BF80B584B0EB
:1052400000AF78607868FFF787FF0346FB73FB7B4E
:10525000002B40F090807B681B78032B7FD17B680C
:105260005B79012B7BD17B6834334FF400720021D2
:105270001846FFF713FF7B68552283F832227B68BC
:10528000AA2283F833227B68522283F834207B6879
:10529000522283F835207B68612283F836207B68B0
:1052A000412283F837207B68722283F818227B68BA
:1052B000722283F819227B68412283F81A227B68C4
:1052C000612283F81B227B681B69DAB27B6883F852
:1052D0001C227B681B699BB21B0A9BB2DAB27B68FB
:1052E00083F81D227B681B691B0CDAB27B6883F88C
:1052F0001E227B681B691B0EDAB27B6883F81F22B3
:105300007B68DB68DAB27B6883F820227B68DB6825
:105310009BB21B0A9BB2DAB27B6883F821227B68BE
:10532000DB681B0CDAB27B6883F822227B68DB68BF
:105330001B0EDAB27B6883F823227B681B6A5A1C37
:105340007B681A637B6858787B6803F134017B685B
:105350001A6B0123FBF72EF97B6800225A717B68D8
:105360005B78002200211846FBF752F90346002B18
:1053700001D00123FB73FB7B18461037BD4680BD6F
:1053800080B483B000AF786039603B68023B3B601B
:105390007B689B699A1E3B689A4201D8002308E00B
:1053A0007B689B781A463B6803FB02F27B68DB6AEA
:1053B000134418460C37BD465DF8047B704700BFA8
:1053C00080B586B000AF786039603B68012B04D9A6
:1053D0007B689A693B689A4202D801237B61A3E00B
:1053E0004FF0FF337B617B681B78022B46D0032B89
:1053F00066D0012B40F08E803B683B613B695B08C7
:105400003A6913443B617B685A6A3B695B0A1344FF
:1054100019467868FFF7E4FE0346002B7DD13B690F
:105420005A1C3A61C3F308037A68134493F8343082
:10543000FB607B685A6A3B695B0A134419467868CB
:10544000FFF7CEFE0346002B69D13B69C3F3080387
:105450007A68134493F834301B021A46FB681343EE
:10546000FB603B6803F00103002B02D0FB681B09C3
:1054700002E0FB68C3F30B037B6155E07B685A6A6B
:105480003B681B0A134419467868FFF7A9FE0346D8
:10549000002B46D13B685B0003F4FF7330337A681E
:1054A00013440433BB60BB6801331B781B021AB280
:1054B000BB681B781BB213431BB29BB27B6133E00A
:1054C0007B685A6A3B68DB09134419467868FFF722
:1054D00087FE0346002B26D13B689B0003F4FE7336
:1054E00030337A6813440433BB60BB6803331B78E2
:1054F0001A06BB6802331B781B041343BA680132D7
:10550000127812021343BA681278134323F07043DF
:105510007B6109E001237B6106E000BF04E000BF7E
:1055200002E000BF00E000BF7B6918461837BD46A7
:1055300080BD00BF80B588B000AFF860B9607A6008
:10554000BB68012B04D9FB689A69BB689A4202D8F0
:105550000223FB77F2E0FB681B78022B74D0032B4D
:1055600000F09980012B40F0DF80BB68BB61BB6914
:105570005B08BA691344BB61FB685A6ABB695B0A82
:1055800013441946F868FFF72BFE0346FB77FB7FB1
:10559000002B40F0CC80BB695A1CBA61C3F30803EE
:1055A0003033FA68134404337B61BB6803F00103B2
:1055B000002B0DD07B691B785BB203F00F035AB24E
:1055C0007B68DBB21B015BB213435BB2DBB201E071
:1055D0007B68DBB27A691370FB6801221A71FB6881
:1055E0005A6ABB695B0A13441946F868FFF7F8FD6D
:1055F0000346FB77FB7F002B40F09B80BB69C3F326
:1056000008033033FA68134404337B61BB6803F04A
:105610000103002B03D07B681B09DBB20EE07B6922
:105620001B785BB223F00F035AB27B681B0A5BB294
:1056300003F00F035BB213435BB2DBB27A69137002
:10564000FB6801221A7179E0FB685A6ABB681B0A81
:1056500013441946F868FFF7C3FD0346FB77FB7F49
:10566000002B68D1BB685B0003F4FF733033FA682A
:10567000134404337B617B68DAB27B691A707B69FF
:1056800001337A6892B2120A92B2D2B21A70FB68EF
:1056900001221A7152E0FB685A6ABB68DB091344A5
:1056A0001946F868FFF79CFD0346FB77FB7F002B4C
:1056B00043D1BB689B0003F4FE733033FA68134494
:1056C00004337B617B6903331B781A067B690233E1
:1056D0001B781B0413437A690132127812021343B8
:1056E0007A691278134303F070437A6813437B603E
:1056F0007B68DAB27B691A707B6901337A6892B28F
:10570000120A92B2D2B21A707B6902337A68120C12
:10571000D2B21A707B6903337A68120ED2B21A7051
:10572000FB6801221A7109E00223FB7706E000BF43
:1057300004E000BF02E000BF00E000BFFB7F1846AE
:105740002037BD4680BD00BF80B584B000AF786013
:1057500039603B68012B04D97B689A693B689A429F
:1057600002D80223FB733DE00023FB7331E039686C
:105770007868FFF725FEB860BB68002B2FD0BB68A8
:10578000012B02D10223FB732CE0BB68B3F1FF3F76
:1057900002D10123FB7325E0002239687868FFF706
:1057A000C9FE0346FB73FB7B002B1AD17B681B6988
:1057B000B3F1FF3F0BD07B681B695A1C7B681A61F1
:1057C0007B685B7943F00103DAB27B685A71BB688E
:1057D0003B607B689A693B689A42C8D802E000BF88
:1057E00000E000BFFB7B18461037BD4680BD00BF00
:1057F00080B586B000AF786039603B68002B0DD172
:105800007B68DB683B613B69002B04D07B689A694D
:105810003B699A421BD801233B6118E039687868DC
:10582000FFF7CEFDB860BB68012B01D801236EE005
:10583000BB68B3F1FF3F01D1BB6868E07B689A6940
:10584000BB689A4201D9BB6861E03B683B613B6938
:105850007B617B6901337B617B689A697B699A42D2
:1058600007D802237B617A693B699A4201D90023F8
:105870004DE079697868FFF7A3FDB860BB68002B3D
:105880000ED0BB68B3F1FF3F02D0BB68012B01D142
:10589000BB683CE07A693B699A42DAD1002336E082
:1058A00000BF6FF0704279697868FFF743FE0346E6
:1058B000FB73FB7B002B09D13B68002B06D07A6978
:1058C00039687868FFF736FE0346FB73FB7B002BD5
:1058D00014D17B687A69DA607B681B69B3F1FF3F9A
:1058E00014D07B681B695A1E7B681A617B685B79E0
:1058F00043F00103DAB27B685A7107E0FB7B012BAE
:1059000002D14FF0FF3300E001237B617B69184631
:105910001837BD4680BD00BF80B586B000AF786047
:1059200039603B689AB27B68DA807B689B687B61F0
:105930007B69012B05D07B681B689A697B699A4259
:1059400001D8022363E07B69002B08D17B681B68C8
:105950001B78032B03D17B681B689B6A7B617B6987
:10596000002B0DD17B681B681B891A463B689A4245
:1059700001D802234BE07B681B689B6A3B612CE0EB
:105980007B681B689B781B01FB601BE07B681B68C6
:1059900079691846FFF714FD78617B69B3F1FF3F21
:1059A00001D1012333E07B69012B05D97B681B689A
:1059B0009A697B699A4201D8022328E03A68FB6819
:1059C000D31A3B603A68FB689A42DFD27B681B6857
:1059D00079691846FFF7D4FC38617B687A69DA6028
:1059E0003B69002B01D1022311E03B681A093B6996
:1059F0001A447B681A617B681B6803F134023B68B8
:105A000003F00F035B011A447B685A6100231846B8
:105A10001837BD4680BD00BF90B587B000AF786035
:105A200039607B68DB880133FB60FB689BB2002B2D
:105A300003D07B681B69002B01D10423BBE0FB680A
:105A400003F00F03002B40F0A6807B681B695A1CF3
:105A50007B681A617B68DB68002B09D17B681B6857
:105A60001B891A46FB689A4200F295800423A2E043
:105A7000FB681B097A6812689278013A1340002B80
:105A800040F089807B681A687B68DB68194610469D
:105A9000FFF796FC78617B69012B01D802238AE02D
:105AA0007B69B3F1FF3F01D1012384E07B681B6870
:105AB0009A697B699A4262D83B68002B01D1042322
:105AC00079E07B681A687B68DB6819461046FFF747
:105AD0008FFE78617B69002B01D107236BE07B6926
