:020000040800F2
:10000000FC07002089010008E50100082B08000812
:10001000E5010008E5010008E50100080000000016
:10002000000000000000000000000000E5010008E2
:10003000E501000800000000E5010008E5010008F6
:10004000E5010008E5010008E5010008E5010008F8
:10005000E5010008E5010008E5010008E5010008E8
:10006000E5010008E5010008E5010008E5010008D8
:10007000E5010008E5010008E5010008E5010008C8
:10008000E5010008E5010008E5010008E5010008B8
:10009000E5010008E5010008E5010008E5010008A8
:1000A000E5010008E5010008E5010008E501000898
:1000B000E5010008E5010008E5010008E501000888
:1000C000E5010008E5010008E5010008E501000878
:1000D000E5010008E5010008E5010008E501000868
:1000E000E5010008E5010008E5010008E501000858
:1000F000E5010008E5010008E5010008E501000848
:10010000E5010008E5010008E5010008E501000837
:10011000E5010008E5010008E5010008E501000827
:10012000E5010008E5010008E5010008E501000817
:10013000E5010008E5010008E5010008E501000807
:10014000E5010008E5010008E5010008E5010008F7
:10015000E5010008E5010008E5010008E5010008E7
:10016000E5010008E5010008E5010008E5010008D7
:10017000E5010008E5010008E5010008E5010008C7
:10018000E5010008E501000880B582B000AF104B22
:100190007B60104B3B6007E03B681A1D3A607A6851
:1001A000111D796012681A603B680B4A9342F3D3C1
:1001B0000A480B494FF000028842B8BF40F8042BB0
:1001C000FADB00F0B3F800BF0837BD4680BD00BFC2
:1001D000400800080000002000000020000000206F
:1001E0000000002080B400AFFEE700BF80B58AB0F9
:1001F00000AF01214FF4807000F0C6F80121022009
:1002000000F0A4F80123BB6003233B730023FB73BE
:1002100007F108031946194800F070FA02233B6001
:1002200003233B710023FB713B461946134800F042
:1002300065FA00F0E5F800233B6200233B610123EF
:100240007B750023FB610023BB61012387F8243009
:1002500000233B7507F110031946094800F0DEF84A
:100260000121074800F02EF9062301220821044845
:1002700000F044F900BF2837BD4680BD00040240AD
:100280000020014080B500AF0623012208210A4862
:1002900000F034F9084800F0FBF900BF02210648DD
:1002A00000F012FA0346002BF8D0034800F000FAE1
:1002B0000346184680BD00BF0020014080B500AF56
:1002C0000623012209210A4800F018F9084800F025
:1002D000DFF900BF0221064800F0F6F90346002BC3
:1002E000F8D0034800F0E4F90346184680BD00BF8B
:1002F0000020014080B500AFFFF7C4FF0346B3F50F
:10030000FA6F01DD012300E00023184680BD00BF25
:1003100080B500AFFFF7D2FF0346B3F5FA6F01DDFA
:10032000012300E00023184680BD00BF80B582B0E5
:1003300000AFFFF75BFF00237B6000233B60FFF70C
:10034000D9FF7860FFF7E4FF3860F8E780B483B046
:1003500000AF78600B46FB70FB78002B06D0094994
:10036000084B1A6B7B6813430B6306E00549054B8A
:100370001A6B7B68DB4313400B6300BF0C37BD4631
:1003800080BC70470038024080B483B000AF786012
:100390000B46FB70FB78002B06D00949084B5A6CC2
:1003A0007B6813434B6406E00549054B5A6C7B6838
:1003B000DB4313404B6400BF0C37BD4680BC704725
:1003C0000038024080B483B000AF78600B46FB7009
:1003D000FB78002B06D00949084B5A6A7B68134307
:1003E0004B6206E00549054B5A6A7B68DB431340C4
:1003F0004B6200BF0C37BD4680BC704700380240DE
:1004000080B500AF01214FF48070FFF7DBFF0021C2
:100410004FF48070FFF7D6FF00BF80BD80B485B079
:1004200000AF786039600023FB600023FB727B68BB
:100430005B68FB60FB6823F0407323F48073FB6010
:100440003B681B791A023B681B681343FA68134325
:10045000FB607B68FA685A607B689B68FB60FA689F
:10046000174B1340FB603B681A693B68DB681A4313
:100470003B689B681A433B685B795B001343FA68EF
:100480001343FB607B68FA689A607B68DB6AFB60F9
:10049000FB6823F47003FB603B681B7D013BDAB211
:1004A000FB7A1343FB72FB7A1B05FA681343FB606C
:1004B0007B68FA68DA6200BF1437BD4680BC7047BB
:1004C000FDF7FFC080B483B000AF78600B46FB70CF
:1004D000FB78002B06D07B689B6843F001027B68A9
:1004E0009A6005E07B689B6823F001027B689A6054
:1004F00000BF0C37BD4680BC704700BF80B485B0DC
:1005000000AF7860084611461A460346FB700B465A
:10051000BB7013467B700023FB600023BB60FB783D
:10052000092B23D97B68DB68FB60FB78A3F10A0207
:1005300013465B001344072202FA03F3BB60BB6857
:10054000DB43FA681340FB607978FB78A3F10A0279
:1005500013465B00134401FA03F3BB60FA68BB68FF
:100560001343FB607B68FA68DA601EE07B681B69F6
:10057000FB60FA7813465B001344072202FA03F388
:10058000BB60BB68DB43FA681340FB607978FA789C
:1005900013465B00134401FA03F3BB60FA68BB68BF
:1005A0001343FB607B68FA681A61BB78062B21D87D
:1005B0007B685B6BFB60BB785A1E13469B00134441
:1005C0001F2202FA03F3BB60BB68DB43FA681340E7
:1005D000FB60F978BB785A1E13469B00134401FA5E
:1005E00003F3BB60FA68BB681343FB607B68FA687F
:1005F0005A6347E0BB780C2B21D87B681B6BFB60F0
:10060000BB78DA1F13469B0013441F2202FA03F340
:10061000BB60BB68DB43FA681340FB60F978BB78CA
:10062000DA1F13469B00134401FA03F3BB60FA6818
:10063000BB681343FB607B68FA681A6322E07B683F
:10064000DB6AFB60BB78A3F10D0213469B001344E9
:100650001F2202FA03F3BB60BB68DB43FA68134056
:10066000FB60F978BB78A3F10D0213469B0013449D
:1006700001FA03F3BB60FA68BB681343FB607B6855
:10068000FA68DA6200BF1437BD4680BC704700BF0D
:1006900080B483B000AF78607B689B6843F0804291
:1006A0007B689A6000BF0C37BD4680BC704700BFB6
:1006B00080B483B000AF78607B68DB6C9BB2184677
:1006C0000C37BD4680BC704780B485B000AF786001
:1006D0000B46FB700023FB737B681A68FB781340A2
:1006E000002B02D00123FB7301E00023FB73FB7B93
:1006F00018461437BD4680BC704700BF80B487B031
:1007000000AF7860396000237B6100233B610023E8
:10071000FB6000237B6176E001227B6902FA03F330
:100720003B613B681A683B691340FB60FA683B69B0
:100730009A4265D17B681A687B695B00032101FAE4
:1007400003F3DB431A407B681A607B681A683B68D6
:100750001B7919467B695B0001FA03F31A437B6836
:100760001A603B681B79012B03D03B681B79022B75
:100770002ED17B689A687B695B00032101FA03F341
:10078000DB431A407B689A607B689A683B685B79B8
:1007900019467B695B0001FA03F31A437B689A6090
:1007A0007B685A687B699BB2194601238B40DB4307
:1007B0001A407B685A607B685B683A689279114698
:1007C0007A6992B201FA02F292B21A437B685A60D5
:1007D0007B68DA687B699BB25B00032101FA03F353
:1007E000DB431A407B68DA607B68DA683B68DB7958
:1007F00019467B695B0001FA03F31A437B68DA60F0
:100800007B6901337B617B690F2B85D900BF1C3766
:10081000BD4680BC704700BFABBE01E00020704702
:10082000002A00D0106001207047069801884BF61E
:0E083000AB62914202D1043006907047FEE7A1
:0400000508000000EF
:00000001FF
