:020000040800F2
:100000000408002089010008E5010008FF06000837
:10001000E5010008E5010008E50100080000000016
:10002000000000000000000000000000E5010008E2
:10003000E501000800000000E5010008E5010008F6
:10004000E5010008E5010008E5010008E5010008F8
:10005000E5010008E5010008E5010008E5010008E8
:10006000E5010008E5010008E5010008E5010008D8
:10007000E5010008E5010008E5010008E5010008C8
:10008000E5010008E5010008E5010008E5010008B8
:10009000E5010008E5010008E5010008E5010008A8
:1000A000E5010008E5010008E5010008E501000898
:1000B000E5010008E5010008E5010008E501000888
:1000C000E5010008E5010008E5010008E501000878
:1000D000E5010008E5010008E5010008E501000868
:1000E000E5010008E5010008E5010008E501000858
:1000F000E5010008E5010008E5010008E501000848
:10010000E5010008E5010008E5010008E501000837
:10011000E5010008E5010008E5010008E501000827
:10012000E5010008E5010008E5010008E501000817
:10013000E5010008E5010008E5010008E501000807
:10014000E5010008E5010008E5010008E5010008F7
:10015000E5010008E5010008E5010008E5010008E7
:10016000E5010008E5010008E5010008E5010008D7
:10017000E5010008E5010008E5010008E5010008C7
:10018000E5010008E501000880B582B000AF104B22
:100190007B60104B3B6007E03B681A1D3A607A6851
:1001A000111D796012681A603B680B4A9342F3D3C1
:1001B0000A480B494FF000028842B8BF40F8042BB0
:1001C000FADB00F013F800BF0837BD4680BD00BF62
:1001D000800900080000002000000020000000202E
:1001E0000800002080B400AFFEE700BF80B582B0F9
:1001F00000AF0023FB7100F0FFFA00F0ADFB0346F7
:10020000FB71FAE780B483B000AF78600B46FB70F7
:10021000FB78002B06D00949084B1A6B7B68134307
:100220000B6306E00549054B1A6B7B68DB43134003
:100230000B6300BF0C37BD4680BC704700380240DE
:1002400080B483B000AF78600B46FB70FB78002B66
:1002500006D00949084B5A6C7B6813434B6406E08F
:100260000549054B5A6C7B68DB4313404B6400BF68
:100270000C37BD4680BC70470038024080B485B062
:1002800000AF786039600023FB600023FB727B685D
:100290005B68FB60FB6823F0407323F48073FB60B2
:1002A0003B681B791A023B681B681343FA681343C7
:1002B000FB607B68FA685A607B689B68FB60FA6841
:1002C000174B1340FB603B681A693B68DB681A43B5
:1002D0003B689B681A433B685B795B001343FA6891
:1002E0001343FB607B68FA689A607B68DB6AFB609B
:1002F000FB6823F47003FB603B681B7D013BDAB2B3
:10030000FB7A1343FB72FB7A1B05FA681343FB600D
:100310007B68FA68DA6200BF1437BD4680BC70475C
:10032000FDF7FFC080B485B000AF78600023FB60AC
:100330000E4B5B68FB60FA680D4B1340FB607B68FB
:100340001A687B685B681A437B689B681A437B6802
:10035000DB681343FA681343FB60044AFB6853608D
:1003600000BF1437BD4680BC704700BF002301406A
:10037000E030FCFF80B483B000AF78600B46FB70C8
:10038000FB78002B06D07B689B6843F001027B68FA
:100390009A6005E07B689B6823F001027B689A60A5
:1003A00000BF0C37BD4680BC704700BF80B485B02D
:1003B00000AF7860084611461A460346FB700B46AC
:1003C000BB7013467B700023FB600023BB60FB788F
:1003D000092B23D97B68DB68FB60FB78A3F10A0259
:1003E00013465B001344072202FA03F3BB60BB68A9
:1003F000DB43FA681340FB607978FB78A3F10A02CB
:1004000013465B00134401FA03F3BB60FA68BB6850
:100410001343FB607B68FA68DA601EE07B681B6947
:10042000FB60FA7813465B001344072202FA03F3D9
:10043000BB60BB68DB43FA681340FB607978FA78ED
:1004400013465B00134401FA03F3BB60FA68BB6810
:100450001343FB607B68FA681A61BB78062B21D8CE
:100460007B685B6BFB60BB785A1E13469B00134492
:100470001F2202FA03F3BB60BB68DB43FA68134038
:10048000FB60F978BB785A1E13469B00134401FAAF
:1004900003F3BB60FA68BB681343FB607B68FA68D0
:1004A0005A6347E0BB780C2B21D87B681B6BFB6041
:1004B000BB78DA1F13469B0013441F2202FA03F392
:1004C000BB60BB68DB43FA681340FB60F978BB781C
:1004D000DA1F13469B00134401FA03F3BB60FA686A
:1004E000BB681343FB607B68FA681A6322E07B6891
:1004F000DB6AFB60BB78A3F10D0213469B0013443B
:100500001F2202FA03F3BB60BB68DB43FA681340A7
:10051000FB60F978BB78A3F10D0213469B001344EE
:1005200001FA03F3BB60FA68BB681343FB607B68A6
:10053000FA68DA6200BF1437BD4680BC704700BF5E
:1005400080B483B000AF78607B689B6843F08042E2
:100550007B689A6000BF0C37BD4680BC704700BF07
:1005600080B483B000AF78600B46FB70FB78002B43
:1005700006D07B689B6843F480727B689A6005E0D4
:100580007B689B6823F480727B689A6000BF0C379D
:10059000BD4680BC704700BF80B483B000AF7860B8
:1005A0000B46FB70FB78002B06D07B689B6843F4FE
:1005B00000727B689A6005E07B689B6823F4007298
:1005C0007B689A6000BF0C37BD4680BC704700BF97
:1005D00080B487B000AF7860396000237B6100236E
:1005E0003B610023FB6000237B6176E001227B6995
:1005F00002FA03F33B613B681A683B691340FB60F6
:10060000FA683B699A4265D17B681A687B695B002E
:10061000032101FA03F3DB431A407B681A607B680D
:100620001A683B681B7919467B695B0001FA03F382
:100630001A437B681A603B681B79012B03D03B6827
:100640001B79022B2ED17B689A687B695B000321A2
:1006500001FA03F3DB431A407B689A607B689A686F
:100660003B685B7919467B695B0001FA03F31A4327
:100670007B689A607B685A687B699BB21946012344
:100680008B40DB431A407B685A607B685B683A6842
:10069000927911467A6992B201FA02F292B21A4341
:1006A0007B685A607B68DA687B699BB25B000321D8
:1006B00001FA03F3DB431A407B68DA607B68DA688F
:1006C0003B68DB7919467B695B0001FA03F31A4347
:1006D0007B68DA607B6901337B617B690F2B85D98D
:1006E00000BF1C37BD4680BC704700BFABBE01E0F9
:1006F00000207047002A00D0106001207047069843
:1007000001884BF6AB62914202D1043006907047EB
:10071000FEE7000080B485B000AF78603960002348
:10072000FB607B681B68FB60FA68244B1340FB602E
:100730003B681A683B68DB681A433B685B691A438D
:100740003B689B691A433B68DB691A433B681B6A39
:100750001A433B685B6A1A433B689B6A1A433B68CF
:100760005B6B1A433B689B6B1343FA681343FB6054
:100770007B68FA681A607B685B69FB60FB6823F042
:100780000703FB603B68DA6A3B681B6B1343FA683C
:100790001343FB607B68FA685A613B681A697B689F
:1007A0005A603B685A687B689A603B689A687B68C5
:1007B000DA6000BF1437BD4680BC70473F801CF034
:1007C00080B483B000AF78600B46FB70FB78002BE1
:1007D00006D07B681B6843F001027B681A6005E065
:1007E0007B681B6823F001027B681A6000BF0C372E
:1007F000BD4680BC704700BF80B500AF00F008F870
:100800000248FFF79DFE00BF80BD00BF00220140EF
:1008100080B59CB000AF01213C48FFF7F3FC0121FB
:100820004FF48060FFF70CFD4FF08063FB60384BA6
:100830003B61384B7B610023BB610123FB610023DB
:100840003B6200237B624FF40063BB624FF40053B2
:10085000FB624FF480733B634FF400337B630023F0
:10086000BB630123FB6300233B6400237B6407F12C
:100870000C0319462848FFF74DFF01212648FFF7D2
:100880009FFF08237B6003233B720023FB723B1D09
:1008900019462248FFF79CFE0023BB640023FB643B
:1008A00000233B6500237B6507F148031846FFF7EB
:1008B00039FD0023BB65002387F85C30012387F8EE
:1008C0005D3000233B6600237B660023BB6601236B
:1008D00087F86C3007F1580319461148FFF7CEFC32
:1008E0000023012203210E48FFF760FD01210C487F
:1008F000FFF752FE01210A48FFF732FE01210848A6
:10090000FFF738FD00BF7037BD4680BD01004000D5
:100910004C22014000000020106402400000024010
:100920000022014080B400AF094B1B889BB21A46DD
:1009300040F6E44303FB02F3064A82FB03121A4427
:10094000D212DB17D31A1846BD4680BC704700BFD1
:10095000000000208100088080B582B000AFFFF762
:10096000E1FF786064227B689B1A40F2DC5293427C
:1009700001DD012300E0002318460837BD4680BD95
:0400000508000000EF
:00000001FF
