:020000040800F2
:100000001408002049040008A50400087F0900081E
:10001000A5040008A5040008A504000800000000CD
:10002000000000000000000000000000A50400081F
:10003000A504000800000000A5040008A5040008AD
:10004000A5040008A5040008A5040008A5040008EC
:10005000A5040008A5040008A5040008A5040008DC
:10006000A5040008A5040008A5040008A5040008CC
:10007000A5040008A5040008A5040008A5040008BC
:10008000A5040008A5040008A5040008A5040008AC
:10009000A5040008A5040008A5040008A50400089C
:1000A000A5040008A5040008A5040008A50400088C
:1000B000A5040008A5040008A5040008A50400087C
:1000C000A5040008A5040008A5040008A50400086C
:1000D000A5040008B9040008A5040008A504000848
:1000E000A5040008A5040008A5040008A50400084C
:1000F000A5040008A5040008A5040008A50400083C
:10010000A5040008A5040008A5040008A50400082B
:10011000A5040008A5040008A5040008A50400081B
:10012000A5040008A5040008A5040008A50400080B
:10013000A5040008A5040008A5040008A5040008FB
:10014000A5040008A5040008A5040008A5040008EB
:10015000A5040008A5040008A5040008A5040008DB
:10016000A5040008A5040008A5040008A5040008CB
:10017000A5040008A5040008A5040008A5040008BB
:10018000A5040008A504000880B58AB000AF786017
:10019000396000237B6200233B620023FB61002364
:1001A000BB617B681B8A9BB27B627B6A23F44053F2
:1001B0007B623B68DB881A467B6A13437B627B6AFF
:1001C0009AB27B681A827B689B899BB27B627B6A4E
:1001D00023F4B05323F00C037B623B689A883B689E
:1001E0001B8913439AB23B685B8913439BB21A463F
:1001F0007B6A13437B627B6A9AB27B689A817B68D5
:100200009B8A9BB27B627B6A23F440737B623B6870
:100210009B891A467B6A13437B627B6A9AB27B682E
:100220009A8207F10803184600F032FA7B68304AD8
:10023000934203D07B682F4A934202D17B693B6291
:1002400001E03B693B627B689B899BB21BB2002B40
:100250000CDA3A6A13469B0013449A001A443B682E
:100260001B685B00B2FBF3F3FB610BE03A6A1346D9
:100270009B0013449A001A443B681B689B00B2FB26
:10028000F3F3FB61FB691C4AA2FB03235B091B011F
:100290007B627B6A1B09642202FB03F3FA69D31AAF
:1002A000BB617B689B899BB21BB2002B0CDABB69DC
:1002B000DB003233104AA2FB03235B0903F0070380
:1002C0007A6A13437B620BE0BB691B0132330A4A33
:1002D000A2FB03235B0903F00F037A6A13437B62DB
:1002E0007B6A9AB27B681A8100BF2837BD4680BD01
:1002F00000100140001401401F85EB5180B483B011
:1003000000AF78600B46FB70FB78002B08D07B6851
:100310009B899BB243F400539AB27B689A8107E0B1
:100320007B689B899BB223F400539AB27B689A81C5
:1003300000BF0C37BD4680BC704700BF80B483B09F
:1003400000AF78600B467B807B88C3F308039AB2CA
:100350007B689A8000BF0C37BD4680BC704700BFE9
:1003600080B483B000AF78607B689B889BB2C3F396
:1003700008039BB218460C37BD4680BC704700BFCF
:1003800080B487B000AF78600B467B8013467B70EB
:1003900000233B610023FB600023BB6000237B61E3
:1003A0007B687B617B88DBB25B09DBB23B617B886E
:1003B00003F01F03FB600122FB6802FA03F3BB603A
:1003C0003B69012B03D17B690C337B6109E03B69FD
:1003D000022B03D17B6910337B6102E07B6914330C
:1003E0007B617B78002B06D07B697A691168BA68DB
:1003F0000A431A6006E07B697A691168BA68D243D9
:100400000A401A6000BF1C37BD4680BC704700BF61
:1004100080B485B000AF78600B467B800023FB730F
:100420007B681B889AB27B8813409BB2002B02D05A
:100430000123FB7301E00023FB73FB7B1846143799
:10044000BD4680BC704700BF80B582B000AF104B86
:100450007B60104B3B6007E03B681A1D3A607A688E
:10046000111D796012681A603B680B4A9342F3D3FE
:100470000A480B494FF000028842B8BF40F8042BED
:10048000FADB00F013F800BF0837BD4680BD00BF9F
:10049000700C000800000020100000201000002058
:1004A0001800002080B400AFFEE700BF80B500AFA9
:1004B00000F042F8FEE700BF80B586B000AF002331
:1004C000FB750A23BB75174B1B889BB203F02003F7
:1004D000002B23D01348FFF743FF03461A46124B65
:1004E0001A60114B1B68312B0AD101224FF4807125
:1004F0000E4800F023FA09210D4800F0A7F80DE09E
:10050000094B1B68302B09D100224FF4807107483A
:1005100000F014FA0A21074800F098F800BF1837D5
:10052000BD4680BD001001401000002000000240C8
:100530003C0C0008480C0008B0B588B000AF114B67
:100540003C1D1D460FCD0FC495E8070003C4227063
:100550000121012000F046F900F064F800F016F8DF
:1005600000F040F8012240F225510748FFF708FF4C
:100570003B1D1921184600F069F800BF2037BD4621
:10058000B0BD00BF540C00080010014080B582B01F
:1005900000AF4FF480733B6002237B710023BB717B
:1005A0003B4619460E4800F03BF94FF400733B60A0
:1005B0000023BB7102237B713B461946084800F0BB
:1005C0002FF94FF480633B6000233B713B46194693
:1005D000034800F025F900BF0837BD4680BD00BFC5
:1005E0000000024080B584B000AF4FF416533B606A
:1005F0000023BB800023FB8000233B810023BB81C1
:100600000C237B813B4619460548FFF7BDFD0121C0
:100610000348FFF773FE00BF1037BD4680BD00BF23
:100620000010014080B582B000AF25233B7100234C
:100630007B710023BB710123FB713B1D184600F049
:10064000A9F900BF0837BD4680BD00BF80B582B0A4
:1006500000AF7860396010E07B685A1C7A601B78C4
:100660009BB219460948FFF769FE00BF40210748C1
:10067000FFF7CEFE0346002BF8D03B685A1E3A60C7
:10068000002BE9D100BF0837BD4680BD00100140F6
:1006900080B489B000AF78600023BB6100237B6128
:1006A0000023FB6102233B610023FB600223BB604C
:1006B000484B9B6803F00C03BB61BB69042B07D05C
:1006C000082B09D0002B3FD17B68434A1A603FE0DA
:1006D0007B68424A1A603BE03E4B5B6803F4800350
:1006E0009B0DFB603B4B5B6803F03F03BB60FB680B
:1006F000002B0DD0394ABB68B2FBF3F2354B596879
:1007000047F6C0730B409B0903FB02F3FB610CE04F
:10071000314ABB68B2FBF3F22E4B596847F6C073FF
:100720000B409B0903FB02F3FB612A4B5B6803F45C
:1007300040331B0C01335B003B61FA693B69B2FB40
:10074000F3F27B681A6003E07B68234A1A6000BFFB
:10075000204B9B6803F0F003BB61BB691B09BB61C5
:100760001F4ABB6913441B78DBB27B617B681A6844
:100770007B69DA407B685A60164B9B6803F4E05350
:10078000BB61BB699B0ABB61154ABB6913441B78FB
:10079000DBB27B617B685A687B69DA407B689A6070
:1007A0000C4B9B6803F46043BB61BB695B0BBB6193
:1007B0000B4ABB6913441B78DBB27B617B685A68C8
:1007C0007B69DA407B68DA6000BF2437BD4680BCB5
:1007D000704700BF003802400024F40040787D01DB
:1007E0000000002080B483B000AF78600B46FB703F
:1007F000FB78002B06D00949084B1A6B7B68134322
:100800000B6306E00549054B1A6B7B68DB4313401D
:100810000B6300BF0C37BD4680BC704700380240F8
:1008200080B487B000AF7860396000237B6100231B
:100830003B610023FB6000237B6176E001227B6942
:1008400002FA03F33B613B681A683B691340FB60A3
:10085000FA683B699A4265D17B681A687B695B00DC
:10086000032101FA03F3DB431A407B681A607B68BB
:100870001A683B681B7919467B695B0001FA03F330
:100880001A437B681A603B681B79012B03D03B68D5
:100890001B79022B2ED17B689A687B695B00032150
:1008A00001FA03F3DB431A407B689A607B689A681D
:1008B0003B685B7919467B695B0001FA03F31A43D5
:1008C0007B689A607B685A687B699BB219460123F2
:1008D0008B40DB431A407B685A607B685B683A68F0
:1008E000927911467A6992B201FA02F292B21A43EF
:1008F0007B685A607B68DA687B699BB25B00032186
:1009000001FA03F3DB431A407B68DA607B68DA683C
:100910003B68DB7919467B695B0001FA03F31A43F4
:100920007B68DA607B6901337B617B690F2B85D93A
:1009300000BF1C37BD4680BC704700BF80B483B089
:1009400000AF78600B467B8013467B707B78002B72
:1009500003D07B687A881A8302E07B687A885A839E
:1009600000BF0C37BD4680BC704700BFABBE01E086
:1009700000207047002A00D01060012070470698C0
:1009800001884BF6AB62914202D104300690704769
:10099000FEE7000080B485B000AF78600023FB73F1
:1009A0000023BB730F237B737B68DB78002B38D06D
:1009B000264BDB68DB4303F4E0631B0AFB73FB7B22
:1009C000C3F10403BB737A7BFB7B42FA03F37B73B3
:1009D0007B685B781A46BB7B02FA03F3FB737B6888
:1009E0009A787B7B1340DAB2FB7B1343FB73FB7B70
:1009F0001B01FB73164A7B681B781344FA7B83F850
:100A00000023134A7B681B785B09DBB218467B68BE
:100A10001B7803F01F03012101FA03F342F8203091
:100A20000FE00B497B681B785B09DBB218467B68DB
:100A30001B7803F01F0301229A4000F1200341F8C4
:100A4000232000BF1437BD4680BC704700ED00E096
:100A500000E100E041542B4F52474C0D0A000000CA
:100A6000726573746F72652064656661756C74205D
:100A7000737461747573202D2D20737563636573B2
:100A8000730D0A00726573746F7265206465666128
:100A9000756C7420737461747573202D2D66616993
:100AA0006C0D0A0041542B4E414D453D4472697610
:100AB0006552696768740D0A000000007365742050
:100AC000746865206E616D65202D2D2073756363DC
:100AD0006573730D0A0000007365742074686520E7
:100AE0006E616D65202D2D6661696C0D0A00000038
:100AF00041542B505357443D313233340D0A0000DA
:100B0000736574207468652070696E20636F646516
:100B1000202D2D20737563636573730D0A0000002B
:100B2000736574207468652070696E20636F6465F6
:100B3000202D2D6661696C0D0A00000041542B497F
:100B40004E49540D0A000000696E697469616C6950
:100B50007A65207370702070726F66696C65206CA6
:100B60006962202D2D20737563636573730D0A0010
:100B7000696E697469616C697A6520737070207040
:100B8000726F66696C65206C6962202D2D666169E3
:100B90006C0D0A0041542B494E510D0A0000000013
:100BA00073657420746F207061697261626C652076
:100BB0007374617465202D2D207375636365737381
:100BC0000D0A000073657420746F20706169726192
:100BD000626C65207374617465202D2D6661696C8B
:100BE0000D0A000041542B524F4C453D310D0A0077
:100BF0004D6F64756C6520726F6C65207365742031
:100C0000746F206D6173746572202D2D2073756370
:100C1000636573730D0A00004D6F64756C65207217
:100C20006F6C652073657420746F206D61737465DB
:100C300072202D2D6661696C0D0A00004C45442020
:100C40004F4E0D0A000000004C4544204F46460D13
:100C50000A0000002057656C636F6D6520746F207B
:0D0C6000426C7565746F6F7468210D0A0099
:100C70000000000001020304010203040607080942
:0400000508000000EF
:00000001FF
