:020000040800F2
:10000000C835012031060008A1060008A106000835
:10001000A1060008A1060008A106000800000000D3
:10002000000000000000000000000000B11E0008F9
:10003000A1060008000000005D200008B9200008AB
:10004000A1060008A1060008A1060008A1060008F4
:10005000A1060008A1060008A1060008A1060008E4
:10006000A1060008A1060008A1060008A1060008D4
:10007000A1060008A1060008A1060008A1060008C4
:10008000A1060008A1060008A1060008A1060008B4
:10009000A1060008A1060008A1060008A1060008A4
:1000A000A1060008A1060008A1060008A106000894
:1000B000A1060008A1060008A1060008A106000884
:1000C000A1060008A1060008A1060008A106000874
:1000D000A106000889010008A1060008A106000881
:1000E000A1060008A1060008A1060008A106000854
:1000F000A1060008A1060008A1060008A106000844
:10010000A1060008A1060008A1060008A106000833
:10011000A1060008A1060008A1060008A106000823
:10012000A1060008A1060008A1060008A106000813
:10013000A1060008A1060008A1060008A106000803
:10014000A1060008A1060008A1060008A1060008F3
:10015000A1060008A1060008A1060008A1060008E3
:10016000A1060008A1060008A1060008A1060008D3
:10017000A1060008A1060008A1060008A1060008C3
:10018000A1060008A106000880B586B000AF0023D4
:10019000FB750A23BB75174B1B889BB203F020032A
:1001A000002B23D0134800F0CFF903461A46124B18
:1001B0001A60114B1B68312B0AD101224FF4807158
:1001C0000E4801F0B3FC09210D4800F0AFF80DE036
:1001D000094B1B68302B09D100224FF4807107486E
:1001E00001F0A4FC0A21074800F0A0F800BF18376E
:1001F000BD4680BD00100140802D0120000002405E
:10020000D82F0008E42F0008B0B588B000AF114B1C
:100210003C1D1D460FCD0FC495E8070003C4227096
:100220000121012000F014FB00F06CF800F01EF832
:1002300000F048F8012240F22551074800F094F9F7
:100240003B1D1921184600F071F800BF2037BD464C
:10025000B0BD00BFF02F00080010014080B400AF17
:1002600000BFBD465DF8047B704700BF80B582B01B
:1002700000AF4FF480733B6002237B710023BB719E
:100280003B4619460E4801F0C3FB4FF400733B6038
:100290000023BB7102237B713B461946084801F0DD
:1002A000B7FB4FF480633B6000233B713B4619462C
:1002B000034801F0ADFB00BF0837BD4680BD00BF5D
:1002C0000000024080B584B000AF4FF416533B608D
:1002D0000023BB800023FB8000233B810023BB81E4
:1002E0000C237B813B461946054800F041F801216B
:1002F000034800F0F7F800BF1037BD4680BD00BFCF
:100300000010014080B582B000AF25233B7100236F
:100310007B710023BB710123FB713B1D184602F06A
:100320002BFB00BF0837BD4680BD00BF80B582B043
:1003300000AF7860396010E07B685A1C7A601B78E7
:100340009BB21946094800F0EDF800BF402107486C
:1003500000F052F90346002BF8D03B685A1E3A6071
:10036000002BE9D100BF0837BD4680BD0010014019
:1003700080B58AB000AF7860396000237B620023CB
:100380003B620023FB610023BB617B681B8A9BB23D
:100390007B627B6A23F440537B623B68DB881A46AE
:1003A0007B6A13437B627B6A9AB27B681A827B68A2
:1003B0009B899BB27B627B6A23F4B05323F00C03CE
:1003C0007B623B689A883B681B8913439AB23B68FF
:1003D0005B8913439BB21A467B6A13437B627B6A39
:1003E0009AB27B689A817B689B8A9BB27B627B6AAC
:1003F00023F440737B623B689B891A467B6A1343F4
:100400007B627B6A9AB27B689A8207F1080318467E
:1004100000F074F97B68304A934203D07B682F4A1E
:10042000934202D17B693B6201E03B693B627B689E
:100430009B899BB21BB2002B0CDA3A6A13469B00D5
:1004400013449A001A443B681B685B00B2FBF3F349
:10045000FB610BE03A6A13469B0013449A001A446E
:100460003B681B689B00B2FBF3F3FB61FB691C4A12
:10047000A2FB03235B091B017B627B6A1B096422CD
:1004800002FB03F3FA69D31ABB617B689B899BB2B9
:100490001BB2002B0CDABB69DB003233104AA2FB23
:1004A00003235B0903F007037A6A13437B620BE0C3
:1004B000BB691B0132330A4AA2FB03235B0903F029
:1004C0000F037A6A13437B627B6A9AB27B681A8154
:1004D00000BF2837BD4680BD001001400014014018
:1004E0001F85EB5180B483B000AF78600B46FB7082
:1004F000FB78002B08D07B689B899BB243F40053A8
:100500009AB27B689A8107E07B689B899BB223F44F
:1005100000539AB27B689A8100BF0C37BD465DF8E4
:10052000047B704780B483B000AF78600B467B805B
:100530007B88C3F308039AB27B689A8000BF0C37AC
:10054000BD465DF8047B704780B483B000AF78602F
:100550007B689B889BB2C3F308039BB218460C3799
:10056000BD465DF8047B704780B487B000AF78600B
:100570000B467B8013467B7000233B610023FB60AE
:100580000023BB6000237B617B687B617B88DBB2DF
:100590005B09DBB23B617B8803F01F03FB60012238
:1005A000FB6802FA03F3BB603B69012B03D17B6953
:1005B0000C337B6109E03B69022B03D17B6910336B
:1005C0007B6102E07B6914337B617B78002B06D072
:1005D0007B697A691168BA680A431A6006E07B6928
:1005E0007A691168BA68D2430A401A6000BF1C37A2
:1005F000BD465DF8047B704780B485B000AF78607D
:100600000B467B800023FB737B681B889AB27B8838
:1006100013409BB2002B02D00123FB7301E00023A7
:10062000FB73FB7B18461437BD465DF8047B7047AF
:1006300080B582B000AF144B7B60144B3B6007E089
:100640003B681A1D3A607A68111D796012681A6059
:100650003B680F4A9342F3D30E480F494FF0000214
:100660008842B8BF40F8042BFADBDFF8300001689D
:1006700041F47001016001F027FB00F025F800BF94
:100680000837BD4680BD00BF3030000800000020A4
:100690003000002030000020C82D012088ED00E04F
:1006A00080B400AFFEE700BF80B500AFFFF7ACFD40
:1006B00000BF80BD80B582B000AF7860FFF7CEFD8F
:1006C0000A2000F019FCF9E780B584B004AFFFF709
:1006D000EBFF0023039300230293002301930123E4
:1006E0000093002382220349034800F051FB00F0ED
:1006F00035FCFEE70C300008B506000880B489B070
:1007000000AF78600023BB6100237B610023FB61A5
:1007100002233B610023FB600223BB60484B9B68C4
:1007200003F00C03BB61BB69042B07D0082B09D075
:10073000002B3FD17B68434A1A603FE07B68424A06
:100740001A603BE03E4B5B6803F480039B0DFB604B
:100750003B4B5B6803F03F03BB60FB68002B0DD095
:10076000394ABB68B2FBF3F2354B596847F6C073A0
:100770000B409B0903FB02F3FB610CE0314ABB68B1
:10078000B2FBF3F22E4B596847F6C0730B409B093E
:1007900003FB02F3FB612A4B5B6803F440331B0C41
:1007A00001335B003B61FA693B69B2FBF3F27B68A2
:1007B0001A6003E07B68234A1A6000BF204B9B68E5
:1007C00003F0F003BB61BB691B09BB611F4ABB6936
:1007D00013441B78DBB27B617B681A687B69DA4063
:1007E0007B685A60164B9B6803F4E053BB61BB699E
:1007F0009B0ABB61154ABB6913441B78DBB27B6162
:100800007B685A687B69DA407B689A600C4B9B680E
:1008100003F46043BB61BB695B0BBB610B4ABB6903
:1008200013441B78DBB27B617B685A687B69DA40D2
:100830007B68DA6000BF2437BD465DF8047B7047F3
:10084000003802400024F40000127A00000000206A
:1008500080B483B000AF78600B46FB70FB78002B50
:1008600006D00A49094B1A6B7B6813430B6306E0F9
:100870000649064B1A6B7B68DB4313400B6300BFD2
:100880000C37BD465DF8047B704700BF003802405E
:1008900080B586B004AF00237B6000F03BFA0F4BBD
:1008A0001B68002B0FD00023039300230293002327
:1008B00001930223009300234FF4827208490948F0
:1008C00000F066FA78607B68002B02D101F0B8FB7B
:1008D000FEE77B6818460837BD4680BD60000020F3
:1008E00018300008D909000880B588B000AFF8605A
:1008F000B9607A603B600023FB611A4B1B68002BD8
:100900002AD0BB683B617B687B61FB68BB613B684D
:10091000002B18D100F0BEFF0346022B09D1114B6A
:10092000186807F110010023BA6A01F0C7FCF861EA
:1009300012E00C4B186807F110010023002201F0AF
:10094000BDFCF86108E0074B186807F110010023AF
:100950003A6801F06FFDF861FB6918462037BD4623
:1009600080BD00BF6000002080B586B002AF786017
:100970003960184B1B68DB68DB68FB60FB6804337D
:10098000184601F077F9FB68DB69012B1AD1FB6887
:100990009A697B68D1187B683A68F86800F0A8F813
:1009A0000346012B0ED10023009300237A68002117
:1009B000F868FFF799FFB860BB68002B02D101F01F
:1009C0003FFBFEE7FB685B6AF868984700BF10379B
:1009D000BD4680BD5800002080B584B000AF78606F
:1009E00007F10803184600F03FF8F860BB681946A5
:1009F000F86800F003F800F0BDF8F1E780B584B0C6
:100A000000AF7860396000F0E1FA07F1080318469A
:100A100000F04EF8F860BB68002B1DD13B68002B3E
:100A20000AD17A68FB689A4206D800F0DDFAF968C4
:100A30007868FFF799FF11E00A4B18687A68FB683D
:100A4000D31A194601F06CFF00F0CEFA0346002BD2
:100A500004D101F0B7FA01E000F0C6FA00BF103788
:100A6000BD4680BD6000002080B485B000AF7860D6
:100A70000E4B1B681B68002B0CBF01230023DBB24D
:100A80001A467B681A607B681B68002B05D1074BF0
:100A90001B68DB681B68FB6001E00023FB60FB68F0
:100AA00018461437BD465DF8047B70475800002097
:100AB00080B584B000AF786000F01CFBF8600B4B91
:100AC0001B68FA689A4205D200F0CAF87B680122D6
:100AD0001A6002E07B6800221A60044AFB68136017
:100AE000FB6818461037BD4680BD00BF640000207B
:100AF00080B586B000AFF860B9607A603B600023D3
:100B00007B61FB68BA685A60FB68FA681A61BA6868
:100B10007B689A4212D87A683B68D21AFB689B6954
:100B20009A4202D301237B611BE0104B1A68FB68D9
:100B300004331946104601F063F812E07A683B6806
:100B40009A4206D2BA683B689A4202D301237B617B
:100B500007E0074B1A68FB6804331946104601F09A
:100B60004FF87B6918461837BD4680BD5C000020F1
:100B70005800002080B58AB002AF60E0BB68B3F1D6
:100B8000FF3F5CD03B69FB61FB695B69002B04D0D4
:100B9000FB690433184601F06DF83B1D1846FFF75A
:100BA00087FFB861BB68032B48D801A252F823F035
:100BB000C10B00083F0C00080D0C0008350C0008A4
:100BC000FA68FB699B69D118FB68BA69F869FFF795
:100BD0008FFF0346012B32D1FB695B6AF8699847A6
:100BE000FB69DB69012B2AD1FA68FB699B691A440E
:100BF0000023009300230021F869FFF775FE786158
:100C00007B69002B1BD101F01BFAFEE7FA68FB6938
:100C10009A61FB699B69002B02D101F011FAFEE792
:100C2000FB699A69BB69D118BB69BA69F869FFF7B2
:100C30005FFF04E0F86901F08FFF00E000BF074BA1
:100C4000186807F108010023002201F05DFC03464B
:100C5000002B93D100BF2037BD4680BD600000202F
:100C600080B588B002AF3DE0284B1B68DB681B688D
:100C70007B61264B1B68DB68DB683B613B690433A7
:100C8000184600F0F7FF3B695B6A386998473B6993
:100C9000DB69012B26D13B699A697B691344FB60B0
:100CA000FA687B699A420ED93B69FA685A603B69D7
:100CB0003A691A61154B1A683B69043319461046A4
:100CC00000F09EFF0EE00023009300237A690021CC
:100CD0003869FFF709FEB860BB68002B02D101F04C
:100CE000AFF9FEE7094B1B681B68002BBCD1074B13
:100CF0001B687B60064B1B68044A1360044A7B68D0
:100D0000136000BF1837BD4680BD00BF58000020EB
:100D10005C00002080B500AF01F066F9164B1B683F
:100D2000002B24D1154800F019FF154800F016FFDC
:100D3000144B124A1A60144B114A1A6000220C21FB
:100D40000A2001F079FA02460B4B1A600A4B1B6825
:100D5000002B02D101F074F9FEE7074B1B68002B52
:100D600005D0054B1B680949184601F0B1FD01F09B
:100D70004DF900BF80BD00BF6000002030000020A2
:100D800044000020580000205C00002020300008B3
:100D900080B58AB002AFF860B9603B601346FB8053
:100DA000FB68002B02D101F04BF9FEE7BB6A042B74
:100DB00002D901F045F9FEE7FB88396B184600F0CF
:100DC000F1FCB861BB69002B72D0BB691A6BFB8860
:100DD00003F18043013B9B0013447B617B6923F05B
:100DE00007037B617B6903F00703002B02D001F04E
:100DF00027F9FEE7FB8800937B6BBA6AB968B8698C
:100E000000F0D4FB3A68F968786901F00FF80246FF
:100E1000BB691A60FB6A002B02D0FB6ABA691A60D0
:100E200001F0E2F82E4B1B6801332D4A13602D4B65
:100E30001B68002B09D12B4ABB691360284B1B6828
:100E4000012B0FD100F0FCFB0CE0274B1B68002BA3
:100E500008D1244B1B68DA6ABB6A9A4202D8214A3D
:100E6000BB691360214B1B680133204A13601F4B81
:100E70001A68BB691A64BB69DA6A1D4B1B689A421F
:100E800003D9BB69DB6A1A4A1360BB69DA6A134685
:100E90009B0013449B00174A1A44BB69043319464C
:100EA000104600F089FE0123FB6101F0AFF802E07B
:100EB0004FF0FF33FB61FB69012B0BD10A4B1B6821
:100EC000002B07D0074B1B68DA6ABB6A9A4201D233
:100ED00001F078F8FB6918462037BD4680BD00BF99
:100EE00040010020680000204C010020600100202B
:100EF000480100206C00002080B584B000AF78600D
:100F00000023FB607B68002B19D0114B1B68002B62
:100F100002D001F095F8FEE700F058F80D4B1A6882
:100F20007B681344BB600C4B1B680433184600F00D
:100F3000A1FEB86800F000FC00F056F8F860FB680D
:100F4000002B01D101F03EF800BF1037BD4680BD37
:100F500050010020440100206800002080B586B0C8
:100F600004AF002303930023029300230193002383
:100F700000930023822211491148FFF709FF78608E
:100F80007B68012B02D1FFF783FC78607B68012B23
:100F90000AD101F055F80B4B01221A600A4B0022CE
:100FA0001A6000F0A7FF05E07B68002B02D101F07A
:100FB00047F8FEE700BF0837BD4680BD283000086F
:100FC0008D1500084C0100204401002080B400AFC2
:100FD000044B1B680133034A136000BFBD465DF834
:100FE000047B70475001002080B582B000AF002321
:100FF0007B60384B1B68002B02D101F021F8FEE723
:1010000000F0F2FF334B1B68013B324A1360314B57
:101010001B68002B56D1304B1B68002B52D02FE0A1
:101020002E4BDB68DB683B603B681833184600F0EA
:1010300021FE3B680433184600F01CFE3B68DA6A68
:10104000274B1B689A4203D93B68DB6A244A13602A
:101050003B68DA6A13469B0013449B00214A1A44FA
:101060003B6804331946104600F0A6FD3B68DA6A77
:101070001D4B1B68DB6A9A4202D31C4B01221A608B
:10108000164B1B68002BCBD1194B1B68002B11D0C2
:101090000CE000F041F80346002B02D0134B012274
:1010A0001A60134B1B68013B114A1360104B1B68FD
:1010B000002BEED10D4B1B68012B03D101237B606C
:1010C00000F080FF00F0A2FF7B6818460837BD469D
:1010D00080BD00BF50010020400100200001002021
:1010E000480100206C00002068000020580100200A
:1010F0005401002080B582B000AF00F075FF054BB1
:101100001B687B6000F082FF7B6818460837BD468D
:1011100080BD00BF4401002080B586B000AF002331
:101120007B614E4B1B68002B40F087804C4B1B684B
:1011300001334B4A13604A4B1B683B613B69002BF0
:1011400018D1484B1B681B68002B02D000F078FFB9
:10115000FEE7444B1B68FB60434B1B68414A13602E
:10116000414AFB681360414B1B6801333F4A1360DF
:1011700000F05AFB3E4B1B683A699A424ED3394BFA
:101180001B681B68002B01D1012300E00023002B0A
:1011900004D0374B4FF0FF321A603FE0314B1B68F1
:1011A000DB68DB68BB60BB685B687B603A697B6857
:1011B0009A4203D22E4A7B6813602FE0BB68043347
:1011C000184600F057FDBB689B6A002B04D0BB6833
:1011D0001833184600F04EFDBB68DA6A254B1B68D1
:1011E0009A4203D9BB68DB6A224A1360BB68DA6A99
:1011F00013469B0013449B001F4A1A44BB680433E8
:101200001946104600F0D8FCBB68DA6A1B4B1B6815
:10121000DB6A9A42B3D301237B61B0E7174B1B68AB
:10122000DA6A154913469B0013449B000B441B6864
:10123000012B07D901237B6104E0114B1B680133AB
:101240000F4A13600F4B1B68002B01D001237B61F9
:101250007B6918461837BD4680BD00BF500100208D
:1012600044010020F8000020FC0000205C01002068
:1012700010000020480100206C00002068000020C1
:10128000540100205801002080B582B000AF224BED
:101290001B68002B03D0214B01221A6038E01F4B42
:1012A00000221A600BE01E4B1B68002B02D100F0DD
:1012B000C7FEFEE71A4B1B68013B194A1360184B27
:1012C0001A68184913469B0013449B000B441B6883
:1012D000002BE8D0124B1A6813469B0013449B0066
:1012E000104A13447B607B685B685A687B685A606D
:1012F0007B685A687B6808339A4204D17B685B68D4
:101300005A687B685A607B685B68DB68064A1360D2
:1013100000BF0837BD4680BD5001002058010020A5
:10132000480100206C0000206800002080B584B0D7
:1013300000AF786039607B68002B02D100F080FE3E
:10134000FEE7124B1B6818331946786800F058FC0A
:101350000E4B1B680433184600F08CFC3B68B3F15D
:10136000FF3F07D1094B1B6804331946084800F0BA
:1013700023FC07E0074B1A683B681344FB60F868DE
:1013800000F0DAF900BF1037BD4680BD68000020CC
:101390002C0100204401002080B584B000AF7860AB
:1013A00039607B68002B02D100F04AFEFEE70C4B4F
:1013B0001B6818331946786800F0FEFB084B1B6861
:1013C0000433184600F056FC064B1A683B68134479
:1013D000FB60F86800F0B0F900BF1037BD4680BD73
:1013E000680000204401002080B584B000AF786020
:1013F0007B68DB68DB68BB60BB68002B02D100F058
:101400001FFEFEE7BB681833184600F033FC1E4B86
:101410001B68002B1DD1BB680433184600F02AFC62
:10142000BB68DA6A194B1B689A4203D9BB68DB6A4E
:10143000164A1360BB68DA6A13469B0013449B008C
:10144000134A1A44BB6804331946104600F0B4FB33
:1014500005E0BB68183319460E4800F0ADFBBB68C9
:10146000DA6A0D4B1B68DB6A9A4205D90123FB60DF
:101470000A4B01221A6001E00023FB60FB6818465A
:101480001037BD4680BD00BF50010020480100203C
:101490006C0000200001002068000020580100209E
:1014A00080B582B000AF78607B68002B02D100F07D
:1014B000C7FDFEE7054B1A687B681A60044B1A6883
:1014C0007B685A6000BF0837BD4680BD5C010020C4
:1014D0004401002080B584B000AF786039607B683B
:1014E000002B02D100F0ACFDFEE73B68002B02D1DF
:1014F00000F0A6FDFEE700F077FD1C4B1B68BB600B
:101500003B681B68B3F1FF3F02D10023FB6026E07C
:101510007B681A68164B1B689A4207D07B685A682A
:10152000BB689A4202D80123FB6018E07B685B68C5
:10153000BA68D21A3B681B689A420ED23B681A6896
:101540007B685968BB68CB1A1A443B681A60786894
:10155000FFF7A6FF0023FB6001E00123FB6000F022
:1015600055FDFB6818461037BD4680BD440100207C
:101570005C01002080B400AF034B01221A6000BF61
:10158000BD465DF8047B70475801002080B582B0ED
:1015900000AF786000F094F8034B1B68012BF9D979
:1015A00000F010FDF6E700BF6C00002080B586B0AB
:1015B00000AFF860B9607A603B6000237B6112E0A5
:1015C000BA687B6913441978FA687B691344343329
:1015D0000A461A70BA687B6913441B78002B06D040
:1015E0007B6901337B617B69092BE9D900E000BF8E
:1015F000FB68002283F83D207B68042B01D904237B
:101600007B60FB687A68DA62FB687A689A64FB68D8
:101610000433184600F0C2FAFB681833184600F08D
:10162000BDFAFB68FA681A617B68C3F10502FB68C2
:101630009A61FB68FA685A6200BF1837BD4680BDE0
:1016400080B582B000AF00237B600CE07A6813465F
:101650009B0013449B00124A1344184600F07EFA84
:101660007B6801337B607B68042BEFD90D4800F069
:1016700075FA0D4800F072FA0C4800F06FFA0C4849
:1016800000F06CFA0B4800F069FA0B4B054A1A603F
:101690000A4B054A1A6000BF0837BD4680BD00BF2F
:1016A0006C000020D0000020E40000200001002099
:1016B000140100202C010020F8000020FC00002074
:1016C00080B582B000AF28E0FFF780FC174B1B68A5
:1016D000002B0CBF01230023DBB27B60FFF784FCEF
:1016E0007B68002B19D100F07FFC104BDB68DB68B6
:1016F0003B603B680433184600F0BCFA0C4B1B6897
:10170000013B0B4A13600B4B1B68013B094A1360FA
:1017100000F07CFC386800F077F8064B1B68002B63
:10172000D2D100BF0837BD4680BD00BF14010020E4
:10173000400100202801002080B582B000AF786011
:10174000134B1B687A685A60124B1B687A689A427E
:1017500009D2114B1A680E4B1B6804331946104608
:1017600000F04EFA10E00D4B1A68094B1B68043369
:101770001946104600F044FA094B1B687A689A42F1
:1017800002D2074A7B68136000BF0837BD4680BDA0
:101790006800002044010020FC000020F800002028
:1017A0001000002080B584B000AF03463960FB8094
:1017B0004C2001F043F9F860FB68002B1ED03B6819
:1017C000002B06D1FB889B00184601F037F9034631
:1017D00000E03B68FA681363FB681B6B002B05D1C4
:1017E000F86801F0B9F90023FB6007E0FB68186BAB
:1017F000FB889B001A46A52101F0ACFAFB6818464D
:101800001037BD4680BD00BF80B582B000AF7860A4
:101810007B681B6B184601F09FF9786801F09CF912
:1018200000BF0837BD4680BD80B483B000AF0F4B0A
:101830001B681B68002B01D1012300E00023002B53
:1018400004D00B4B4FF0FF321A6008E0074B1B68C7
:10185000DB68DB687B607B685B68054A136000BF00
:101860000C37BD465DF8047B704700BFF8000020D0
:101870001000002080B483B000AF054B1B687B6074
:101880007B6818460C37BD465DF8047B704700BF87
:101890006800002080B483B000AF0B4B1B68002BA6
:1018A00002D101237B6008E0084B1B68002B02D1AA
:1018B00002237B6001E000237B607B6818460C37C5
:1018C000BD465DF8047B70474C01002050010020AC
:1018D00080B584B000AF78607B68FB607B68002BCC
:1018E0004AD0FB68DA6A264B1B68DB6A9A4243D20D
:1018F000FB689B69002B06DB214B1B68DB6AC3F18D
:101900000502FB689A61FB685969FB68DA6A13464D
:101910009B0013449B001B4A1344994201D10123AD
:1019200000E00023002B22D0FB680433184600F0AF
:10193000A1F9134B1B68DA6AFB68DA62FB68DA6AA2
:10194000114B1B689A4203D9FB68DB6A0E4A13608D
:10195000FB68DA6A13469B0013449B00094A1A4449
:10196000FB6804331946104600F026F904E0044BE6
:101970001B68DA6AFB68DA6200BF1037BD4680BDBB
:10198000680000206C0000204801002080B584B071
:1019900000AF78607B68FB607B68002B30D0FB6811
:1019A000DA6AFB689B6C9A422AD0FB6804331846BB
:1019B00000F060F9FB689A6CFB68DA62FB689B696F
:1019C000002B05DBFB68DB6AC3F10502FB689A614B
:1019D000FB68DA6A0C4B1B689A4203D9FB68DB6A26
:1019E000094A1360FB68DA6A13469B0013449B00A4
:1019F000064A1A44FB6804331946104600F0DCF826
:101A000000BF1037BD4680BD480100206C0000209B
:101A100080B487B000AF7860396000237B61002319
:101A20003B610023FB6000237B6176E001227B6940
:101A300002FA03F33B613B681A683B691340FB60A1
:101A4000FA683B699A4265D17B681A687B695B00DA
:101A5000032101FA03F3DB431A407B681A607B68B9
:101A60001A683B681B7919467B695B0001FA03F32E
:101A70001A437B681A603B681B79012B03D03B68D3
:101A80001B79022B2ED17B689A687B695B0003214E
:101A900001FA03F3DB431A407B689A607B689A681B
:101AA0003B685B7919467B695B0001FA03F31A43D3
:101AB0007B689A607B685A687B699BB219460123F0
:101AC0008B40DB431A407B685A607B685B683A68EE
:101AD000927911467A6992B201FA02F292B21A43ED
:101AE0007B685A607B68DA687B699BB25B00032184
:101AF00001FA03F3DB431A407B68DA607B68DA683B
:101B00003B68DB7919467B695B0001FA03F31A43F2
:101B10007B68DA607B6901337B617B690F2B85D938
:101B200000BF1C37BD465DF8047B704780B483B0AE
:101B300000AF78600B467B8013467B707B78002B70
:101B400003D07B687A881A8302E07B687A885A839C
:101B500000BF0C37BD465DF8047B704780B483B08E
:101B600000AF78607B6803F108027B685A607B688D
:101B70004FF0FF329A607B6803F108027B68DA60FD
:101B80007B6803F108027B681A617B6800221A6097
:101B900000BF0C37BD465DF8047B704780B483B04E
:101BA00000AF78607B6800221A6100BF0C37BD4629
:101BB0005DF8047B704700BF80B485B000AF7860EB
:101BC00039607B685B68FB603B68FA685A60FB6859
:101BD0009A683B689A60FB689B683A685A60FB6841
:101BE0003A689A603B687A681A617B681B685A1C7D
:101BF0007B681A6000BF1437BD465DF8047B7047F0
:101C000080B485B000AF786039603B681B68BB600A
:101C1000BB68B3F1FF3F03D17B681B69FB600CE03D
:101C20007B680833FB6002E0FB685B68FB60FB6875
:101C30005B681A68BB689A42F6D9FB685A683B68C9
:101C40005A603B685B683A689A603B68FA689A60D9
:101C5000FB683A685A603B687A681A617B681B685F
:101C60005A1C7B681A6000BF1437BD465DF8047BC0
:101C7000704700BF80B485B000AF78607B681B6997
:101C8000FB607B685B687A6892689A607B689B6897
:101C90007A6852685A60FB685A687B689A4203D136
:101CA0007B689A68FB685A607B6800221A61FB684F
:101CB0001B685A1EFB681A60FB681B6818461437BD
:101CC000BD465DF8047B704780B500AF164A164BE1
:101CD000D3F8883043F47003C2F88830134A134BAA
:101CE0001B6843F001031360104B00229A600F4AF7
:101CF0000E4B1B6823F0847323F4803313600B4B6B
:101D00000B4A5A60094A094B1B6823F4802313606D
:101D1000064B0022DA6000F00DF8034B4FF0006232
:101D20009A6000BF80BD00BF00ED00E000380240B7
:101D30001030002480B483B000AF00237B60002308
:101D40003B60364A354B1B6843F480331360334B9A
:101D50001B6803F400333B607B6801337B603B68A6
:101D6000002B03D17B68B3F5A06FF0D12B4B1B6820
:101D700003F40033002B02D001233B6001E0002379
:101D80003B603B68012B42D1244A244B1B6C43F03F
:101D900080531364224A224B1B6843F48043136030
:101DA0001E4A1E4B9B6893601C4A1C4B9B6843F465
:101DB00000439360194A194B9B6843F4A053936006
:101DC000164B184A5A60154A144B1B6843F080732F
:101DD000136000BF114B1B6803F00073002BF9D098
:101DE000114B40F205621A600C4A0C4B9B6823F0C1
:101DF00003039360094A094B9B6843F00203936015
:101E000000BF064B9B6803F00C03082BF9D100BF01
:101E10000C37BD465DF8047B704700BF00380240B8
:101E20000070004008544007003C024080B485B078
:101E300000AFF860B9607A60FB68043BFB60FB6848
:101E40004FF080721A60FB68043BFB60BA68FB6865
:101E50001A60FB68043BFB600C4AFB681A60FB6875
:101E6000143BFB607A68FB681A60FB68043BFB600C
:101E7000FB686FF002021A60FB68203BFB60FB68A6
:101E800018461437BD465DF8047B7047911E000864
:101E900080B500AF054B1B68B3F1FF3F02D000F0E7
:101EA000CFF8FEE700F0CCF8FEE700BF28000020E6
:101EB000064B19680868B0E8F04F80F30988BFF353
:101EC0006F8F4FF0000080F311887047680000208A
:101ED00000BF00BF06480068006880F3088862B64B
:101EE000BFF34F8FBFF36F8F00DF00BF00BF000055
:101EF00008ED00E080B584B000AF2C4BFB60FB68C0
:101F00001B78DBB2BB60FB68FF221A70FB681B7892
:101F1000DBB2FB71FB79DBB203F05003DAB2244B86
:101F20001A70244B07221A6009E0224B1B68013B00
:101F3000204A1360FB79DBB25B00DBB2FB71FB79FB
:101F4000DBB25BB2002BF0DB1A4B1B681B02194A99
:101F50001360184B1B6803F4E063164A1360BB68F8
:101F6000DAB2FB681A70144A134B1B6843F470030F
:101F70001360114A104B1B6843F07043136000F06C
:101F8000AFF80E4B00221A6000F0C6F80C4A0C4B5A
:101F90001B6843F040431360FFF79CFFFFF778FF97
:101FA000002318461037BD4680BD00BF00E400E0A6
:101FB000640100206801002020ED00E028000020DE
:101FC00034EF00E080B400AF064B4FF080521A604F
:101FD000BFF34F8FBFF36F8F00BFBD465DF8047B2B
:101FE000704700BF04ED00E080B500AF00F028F8B6
:101FF000054B1B680133044A1360BFF34F8FBFF3D7
:102000006F8F00BF80BD00BF2800002080B500AFEB
:102010000A4B1B68002B02D100F012F8FEE7074BB9
:102020001B68013B054A1360044B1B68002B02D15F
:10203000002000F00FF800BF80BD00BF2800002086
:10204000EFF311804FF0500181F3118870470023A6
:10205000184600BF80F31188704700BFEFF3098076
:10206000BFF36F8F124B1A681EF0100F08BF20EDE0
:10207000108A20E9F04F10604DF8043D4FF05000F9
:1020800080F31188FFF700F94FF0000080F311880A
:1020900008BC19680868B0E8F04F1EF0100F08BFC0
:1020A000B0EC108A80F30988BFF36F8F704700BFD0
:1020B0006800002000BF00BF80B500AFFFF7C0FF81
:1020C000FFF72AF80346002B03D0044B4FF0805251
:1020D0001A600020FFF7BEFF00BF80BD04ED00E0E6
:1020E00080B400AF084A094B1B680949A1FB0313E0
:1020F0009B09013B1360074B07221A6000BFBD46D6
:102100005DF8047B704700BF14E000E0140000207D
:10211000D34D621010E000E0DFF80C00016841F4DC
:1021200070010160704700BF88ED00E080B582B0AB
:1021300000AFEFF305837B607B680F2B0CD90E4A51
:102140007B6813441B78FB700C4B1B78FA789A421F
:1021500002D2FFF775FFFEE7094B1B6803F4E0624C
:10216000084B1B689A4202D9FFF76AFFFEE700BFDF
:102170000837BD4680BD00BFF0E300E064010020E9
:102180000CED00E06801002080B584B000AF7860FD
:1021900039607B68FB60FB68002B02D1FFF750FFC2
:1021A000FEE7FFF721FFFB681A68FB68DB6BF96845
:1021B000096C01FB03F31A44FB685A60FB680022B8
:1021C0009A63FB681A68FB689A60FB681A68FB6888
:1021D000DB6B013BF968096C01FB03F31A44FB68F4
:1021E000DA60FB684FF0FF325A64FB684FF0FF3251
:1021F0009A643B68002B0ED1FB681B69002B14D03E
:10220000FB6810331846FFF7EFF80346012B0CD19B
:10221000FFF7D8FE09E0FB6810331846FFF79EFC75
:10222000FB6824331846FFF799FCFFF7EFFE012304
:1022300018461037BD4680BD80B588B000AFF86045
:10224000B9601346FB710023FB61FB68002B2AD0A9
:10225000542000F0F3FBB861BB69002B23D0FB686E
:10226000BA6802FB03F301337B61786900F0E6FB97
:102270000246BB691A60BB691B68002B10D0BB69A2
:10228000FA68DA63BB69BA681A640121B869FFF7B2
:102290007BFFBB69FA7983F85020BB69FB6102E0E0
:1022A000B86900F059FCFB69002B02D1FFF7C8FEAA
:1022B000FEE7FB6918462037BD4680BD80B588B073
:1022C00000AFF860B9607A603B600023FB61FB6897
:1022D000BB61BB69002B02D1FFF7B2FEFEE7BB6812
:1022E000002B03D1BB691B6C002B01D1012300E043
:1022F0000023002B02D1FFF7A3FEFEE73B68022B71
:1023000003D1BB69DB6B012B01D1012300E000236A
:10231000002B02D1FFF794FEFEE7FFF7BBFA03465E
:10232000002B02D17B68002B01D1012300E00023A8
:10233000002B02D1FFF784FEFEE7FFF755FEBB69D5
:102340009A6BBB69DB6B9A4202D33B68022B16D1B6
:102350003A68B968B86900F0B3F9BB695B6A002BE9
:1023600009D0BB6924331846FFF73EF80346012B1A
:1023700001D1FFF727FEFFF749FE012356E07B68F6
:10238000002B03D1FFF742FE00234FE0FB69002B37
:1023900006D107F110031846FFF782F80123FB610D
:1023A000FFF734FEFEF712FEFFF71EFEBB695B6C03
:1023B000B3F1FF3F02D1BB6900225A64BB699B6C39
:1023C000B3F1FF3F02D1BB6900229A64FFF71EFE02
:1023D0003A1D07F1100311461846FFF77BF8034634
:1023E000002B1DD1B86900F05BFA0346002B11D019
:1023F000BB6910337A6811461846FEF797FFB86933
:1024000000F0ECF9FEF7F0FD0346002B95D1FFF745
:10241000D9FD92E7B86900F0E1F9FEF7E5FD8CE738
:10242000B86900F0DBF9FEF7DFFD0023184620371E
:10243000BD4680BD80B588B000AFF860B9607A60F5
:102440003B60FB68BB61BB69002B02D1FFF7F8FD65
:10245000FEE7BB68002B03D1BB691B6C002B01D1CD
:10246000012300E00023002B02D1FFF7E9FDFEE786
:102470003B68022B03D1BB69DB6B012B01D101232C
:1024800000E00023002B02D1FFF7DAFDFEE7FFF7A3
:102490004DFEFFF7D5FD7861BB699A6BBB69DB6BBD
:1024A0009A4202D33B68022B24D13A68B968B869D2
:1024B00000F006F9BB699B6CB3F1FF3F12D1BB6919
:1024C0005B6A002B13D0BB6924331846FEF78CFFE0
:1024D0000346002B0BD07B68002B08D07B680122C1
:1024E0001A6004E0BB699B6C5A1CBB699A640123A7
:1024F000FB6101E00023FB617869FFF7ABFDFB693D
:1025000018462037BD4680BD80B58AB000AFF86060
:10251000B9607A603B6000237B62FB683B623B6A88
:10252000002B02D1FFF78CFDFEE7BB68002B03D127
:102530003B6A1B6C002B01D1012300E00023002B20
:1025400002D1FFF77DFDFEE7FFF7A4F90346002B5C
:1025500002D17B68002B01D1012300E00023002B76
:1025600002D1FFF76DFDFEE7FFF73EFD3B6A9B6B77
:10257000002B3BD03B6ADB68FB61B968386A00F02E
:1025800007F93B68002B1CD13B6A9B6B5A1E3B6AC8
:102590009A633B6A1B68002B04D1FFF76BF9024674
:1025A0003B6A5A603B6A1B69002B1BD03B6A1033A5
:1025B0001846FEF719FF0346012B13D1FFF702FD62
:1025C00010E03B6AFA69DA603B6A5B6A002B09D06B
:1025D0003B6A24331846FEF707FF0346002B01D061
:1025E000FFF7F0FCFFF712FD012364E07B68002B8E
:1025F00003D1FFF70BFD00235DE07B6A002B06D1C2
:1026000007F114031846FEF74BFF01237B62FFF727
:10261000FDFCFEF7DBFCFFF7E7FC3B6A5B6CB3F10C
:10262000FF3F02D13B6A00225A643B6A9B6CB3F1C4
:10263000FF3F02D13B6A00229A64FFF7E7FC3A1D94
:1026400007F1140311461846FEF744FF0346002B1A
:102650002BD1386A00F00EF90346002B1FD03B6ADD
:102660001B68002B08D1FFF7BFFC3B6A5B6818466C
:10267000FFF72EF9FFF7CAFC3B6A24337A6811464C
:102680001846FEF753FE386A00F0A8F8FEF7ACFCD7
:102690000346002B7FF468AFFFF794FC64E7386AC9
:1026A00000F09CF8FEF7A0FC5EE7386A00F096F8B0
:1026B000FEF79AFC002318462837BD4680BD00BFB0
:1026C00080B584B000AFF860B9607A60FB681B6CBD
:1026D000002B0CD1FB681B68002B4FD1FB685B689B
:1026E0001846FFF753F9FB6800225A6046E07B6802
:1026F000002B19D1FB689868FB681B6C1A46B968F7
:1027000000F08EFAFB689A68FB681B6C1A44FB6841
:102710009A60FB689A68FB685B689A422ED3FB68F4
:102720001A68FB689A6029E0FB68D868FB681B6C34
:102730001A46B96800F074FAFB68DA68FB681B6C2B
:102740005B421A44FB68DA60FB68DA68FB681B6866
:102750009A4207D2FB685A68FB681B6C5B421A44BA
:10276000FB68DA607B68022B08D1FB689B6B002B4F
:1027700004D0FB689B6B5A1EFB689A63FB689B6BDB
:102780005A1CFB689A6300BF1037BD4680BD00BF6E
:1027900080B582B000AF786039607B681B68002B21
:1027A00018D07B68DA687B681B6C1A447B68DA6037
:1027B0007B68DA687B685B689A4203D37B681A6837
:1027C0007B68DA607B68D9687B681B6C1A4638685E
:1027D00000F026FA00BF0837BD4680BD80B582B044
:1027E00000AF7860FFF700FC12E07B685B6A002BAB
:1027F00013D07B6824331846FEF7F6FD0346002B02
:1028000001D0FEF7B7FE7B689B6C5A1E7B689A640A
:102810007B689B6C002BE8DC00E000BF7B684FF01E
:10282000FF329A64FFF7F2FBFFF7DEFB12E07B68F2
:102830001B69002B13D07B6810331846FEF7D4FDBC
:102840000346002B01D0FEF795FE7B685B6C5A1E99
:102850007B685A647B685B6C002BE8DC00E000BF9F
:102860007B684FF0FF325A64FFF7D0FB00BF083798
:10287000BD4680BD80B584B000AF7860FFF7B4FB83
:102880007B689B6B002B02D10123FB6001E00023DE
:10289000FB60FFF7BBFBFB6818461037BD4680BDE9
:1028A00080B584B000AF7860FFF79EFB7B689A6BC1
:1028B0007B68DB6B9A4202D10123FB6001E00023BD
:1028C000FB60FFF7A3FBFB6818461037BD4680BDD1
:1028D00080B485B000AF786039600023FB6014E0FD
:1028E0000E4AFB6852F83330002B0BD10B49FB68C2
:1028F0003A6841F83320094AFB68DB0013447A68E0
:102900005A6005E0FB680133FB60FB68072BE7D9E1
:1029100000BF1437BD465DF8047B7047882D012049
:1029200080B584B000AF786039607B68FB60FFF7EA
:102930005BFBFB685B6CB3F1FF3F02D1FB680022DD
:102940005A64FB689B6CB3F1FF3F02D1FB68002225
:102950009A64FFF75BFBFB689B6B002B05D1FB6860
:10296000243339681846FEF717FDF868FFF736FF7D
:1029700000BF1037BD4680BD80B485B000AF786021
:102980000023FB730023BB730F237B737B68DB780F
:10299000002B38D0274BDB68DB4303F4E0631B0AD2
:1029A000FB73FB7BC3F10403BB737A7BFB7B42FAB3
:1029B00003F37B737B685B781A46BB7B02FA03F3F5
:1029C000FB737B689A787B7B1340DAB2FB7B134303
:1029D000FB73FB7B1B01FB73174A7B681B7813445B
:1029E000FA7B83F80023144A7B681B785B09DBB20F
:1029F00018467B681B7803F01F03012101FA03F3DB
:102A000042F820300FE00C497B681B785B09DBB291
:102A100018467B681B7803F01F0301229A4000F1DF
:102A2000200341F8232000BF1437BD465DF8047B26
:102A3000704700BF00ED00E000E100E080B588B025
:102A400000AF786000237B61FEF7C0FA3D4B1B6846
:102A5000002B04D100F0BAF83A4B01221A607B68CF
:102A6000002B0ED008231A467B6813447B607B68DA
:102A700003F00703002B04D07B6823F0070308331F
:102A80007B607B68002B56D07B682F4A934252D8DC
:102A90002E4BBB612D4B1B68FB6104E0FB69BB61E6
:102AA000FB691B68FB61FB695A687B689A4203D229
:102AB000FB691B68002BF1D1FB69254A93423AD090
:102AC000BB691B68082213447B61FB691A68BB69F8
:102AD0001A60FB695A687B68D31A08225200934235
:102AE00022D9FA697B681344FB60FB695A687B68EA
:102AF000D21AFB685A60FB697A685A60FB685B68A7
:102B0000BB60124B3B6102E03B691B683B613B6968
:102B10001B685A68BB689A42F6D33B691A68FB681F
:102B20001A603B69FA681A600A4B1A68FB695B68AD
:102B3000D31A084A1360FEF757FA7B691846203704
:102B4000BD4680BD7C2D0120F72B01006C2D01209E
:102B5000742D01202C00002080B586B000AF786075
:102B60007B683B617B68002B27D008235B423A6976
:102B700013443B613B69FB60FEF728FAFB685B6826
:102B8000BB60104B7B6102E07B691B687B617B69EA
:102B90001B685A68BB689A42F6D37B691A68FB685F
:102BA0001A607B69FA681A60FB685A68064B1B68F2
:102BB0001344054A1360FEF717FA00BF1837BD46E5
:102BC00080BD00BF6C2D01202C00002080B483B09C
:102BD00000AF0F4B23F007037B600E4A7B68136046
:102BE0000C4B00225A600C4B0C4A5A600A4B0022D4
:102BF0001A607B683B603B68084A5A603B68064A3B
:102C00001A6000BF0C37BD465DF8047B704700BFFB
:102C1000740100206C2D0120742D0120F82B01007F
:102C2000844641EA000313F003036DD1403A41D3D7
:102C300051F8043B40F8043B51F8043B40F8043B96
:102C400051F8043B40F8043B51F8043B40F8043B86
:102C500051F8043B40F8043B51F8043B40F8043B76
:102C600051F8043B40F8043B51F8043B40F8043B66
:102C700051F8043B40F8043B51F8043B40F8043B56
:102C800051F8043B40F8043B51F8043B40F8043B46
:102C900051F8043B40F8043B51F8043B40F8043B36
:102CA00051F8043B40F8043B51F8043B40F8043B26
:102CB000403ABDD2303211D351F8043B40F8043BC6
:102CC00051F8043B40F8043B51F8043B40F8043B06
:102CD00051F8043B40F8043B103AEDD20C3205D3D6
:102CE00051F8043B40F8043B043AF9D2043208D0CE
:102CF000D2071CBF11F8013B00F8013B01D30B8840
:102D000003806046704700BF082A13D38B078DD01D
:102D100010F003038AD0C3F10403D21ADB071CBFEF
:102D200011F8013B00F8013B80D331F8023B20F859
:102D3000023B7BE7043AD9D3013A11F8013B00F892
:102D4000013BF9D20B7803704B7843708B7883701A
:102D50006046704770B4840746D0541E002A41D0A4
:102D6000CDB2034602E0621EE4B3144603F8015BF1
:102D70009A07F8D1032C2ED9CDB245EA05250F2CA0
:102D800045EA054519D903F110022646103E0F2EDB
:102D900042F8105C42F80C5C42F8085C42F8045CB3
:102DA00002F11002F2D8A4F1100222F00F0204F096
:102DB0000F041032032C13440DD91E462246043A48
:102DC000032A46F8045BFAD8221F22F003020432D9
:102DD000134404F003042CB1C9B21C4403F8011BD2
:102DE000A342FBD170BC704714460346C2E700BF44
:102DF00041542B4F52474C0D0A000000726573740A
:102E00006F72652064656661756C7420737461749B
:102E10007573202D2D20737563636573730D0A0020
:102E2000726573746F72652064656661756C742079
:102E3000737461747573202D2D6661696C0D0A00C1
:102E400041542B4E414D453D447269766552696748
:102E500068740D0A000000007365742074686520B2
:102E60006E616D65202D2D20737563636573730D21
:102E70000A00000073657420746865206E616D65DA
:102E8000202D2D6661696C0D0A00000041542B5005
:102E90005357443D313233340D0A000073657420BA
:102EA0007468652070696E20636F6465202D2D2025
:102EB000737563636573730D0A0000007365742096
:102EC0007468652070696E20636F6465202D2D66BF
:102ED00061696C0D0A00000041542B494E49540DA4
:102EE0000A000000696E697469616C697A65207313
:102EF00070702070726F66696C65206C6962202D3D
:102F00002D20737563636573730D0A00696E6974B0
:102F100069616C697A65207370702070726F666980
:102F20006C65206C6962202D2D6661696C0D0A004C
:102F300041542B494E510D0A000000007365742066
:102F4000746F207061697261626C65207374617462
:102F500065202D2D20737563636573730D0A000062
:102F600073657420746F207061697261626C652092
:102F70007374617465202D2D6661696C0D0A000003
:102F800041542B524F4C453D310D0A004D6F647535
:102F90006C6520726F6C652073657420746F206D92
:102FA0006173746572202D2D20737563636573736F
:102FB0000D0A00004D6F64756C6520726F6C6520A2
:102FC00073657420746F206D6173746572202D2D8C
:102FD0006661696C0D0A00004C4544204F4E0D0A95
:102FE000000000004C4544204F46460D0A000000FA
:102FF0002057656C636F6D6520746F20426C75653A
:10300000746F6F7468210D0A00000000426C7565D2
:10301000746F6F7468000000546D72205376630003
:0D302000546D72510000000049444C450001
:10303000000000000102030401020304060708095E
:10304000FFFFFFFF007A030A0000000000000000FD
:103050000102030406070809AAAAAAAAF82B01007C
:0400000508000000EF
:00000001FF
